{
	"assignment/assignment4Four.sol": {
		"RomanToInteger": {
			"abi": [
				{
					"inputs": [
						{
							"internalType": "string",
							"name": "s",
							"type": "string"
						}
					],
					"name": "romanToInt",
					"outputs": [
						{
							"internalType": "uint256",
							"name": "result",
							"type": "uint256"
						}
					],
					"stateMutability": "pure",
					"type": "function"
				}
			],
			"devdoc": {
				"kind": "dev",
				"methods": {
					"romanToInt(string)": {
						"params": {
							"s": "输入的罗马数字字符串"
						},
						"returns": {
							"result": "转换后的整数值"
						}
					}
				},
				"version": 1
			},
			"evm": {
				"assembly": "    /* \"assignment/assignment4Four.sol\":60:1480  contract RomanToInteger {... */\n  mstore(0x40, 0x80)\n  callvalue\n  dup1\n  iszero\n  tag_1\n  jumpi\n  revert(0x00, 0x00)\ntag_1:\n  pop\n  dataSize(sub_0)\n  dup1\n  dataOffset(sub_0)\n  0x00\n  codecopy\n  0x00\n  return\nstop\n\nsub_0: assembly {\n        /* \"assignment/assignment4Four.sol\":60:1480  contract RomanToInteger {... */\n      mstore(0x40, 0x80)\n      callvalue\n      dup1\n      iszero\n      tag_1\n      jumpi\n      revert(0x00, 0x00)\n    tag_1:\n      pop\n      jumpi(tag_2, lt(calldatasize, 0x04))\n      shr(0xe0, calldataload(0x00))\n      dup1\n      0xcb159dfe\n      eq\n      tag_3\n      jumpi\n    tag_2:\n      revert(0x00, 0x00)\n        /* \"assignment/assignment4Four.sol\":234:1477  function romanToInt(string memory s) public pure returns (uint result) {... */\n    tag_3:\n      tag_4\n      0x04\n      dup1\n      calldatasize\n      sub\n      dup2\n      add\n      swap1\n      tag_5\n      swap2\n      swap1\n      tag_6\n      jump\t// in\n    tag_5:\n      tag_7\n      jump\t// in\n    tag_4:\n      mload(0x40)\n      tag_8\n      swap2\n      swap1\n      tag_9\n      jump\t// in\n    tag_8:\n      mload(0x40)\n      dup1\n      swap2\n      sub\n      swap1\n      return\n    tag_7:\n        /* \"assignment/assignment4Four.sol\":292:303  uint result */\n      0x00\n        /* \"assignment/assignment4Four.sol\":316:332  bytes memory str */\n      0x00\n        /* \"assignment/assignment4Four.sol\":341:342  s */\n      dup3\n        /* \"assignment/assignment4Four.sol\":316:343  bytes memory str = bytes(s) */\n      swap1\n      pop\n        /* \"assignment/assignment4Four.sol\":415:426  uint length */\n      0x00\n        /* \"assignment/assignment4Four.sol\":429:432  str */\n      dup2\n        /* \"assignment/assignment4Four.sol\":429:439  str.length */\n      mload\n        /* \"assignment/assignment4Four.sol\":415:439  uint length = str.length */\n      swap1\n      pop\n        /* \"assignment/assignment4Four.sol\":531:551  uint[] memory values */\n      0x00\n        /* \"assignment/assignment4Four.sol\":565:571  length */\n      dup2\n        /* \"assignment/assignment4Four.sol\":554:572  new uint[](length) */\n      0xffffffffffffffff\n      dup2\n      gt\n      iszero\n      tag_11\n      jumpi\n      tag_12\n      tag_13\n      jump\t// in\n    tag_12:\n    tag_11:\n      mload(0x40)\n      swap1\n      dup1\n      dup3\n      mstore\n      dup1\n      0x20\n      mul\n      0x20\n      add\n      dup3\n      add\n      0x40\n      mstore\n      dup1\n      iszero\n      tag_14\n      jumpi\n      dup2\n      0x20\n      add\n      0x20\n      dup3\n      mul\n      dup1\n      calldatasize\n      dup4\n      calldatacopy\n      dup1\n      dup3\n      add\n      swap2\n      pop\n      pop\n      swap1\n      pop\n    tag_14:\n      pop\n        /* \"assignment/assignment4Four.sol\":531:572  uint[] memory values = new uint[](length) */\n      swap1\n      pop\n        /* \"assignment/assignment4Four.sol\":639:645  uint i */\n      0x00\n        /* \"assignment/assignment4Four.sol\":648:649  0 */\n      0x00\n        /* \"assignment/assignment4Four.sol\":639:649  uint i = 0 */\n      swap1\n      pop\n        /* \"assignment/assignment4Four.sol\":634:1138  for (uint i = 0; i < length; i++) {... */\n    tag_15:\n        /* \"assignment/assignment4Four.sol\":655:661  length */\n      dup3\n        /* \"assignment/assignment4Four.sol\":651:652  i */\n      dup2\n        /* \"assignment/assignment4Four.sol\":651:661  i < length */\n      lt\n        /* \"assignment/assignment4Four.sol\":634:1138  for (uint i = 0; i < length; i++) {... */\n      iszero\n      tag_16\n      jumpi\n        /* \"assignment/assignment4Four.sol\":683:692  bytes1 ch */\n      0x00\n        /* \"assignment/assignment4Four.sol\":695:698  str */\n      dup5\n        /* \"assignment/assignment4Four.sol\":699:700  i */\n      dup3\n        /* \"assignment/assignment4Four.sol\":695:701  str[i] */\n      dup2\n      mload\n      dup2\n      lt\n      tag_18\n      jumpi\n      tag_19\n      tag_20\n      jump\t// in\n    tag_19:\n    tag_18:\n      0x20\n      add\n      add\n      mload\n      0xf8\n      shr\n      0xf8\n      shl\n        /* \"assignment/assignment4Four.sol\":683:701  bytes1 ch = str[i] */\n      swap1\n      pop\n        /* \"assignment/assignment4Four.sol\":722:731  ch == \"I\" */\n      0x4900000000000000000000000000000000000000000000000000000000000000\n        /* \"assignment/assignment4Four.sol\":722:724  ch */\n      dup2\n        /* \"assignment/assignment4Four.sol\":722:731  ch == \"I\" */\n      not(0xffffffffffffffffffffffffffffffffffffffffffffffffffffffffffffff)\n      and\n      sub\n        /* \"assignment/assignment4Four.sol\":718:1104  if (ch == \"I\") values[i] = 1;... */\n      tag_21\n      jumpi\n        /* \"assignment/assignment4Four.sol\":745:746  1 */\n      0x01\n        /* \"assignment/assignment4Four.sol\":733:739  values */\n      dup4\n        /* \"assignment/assignment4Four.sol\":740:741  i */\n      dup4\n        /* \"assignment/assignment4Four.sol\":733:742  values[i] */\n      dup2\n      mload\n      dup2\n      lt\n      tag_22\n      jumpi\n      tag_23\n      tag_20\n      jump\t// in\n    tag_23:\n    tag_22:\n      0x20\n      mul\n      0x20\n      add\n      add\n        /* \"assignment/assignment4Four.sol\":733:746  values[i] = 1 */\n      dup2\n      dup2\n      mstore\n      pop\n      pop\n        /* \"assignment/assignment4Four.sol\":718:1104  if (ch == \"I\") values[i] = 1;... */\n      jump(tag_24)\n    tag_21:\n        /* \"assignment/assignment4Four.sol\":770:779  ch == \"V\" */\n      0x5600000000000000000000000000000000000000000000000000000000000000\n        /* \"assignment/assignment4Four.sol\":770:772  ch */\n      dup2\n        /* \"assignment/assignment4Four.sol\":770:779  ch == \"V\" */\n      not(0xffffffffffffffffffffffffffffffffffffffffffffffffffffffffffffff)\n      and\n      sub\n        /* \"assignment/assignment4Four.sol\":766:1104  if (ch == \"V\") values[i] = 5;... */\n      tag_25\n      jumpi\n        /* \"assignment/assignment4Four.sol\":793:794  5 */\n      0x05\n        /* \"assignment/assignment4Four.sol\":781:787  values */\n      dup4\n        /* \"assignment/assignment4Four.sol\":788:789  i */\n      dup4\n        /* \"assignment/assignment4Four.sol\":781:790  values[i] */\n      dup2\n      mload\n      dup2\n      lt\n      tag_26\n      jumpi\n      tag_27\n      tag_20\n      jump\t// in\n    tag_27:\n    tag_26:\n      0x20\n      mul\n      0x20\n      add\n      add\n        /* \"assignment/assignment4Four.sol\":781:794  values[i] = 5 */\n      dup2\n      dup2\n      mstore\n      pop\n      pop\n        /* \"assignment/assignment4Four.sol\":766:1104  if (ch == \"V\") values[i] = 5;... */\n      jump(tag_28)\n    tag_25:\n        /* \"assignment/assignment4Four.sol\":818:827  ch == \"X\" */\n      0x5800000000000000000000000000000000000000000000000000000000000000\n        /* \"assignment/assignment4Four.sol\":818:820  ch */\n      dup2\n        /* \"assignment/assignment4Four.sol\":818:827  ch == \"X\" */\n      not(0xffffffffffffffffffffffffffffffffffffffffffffffffffffffffffffff)\n      and\n      sub\n        /* \"assignment/assignment4Four.sol\":814:1104  if (ch == \"X\") values[i] = 10;... */\n      tag_29\n      jumpi\n        /* \"assignment/assignment4Four.sol\":841:843  10 */\n      0x0a\n        /* \"assignment/assignment4Four.sol\":829:835  values */\n      dup4\n        /* \"assignment/assignment4Four.sol\":836:837  i */\n      dup4\n        /* \"assignment/assignment4Four.sol\":829:838  values[i] */\n      dup2\n      mload\n      dup2\n      lt\n      tag_30\n      jumpi\n      tag_31\n      tag_20\n      jump\t// in\n    tag_31:\n    tag_30:\n      0x20\n      mul\n      0x20\n      add\n      add\n        /* \"assignment/assignment4Four.sol\":829:843  values[i] = 10 */\n      dup2\n      dup2\n      mstore\n      pop\n      pop\n        /* \"assignment/assignment4Four.sol\":814:1104  if (ch == \"X\") values[i] = 10;... */\n      jump(tag_32)\n    tag_29:\n        /* \"assignment/assignment4Four.sol\":867:876  ch == \"L\" */\n      0x4c00000000000000000000000000000000000000000000000000000000000000\n        /* \"assignment/assignment4Four.sol\":867:869  ch */\n      dup2\n        /* \"assignment/assignment4Four.sol\":867:876  ch == \"L\" */\n      not(0xffffffffffffffffffffffffffffffffffffffffffffffffffffffffffffff)\n      and\n      sub\n        /* \"assignment/assignment4Four.sol\":863:1104  if (ch == \"L\") values[i] = 50;... */\n      tag_33\n      jumpi\n        /* \"assignment/assignment4Four.sol\":890:892  50 */\n      0x32\n        /* \"assignment/assignment4Four.sol\":878:884  values */\n      dup4\n        /* \"assignment/assignment4Four.sol\":885:886  i */\n      dup4\n        /* \"assignment/assignment4Four.sol\":878:887  values[i] */\n      dup2\n      mload\n      dup2\n      lt\n      tag_34\n      jumpi\n      tag_35\n      tag_20\n      jump\t// in\n    tag_35:\n    tag_34:\n      0x20\n      mul\n      0x20\n      add\n      add\n        /* \"assignment/assignment4Four.sol\":878:892  values[i] = 50 */\n      dup2\n      dup2\n      mstore\n      pop\n      pop\n        /* \"assignment/assignment4Four.sol\":863:1104  if (ch == \"L\") values[i] = 50;... */\n      jump(tag_36)\n    tag_33:\n        /* \"assignment/assignment4Four.sol\":916:925  ch == \"C\" */\n      0x4300000000000000000000000000000000000000000000000000000000000000\n        /* \"assignment/assignment4Four.sol\":916:918  ch */\n      dup2\n        /* \"assignment/assignment4Four.sol\":916:925  ch == \"C\" */\n      not(0xffffffffffffffffffffffffffffffffffffffffffffffffffffffffffffff)\n      and\n      sub\n        /* \"assignment/assignment4Four.sol\":912:1104  if (ch == \"C\") values[i] = 100;... */\n      tag_37\n      jumpi\n        /* \"assignment/assignment4Four.sol\":939:942  100 */\n      0x64\n        /* \"assignment/assignment4Four.sol\":927:933  values */\n      dup4\n        /* \"assignment/assignment4Four.sol\":934:935  i */\n      dup4\n        /* \"assignment/assignment4Four.sol\":927:936  values[i] */\n      dup2\n      mload\n      dup2\n      lt\n      tag_38\n      jumpi\n      tag_39\n      tag_20\n      jump\t// in\n    tag_39:\n    tag_38:\n      0x20\n      mul\n      0x20\n      add\n      add\n        /* \"assignment/assignment4Four.sol\":927:942  values[i] = 100 */\n      dup2\n      dup2\n      mstore\n      pop\n      pop\n        /* \"assignment/assignment4Four.sol\":912:1104  if (ch == \"C\") values[i] = 100;... */\n      jump(tag_40)\n    tag_37:\n        /* \"assignment/assignment4Four.sol\":966:975  ch == \"D\" */\n      0x4400000000000000000000000000000000000000000000000000000000000000\n        /* \"assignment/assignment4Four.sol\":966:968  ch */\n      dup2\n        /* \"assignment/assignment4Four.sol\":966:975  ch == \"D\" */\n      not(0xffffffffffffffffffffffffffffffffffffffffffffffffffffffffffffff)\n      and\n      sub\n        /* \"assignment/assignment4Four.sol\":962:1104  if (ch == \"D\") values[i] = 500;... */\n      tag_41\n      jumpi\n        /* \"assignment/assignment4Four.sol\":989:992  500 */\n      0x01f4\n        /* \"assignment/assignment4Four.sol\":977:983  values */\n      dup4\n        /* \"assignment/assignment4Four.sol\":984:985  i */\n      dup4\n        /* \"assignment/assignment4Four.sol\":977:986  values[i] */\n      dup2\n      mload\n      dup2\n      lt\n      tag_42\n      jumpi\n      tag_43\n      tag_20\n      jump\t// in\n    tag_43:\n    tag_42:\n      0x20\n      mul\n      0x20\n      add\n      add\n        /* \"assignment/assignment4Four.sol\":977:992  values[i] = 500 */\n      dup2\n      dup2\n      mstore\n      pop\n      pop\n        /* \"assignment/assignment4Four.sol\":962:1104  if (ch == \"D\") values[i] = 500;... */\n      jump(tag_44)\n    tag_41:\n        /* \"assignment/assignment4Four.sol\":1016:1025  ch == \"M\" */\n      0x4d00000000000000000000000000000000000000000000000000000000000000\n        /* \"assignment/assignment4Four.sol\":1016:1018  ch */\n      dup2\n        /* \"assignment/assignment4Four.sol\":1016:1025  ch == \"M\" */\n      not(0xffffffffffffffffffffffffffffffffffffffffffffffffffffffffffffff)\n      and\n      sub\n        /* \"assignment/assignment4Four.sol\":1012:1104  if (ch == \"M\") values[i] = 1000;... */\n      tag_45\n      jumpi\n        /* \"assignment/assignment4Four.sol\":1039:1043  1000 */\n      0x03e8\n        /* \"assignment/assignment4Four.sol\":1027:1033  values */\n      dup4\n        /* \"assignment/assignment4Four.sol\":1034:1035  i */\n      dup4\n        /* \"assignment/assignment4Four.sol\":1027:1036  values[i] */\n      dup2\n      mload\n      dup2\n      lt\n      tag_46\n      jumpi\n      tag_47\n      tag_20\n      jump\t// in\n    tag_47:\n    tag_46:\n      0x20\n      mul\n      0x20\n      add\n      add\n        /* \"assignment/assignment4Four.sol\":1027:1043  values[i] = 1000 */\n      dup2\n      dup2\n      mstore\n      pop\n      pop\n        /* \"assignment/assignment4Four.sol\":1012:1104  if (ch == \"M\") values[i] = 1000;... */\n      jump(tag_48)\n    tag_45:\n        /* \"assignment/assignment4Four.sol\":1063:1104  revert(\"Invalid Roman numeral character\") */\n      mload(0x40)\n      0x08c379a000000000000000000000000000000000000000000000000000000000\n      dup2\n      mstore\n      0x04\n      add\n      tag_49\n      swap1\n      tag_50\n      jump\t// in\n    tag_49:\n      mload(0x40)\n      dup1\n      swap2\n      sub\n      swap1\n      revert\n        /* \"assignment/assignment4Four.sol\":1012:1104  if (ch == \"M\") values[i] = 1000;... */\n    tag_48:\n        /* \"assignment/assignment4Four.sol\":962:1104  if (ch == \"D\") values[i] = 500;... */\n    tag_44:\n        /* \"assignment/assignment4Four.sol\":912:1104  if (ch == \"C\") values[i] = 100;... */\n    tag_40:\n        /* \"assignment/assignment4Four.sol\":863:1104  if (ch == \"L\") values[i] = 50;... */\n    tag_36:\n        /* \"assignment/assignment4Four.sol\":814:1104  if (ch == \"X\") values[i] = 10;... */\n    tag_32:\n        /* \"assignment/assignment4Four.sol\":766:1104  if (ch == \"V\") values[i] = 5;... */\n    tag_28:\n        /* \"assignment/assignment4Four.sol\":718:1104  if (ch == \"I\") values[i] = 1;... */\n    tag_24:\n        /* \"assignment/assignment4Four.sol\":668:1138  {... */\n      pop\n        /* \"assignment/assignment4Four.sol\":663:666  i++ */\n      dup1\n      dup1\n      0x01\n      add\n      swap2\n      pop\n      pop\n        /* \"assignment/assignment4Four.sol\":634:1138  for (uint i = 0; i < length; i++) {... */\n      jump(tag_15)\n    tag_16:\n      pop\n        /* \"assignment/assignment4Four.sol\":1252:1258  uint i */\n      0x00\n        /* \"assignment/assignment4Four.sol\":1261:1262  0 */\n      0x00\n        /* \"assignment/assignment4Four.sol\":1252:1262  uint i = 0 */\n      swap1\n      pop\n        /* \"assignment/assignment4Four.sol\":1247:1470  for (uint i = 0; i < length; i++) {... */\n    tag_51:\n        /* \"assignment/assignment4Four.sol\":1268:1274  length */\n      dup3\n        /* \"assignment/assignment4Four.sol\":1264:1265  i */\n      dup2\n        /* \"assignment/assignment4Four.sol\":1264:1274  i < length */\n      lt\n        /* \"assignment/assignment4Four.sol\":1247:1470  for (uint i = 0; i < length; i++) {... */\n      iszero\n      tag_52\n      jumpi\n        /* \"assignment/assignment4Four.sol\":1308:1314  length */\n      dup3\n        /* \"assignment/assignment4Four.sol\":1304:1305  1 */\n      0x01\n        /* \"assignment/assignment4Four.sol\":1300:1301  i */\n      dup3\n        /* \"assignment/assignment4Four.sol\":1300:1305  i + 1 */\n      tag_54\n      swap2\n      swap1\n      tag_55\n      jump\t// in\n    tag_54:\n        /* \"assignment/assignment4Four.sol\":1300:1314  i + 1 < length */\n      lt\n        /* \"assignment/assignment4Four.sol\":1300:1343  i + 1 < length && values[i] < values[i + 1] */\n      dup1\n      iszero\n      tag_56\n      jumpi\n      pop\n        /* \"assignment/assignment4Four.sol\":1330:1336  values */\n      dup2\n        /* \"assignment/assignment4Four.sol\":1341:1342  1 */\n      0x01\n        /* \"assignment/assignment4Four.sol\":1337:1338  i */\n      dup3\n        /* \"assignment/assignment4Four.sol\":1337:1342  i + 1 */\n      tag_57\n      swap2\n      swap1\n      tag_55\n      jump\t// in\n    tag_57:\n        /* \"assignment/assignment4Four.sol\":1330:1343  values[i + 1] */\n      dup2\n      mload\n      dup2\n      lt\n      tag_58\n      jumpi\n      tag_59\n      tag_20\n      jump\t// in\n    tag_59:\n    tag_58:\n      0x20\n      mul\n      0x20\n      add\n      add\n      mload\n        /* \"assignment/assignment4Four.sol\":1318:1324  values */\n      dup3\n        /* \"assignment/assignment4Four.sol\":1325:1326  i */\n      dup3\n        /* \"assignment/assignment4Four.sol\":1318:1327  values[i] */\n      dup2\n      mload\n      dup2\n      lt\n      tag_60\n      jumpi\n      tag_61\n      tag_20\n      jump\t// in\n    tag_61:\n    tag_60:\n      0x20\n      mul\n      0x20\n      add\n      add\n      mload\n        /* \"assignment/assignment4Four.sol\":1318:1343  values[i] < values[i + 1] */\n      lt\n        /* \"assignment/assignment4Four.sol\":1300:1343  i + 1 < length && values[i] < values[i + 1] */\n    tag_56:\n        /* \"assignment/assignment4Four.sol\":1296:1459  if (i + 1 < length && values[i] < values[i + 1]) {... */\n      iszero\n      tag_62\n      jumpi\n        /* \"assignment/assignment4Four.sol\":1374:1380  values */\n      dup2\n        /* \"assignment/assignment4Four.sol\":1381:1382  i */\n      dup2\n        /* \"assignment/assignment4Four.sol\":1374:1383  values[i] */\n      dup2\n      mload\n      dup2\n      lt\n      tag_63\n      jumpi\n      tag_64\n      tag_20\n      jump\t// in\n    tag_64:\n    tag_63:\n      0x20\n      mul\n      0x20\n      add\n      add\n      mload\n        /* \"assignment/assignment4Four.sol\":1364:1383  result -= values[i] */\n      dup6\n      tag_65\n      swap2\n      swap1\n      tag_66\n      jump\t// in\n    tag_65:\n      swap5\n      pop\n        /* \"assignment/assignment4Four.sol\":1296:1459  if (i + 1 < length && values[i] < values[i + 1]) {... */\n      jump(tag_67)\n    tag_62:\n        /* \"assignment/assignment4Four.sol\":1434:1440  values */\n      dup2\n        /* \"assignment/assignment4Four.sol\":1441:1442  i */\n      dup2\n        /* \"assignment/assignment4Four.sol\":1434:1443  values[i] */\n      dup2\n      mload\n      dup2\n      lt\n      tag_68\n      jumpi\n      tag_69\n      tag_20\n      jump\t// in\n    tag_69:\n    tag_68:\n      0x20\n      mul\n      0x20\n      add\n      add\n      mload\n        /* \"assignment/assignment4Four.sol\":1424:1443  result += values[i] */\n      dup6\n      tag_70\n      swap2\n      swap1\n      tag_55\n      jump\t// in\n    tag_70:\n      swap5\n      pop\n        /* \"assignment/assignment4Four.sol\":1296:1459  if (i + 1 < length && values[i] < values[i + 1]) {... */\n    tag_67:\n        /* \"assignment/assignment4Four.sol\":1276:1279  i++ */\n      dup1\n      dup1\n      0x01\n      add\n      swap2\n      pop\n      pop\n        /* \"assignment/assignment4Four.sol\":1247:1470  for (uint i = 0; i < length; i++) {... */\n      jump(tag_51)\n    tag_52:\n      pop\n        /* \"assignment/assignment4Four.sol\":305:1477  {... */\n      pop\n      pop\n      pop\n        /* \"assignment/assignment4Four.sol\":234:1477  function romanToInt(string memory s) public pure returns (uint result) {... */\n      swap2\n      swap1\n      pop\n      jump\t// out\n        /* \"#utility.yul\":7:82   */\n    tag_71:\n        /* \"#utility.yul\":40:46   */\n      0x00\n        /* \"#utility.yul\":73:75   */\n      0x40\n        /* \"#utility.yul\":67:76   */\n      mload\n        /* \"#utility.yul\":57:76   */\n      swap1\n      pop\n        /* \"#utility.yul\":7:82   */\n      swap1\n      jump\t// out\n        /* \"#utility.yul\":88:205   */\n    tag_72:\n        /* \"#utility.yul\":197:198   */\n      0x00\n        /* \"#utility.yul\":194:195   */\n      0x00\n        /* \"#utility.yul\":187:199   */\n      revert\n        /* \"#utility.yul\":211:328   */\n    tag_73:\n        /* \"#utility.yul\":320:321   */\n      0x00\n        /* \"#utility.yul\":317:318   */\n      0x00\n        /* \"#utility.yul\":310:322   */\n      revert\n        /* \"#utility.yul\":334:451   */\n    tag_74:\n        /* \"#utility.yul\":443:444   */\n      0x00\n        /* \"#utility.yul\":440:441   */\n      0x00\n        /* \"#utility.yul\":433:445   */\n      revert\n        /* \"#utility.yul\":457:574   */\n    tag_75:\n        /* \"#utility.yul\":566:567   */\n      0x00\n        /* \"#utility.yul\":563:564   */\n      0x00\n        /* \"#utility.yul\":556:568   */\n      revert\n        /* \"#utility.yul\":580:682   */\n    tag_76:\n        /* \"#utility.yul\":621:627   */\n      0x00\n        /* \"#utility.yul\":672:674   */\n      0x1f\n        /* \"#utility.yul\":668:675   */\n      not\n        /* \"#utility.yul\":663:665   */\n      0x1f\n        /* \"#utility.yul\":656:661   */\n      dup4\n        /* \"#utility.yul\":652:666   */\n      add\n        /* \"#utility.yul\":648:676   */\n      and\n        /* \"#utility.yul\":638:676   */\n      swap1\n      pop\n        /* \"#utility.yul\":580:682   */\n      swap2\n      swap1\n      pop\n      jump\t// out\n        /* \"#utility.yul\":688:868   */\n    tag_13:\n        /* \"#utility.yul\":736:813   */\n      0x4e487b7100000000000000000000000000000000000000000000000000000000\n        /* \"#utility.yul\":733:734   */\n      0x00\n        /* \"#utility.yul\":726:814   */\n      mstore\n        /* \"#utility.yul\":833:837   */\n      0x41\n        /* \"#utility.yul\":830:831   */\n      0x04\n        /* \"#utility.yul\":823:838   */\n      mstore\n        /* \"#utility.yul\":857:861   */\n      0x24\n        /* \"#utility.yul\":854:855   */\n      0x00\n        /* \"#utility.yul\":847:862   */\n      revert\n        /* \"#utility.yul\":874:1155   */\n    tag_77:\n        /* \"#utility.yul\":957:984   */\n      tag_98\n        /* \"#utility.yul\":979:983   */\n      dup3\n        /* \"#utility.yul\":957:984   */\n      tag_76\n      jump\t// in\n    tag_98:\n        /* \"#utility.yul\":949:955   */\n      dup2\n        /* \"#utility.yul\":945:985   */\n      add\n        /* \"#utility.yul\":1087:1093   */\n      dup2\n        /* \"#utility.yul\":1075:1085   */\n      dup2\n        /* \"#utility.yul\":1072:1094   */\n      lt\n        /* \"#utility.yul\":1051:1069   */\n      0xffffffffffffffff\n        /* \"#utility.yul\":1039:1049   */\n      dup3\n        /* \"#utility.yul\":1036:1070   */\n      gt\n        /* \"#utility.yul\":1033:1095   */\n      or\n        /* \"#utility.yul\":1030:1118   */\n      iszero\n      tag_99\n      jumpi\n        /* \"#utility.yul\":1098:1116   */\n      tag_100\n      tag_13\n      jump\t// in\n    tag_100:\n        /* \"#utility.yul\":1030:1118   */\n    tag_99:\n        /* \"#utility.yul\":1138:1148   */\n      dup1\n        /* \"#utility.yul\":1134:1136   */\n      0x40\n        /* \"#utility.yul\":1127:1149   */\n      mstore\n        /* \"#utility.yul\":917:1155   */\n      pop\n        /* \"#utility.yul\":874:1155   */\n      pop\n      pop\n      jump\t// out\n        /* \"#utility.yul\":1161:1290   */\n    tag_78:\n        /* \"#utility.yul\":1195:1201   */\n      0x00\n        /* \"#utility.yul\":1222:1242   */\n      tag_102\n      tag_71\n      jump\t// in\n    tag_102:\n        /* \"#utility.yul\":1212:1242   */\n      swap1\n      pop\n        /* \"#utility.yul\":1251:1284   */\n      tag_103\n        /* \"#utility.yul\":1279:1283   */\n      dup3\n        /* \"#utility.yul\":1271:1277   */\n      dup3\n        /* \"#utility.yul\":1251:1284   */\n      tag_77\n      jump\t// in\n    tag_103:\n        /* \"#utility.yul\":1161:1290   */\n      swap2\n      swap1\n      pop\n      jump\t// out\n        /* \"#utility.yul\":1296:1604   */\n    tag_79:\n        /* \"#utility.yul\":1358:1362   */\n      0x00\n        /* \"#utility.yul\":1448:1466   */\n      0xffffffffffffffff\n        /* \"#utility.yul\":1440:1446   */\n      dup3\n        /* \"#utility.yul\":1437:1467   */\n      gt\n        /* \"#utility.yul\":1434:1490   */\n      iszero\n      tag_105\n      jumpi\n        /* \"#utility.yul\":1470:1488   */\n      tag_106\n      tag_13\n      jump\t// in\n    tag_106:\n        /* \"#utility.yul\":1434:1490   */\n    tag_105:\n        /* \"#utility.yul\":1508:1537   */\n      tag_107\n        /* \"#utility.yul\":1530:1536   */\n      dup3\n        /* \"#utility.yul\":1508:1537   */\n      tag_76\n      jump\t// in\n    tag_107:\n        /* \"#utility.yul\":1500:1537   */\n      swap1\n      pop\n        /* \"#utility.yul\":1592:1596   */\n      0x20\n        /* \"#utility.yul\":1586:1590   */\n      dup2\n        /* \"#utility.yul\":1582:1597   */\n      add\n        /* \"#utility.yul\":1574:1597   */\n      swap1\n      pop\n        /* \"#utility.yul\":1296:1604   */\n      swap2\n      swap1\n      pop\n      jump\t// out\n        /* \"#utility.yul\":1610:1758   */\n    tag_80:\n        /* \"#utility.yul\":1708:1714   */\n      dup3\n        /* \"#utility.yul\":1703:1706   */\n      dup2\n        /* \"#utility.yul\":1698:1701   */\n      dup4\n        /* \"#utility.yul\":1685:1715   */\n      calldatacopy\n        /* \"#utility.yul\":1749:1750   */\n      0x00\n        /* \"#utility.yul\":1740:1746   */\n      dup4\n        /* \"#utility.yul\":1735:1738   */\n      dup4\n        /* \"#utility.yul\":1731:1747   */\n      add\n        /* \"#utility.yul\":1724:1751   */\n      mstore\n        /* \"#utility.yul\":1610:1758   */\n      pop\n      pop\n      pop\n      jump\t// out\n        /* \"#utility.yul\":1764:2189   */\n    tag_81:\n        /* \"#utility.yul\":1842:1847   */\n      0x00\n        /* \"#utility.yul\":1867:1933   */\n      tag_110\n        /* \"#utility.yul\":1883:1932   */\n      tag_111\n        /* \"#utility.yul\":1925:1931   */\n      dup5\n        /* \"#utility.yul\":1883:1932   */\n      tag_79\n      jump\t// in\n    tag_111:\n        /* \"#utility.yul\":1867:1933   */\n      tag_78\n      jump\t// in\n    tag_110:\n        /* \"#utility.yul\":1858:1933   */\n      swap1\n      pop\n        /* \"#utility.yul\":1956:1962   */\n      dup3\n        /* \"#utility.yul\":1949:1954   */\n      dup2\n        /* \"#utility.yul\":1942:1963   */\n      mstore\n        /* \"#utility.yul\":1994:1998   */\n      0x20\n        /* \"#utility.yul\":1987:1992   */\n      dup2\n        /* \"#utility.yul\":1983:1999   */\n      add\n        /* \"#utility.yul\":2032:2035   */\n      dup5\n        /* \"#utility.yul\":2023:2029   */\n      dup5\n        /* \"#utility.yul\":2018:2021   */\n      dup5\n        /* \"#utility.yul\":2014:2030   */\n      add\n        /* \"#utility.yul\":2011:2036   */\n      gt\n        /* \"#utility.yul\":2008:2120   */\n      iszero\n      tag_112\n      jumpi\n        /* \"#utility.yul\":2039:2118   */\n      tag_113\n      tag_75\n      jump\t// in\n    tag_113:\n        /* \"#utility.yul\":2008:2120   */\n    tag_112:\n        /* \"#utility.yul\":2129:2183   */\n      tag_114\n        /* \"#utility.yul\":2176:2182   */\n      dup5\n        /* \"#utility.yul\":2171:2174   */\n      dup3\n        /* \"#utility.yul\":2166:2169   */\n      dup6\n        /* \"#utility.yul\":2129:2183   */\n      tag_80\n      jump\t// in\n    tag_114:\n        /* \"#utility.yul\":1848:2189   */\n      pop\n        /* \"#utility.yul\":1764:2189   */\n      swap4\n      swap3\n      pop\n      pop\n      pop\n      jump\t// out\n        /* \"#utility.yul\":2209:2549   */\n    tag_82:\n        /* \"#utility.yul\":2265:2270   */\n      0x00\n        /* \"#utility.yul\":2314:2317   */\n      dup3\n        /* \"#utility.yul\":2307:2311   */\n      0x1f\n        /* \"#utility.yul\":2299:2305   */\n      dup4\n        /* \"#utility.yul\":2295:2312   */\n      add\n        /* \"#utility.yul\":2291:2318   */\n      slt\n        /* \"#utility.yul\":2281:2403   */\n      tag_116\n      jumpi\n        /* \"#utility.yul\":2322:2401   */\n      tag_117\n      tag_74\n      jump\t// in\n    tag_117:\n        /* \"#utility.yul\":2281:2403   */\n    tag_116:\n        /* \"#utility.yul\":2439:2445   */\n      dup2\n        /* \"#utility.yul\":2426:2446   */\n      calldataload\n        /* \"#utility.yul\":2464:2543   */\n      tag_118\n        /* \"#utility.yul\":2539:2542   */\n      dup5\n        /* \"#utility.yul\":2531:2537   */\n      dup3\n        /* \"#utility.yul\":2524:2528   */\n      0x20\n        /* \"#utility.yul\":2516:2522   */\n      dup7\n        /* \"#utility.yul\":2512:2529   */\n      add\n        /* \"#utility.yul\":2464:2543   */\n      tag_81\n      jump\t// in\n    tag_118:\n        /* \"#utility.yul\":2455:2543   */\n      swap2\n      pop\n        /* \"#utility.yul\":2271:2549   */\n      pop\n        /* \"#utility.yul\":2209:2549   */\n      swap3\n      swap2\n      pop\n      pop\n      jump\t// out\n        /* \"#utility.yul\":2555:3064   */\n    tag_6:\n        /* \"#utility.yul\":2624:2630   */\n      0x00\n        /* \"#utility.yul\":2673:2675   */\n      0x20\n        /* \"#utility.yul\":2661:2670   */\n      dup3\n        /* \"#utility.yul\":2652:2659   */\n      dup5\n        /* \"#utility.yul\":2648:2671   */\n      sub\n        /* \"#utility.yul\":2644:2676   */\n      slt\n        /* \"#utility.yul\":2641:2760   */\n      iszero\n      tag_120\n      jumpi\n        /* \"#utility.yul\":2679:2758   */\n      tag_121\n      tag_72\n      jump\t// in\n    tag_121:\n        /* \"#utility.yul\":2641:2760   */\n    tag_120:\n        /* \"#utility.yul\":2827:2828   */\n      0x00\n        /* \"#utility.yul\":2816:2825   */\n      dup3\n        /* \"#utility.yul\":2812:2829   */\n      add\n        /* \"#utility.yul\":2799:2830   */\n      calldataload\n        /* \"#utility.yul\":2857:2875   */\n      0xffffffffffffffff\n        /* \"#utility.yul\":2849:2855   */\n      dup2\n        /* \"#utility.yul\":2846:2876   */\n      gt\n        /* \"#utility.yul\":2843:2960   */\n      iszero\n      tag_122\n      jumpi\n        /* \"#utility.yul\":2879:2958   */\n      tag_123\n      tag_73\n      jump\t// in\n    tag_123:\n        /* \"#utility.yul\":2843:2960   */\n    tag_122:\n        /* \"#utility.yul\":2984:3047   */\n      tag_124\n        /* \"#utility.yul\":3039:3046   */\n      dup5\n        /* \"#utility.yul\":3030:3036   */\n      dup3\n        /* \"#utility.yul\":3019:3028   */\n      dup6\n        /* \"#utility.yul\":3015:3037   */\n      add\n        /* \"#utility.yul\":2984:3047   */\n      tag_82\n      jump\t// in\n    tag_124:\n        /* \"#utility.yul\":2974:3047   */\n      swap2\n      pop\n        /* \"#utility.yul\":2770:3057   */\n      pop\n        /* \"#utility.yul\":2555:3064   */\n      swap3\n      swap2\n      pop\n      pop\n      jump\t// out\n        /* \"#utility.yul\":3070:3147   */\n    tag_83:\n        /* \"#utility.yul\":3107:3114   */\n      0x00\n        /* \"#utility.yul\":3136:3141   */\n      dup2\n        /* \"#utility.yul\":3125:3141   */\n      swap1\n      pop\n        /* \"#utility.yul\":3070:3147   */\n      swap2\n      swap1\n      pop\n      jump\t// out\n        /* \"#utility.yul\":3153:3271   */\n    tag_84:\n        /* \"#utility.yul\":3240:3264   */\n      tag_127\n        /* \"#utility.yul\":3258:3263   */\n      dup2\n        /* \"#utility.yul\":3240:3264   */\n      tag_83\n      jump\t// in\n    tag_127:\n        /* \"#utility.yul\":3235:3238   */\n      dup3\n        /* \"#utility.yul\":3228:3265   */\n      mstore\n        /* \"#utility.yul\":3153:3271   */\n      pop\n      pop\n      jump\t// out\n        /* \"#utility.yul\":3277:3499   */\n    tag_9:\n        /* \"#utility.yul\":3370:3374   */\n      0x00\n        /* \"#utility.yul\":3408:3410   */\n      0x20\n        /* \"#utility.yul\":3397:3406   */\n      dup3\n        /* \"#utility.yul\":3393:3411   */\n      add\n        /* \"#utility.yul\":3385:3411   */\n      swap1\n      pop\n        /* \"#utility.yul\":3421:3492   */\n      tag_129\n        /* \"#utility.yul\":3489:3490   */\n      0x00\n        /* \"#utility.yul\":3478:3487   */\n      dup4\n        /* \"#utility.yul\":3474:3491   */\n      add\n        /* \"#utility.yul\":3465:3471   */\n      dup5\n        /* \"#utility.yul\":3421:3492   */\n      tag_84\n      jump\t// in\n    tag_129:\n        /* \"#utility.yul\":3277:3499   */\n      swap3\n      swap2\n      pop\n      pop\n      jump\t// out\n        /* \"#utility.yul\":3505:3685   */\n    tag_20:\n        /* \"#utility.yul\":3553:3630   */\n      0x4e487b7100000000000000000000000000000000000000000000000000000000\n        /* \"#utility.yul\":3550:3551   */\n      0x00\n        /* \"#utility.yul\":3543:3631   */\n      mstore\n        /* \"#utility.yul\":3650:3654   */\n      0x32\n        /* \"#utility.yul\":3647:3648   */\n      0x04\n        /* \"#utility.yul\":3640:3655   */\n      mstore\n        /* \"#utility.yul\":3674:3678   */\n      0x24\n        /* \"#utility.yul\":3671:3672   */\n      0x00\n        /* \"#utility.yul\":3664:3679   */\n      revert\n        /* \"#utility.yul\":3691:3860   */\n    tag_85:\n        /* \"#utility.yul\":3775:3786   */\n      0x00\n        /* \"#utility.yul\":3809:3815   */\n      dup3\n        /* \"#utility.yul\":3804:3807   */\n      dup3\n        /* \"#utility.yul\":3797:3816   */\n      mstore\n        /* \"#utility.yul\":3849:3853   */\n      0x20\n        /* \"#utility.yul\":3844:3847   */\n      dup3\n        /* \"#utility.yul\":3840:3854   */\n      add\n        /* \"#utility.yul\":3825:3854   */\n      swap1\n      pop\n        /* \"#utility.yul\":3691:3860   */\n      swap3\n      swap2\n      pop\n      pop\n      jump\t// out\n        /* \"#utility.yul\":3866:4047   */\n    tag_86:\n        /* \"#utility.yul\":4006:4039   */\n      0x496e76616c696420526f6d616e206e756d6572616c2063686172616374657200\n        /* \"#utility.yul\":4002:4003   */\n      0x00\n        /* \"#utility.yul\":3994:4000   */\n      dup3\n        /* \"#utility.yul\":3990:4004   */\n      add\n        /* \"#utility.yul\":3983:4040   */\n      mstore\n        /* \"#utility.yul\":3866:4047   */\n      pop\n      jump\t// out\n        /* \"#utility.yul\":4053:4419   */\n    tag_87:\n        /* \"#utility.yul\":4195:4198   */\n      0x00\n        /* \"#utility.yul\":4216:4283   */\n      tag_134\n        /* \"#utility.yul\":4280:4282   */\n      0x1f\n        /* \"#utility.yul\":4275:4278   */\n      dup4\n        /* \"#utility.yul\":4216:4283   */\n      tag_85\n      jump\t// in\n    tag_134:\n        /* \"#utility.yul\":4209:4283   */\n      swap2\n      pop\n        /* \"#utility.yul\":4292:4385   */\n      tag_135\n        /* \"#utility.yul\":4381:4384   */\n      dup3\n        /* \"#utility.yul\":4292:4385   */\n      tag_86\n      jump\t// in\n    tag_135:\n        /* \"#utility.yul\":4410:4412   */\n      0x20\n        /* \"#utility.yul\":4405:4408   */\n      dup3\n        /* \"#utility.yul\":4401:4413   */\n      add\n        /* \"#utility.yul\":4394:4413   */\n      swap1\n      pop\n        /* \"#utility.yul\":4053:4419   */\n      swap2\n      swap1\n      pop\n      jump\t// out\n        /* \"#utility.yul\":4425:4844   */\n    tag_50:\n        /* \"#utility.yul\":4591:4595   */\n      0x00\n        /* \"#utility.yul\":4629:4631   */\n      0x20\n        /* \"#utility.yul\":4618:4627   */\n      dup3\n        /* \"#utility.yul\":4614:4632   */\n      add\n        /* \"#utility.yul\":4606:4632   */\n      swap1\n      pop\n        /* \"#utility.yul\":4678:4687   */\n      dup2\n        /* \"#utility.yul\":4672:4676   */\n      dup2\n        /* \"#utility.yul\":4668:4688   */\n      sub\n        /* \"#utility.yul\":4664:4665   */\n      0x00\n        /* \"#utility.yul\":4653:4662   */\n      dup4\n        /* \"#utility.yul\":4649:4666   */\n      add\n        /* \"#utility.yul\":4642:4689   */\n      mstore\n        /* \"#utility.yul\":4706:4837   */\n      tag_137\n        /* \"#utility.yul\":4832:4836   */\n      dup2\n        /* \"#utility.yul\":4706:4837   */\n      tag_87\n      jump\t// in\n    tag_137:\n        /* \"#utility.yul\":4698:4837   */\n      swap1\n      pop\n        /* \"#utility.yul\":4425:4844   */\n      swap2\n      swap1\n      pop\n      jump\t// out\n        /* \"#utility.yul\":4850:5030   */\n    tag_88:\n        /* \"#utility.yul\":4898:4975   */\n      0x4e487b7100000000000000000000000000000000000000000000000000000000\n        /* \"#utility.yul\":4895:4896   */\n      0x00\n        /* \"#utility.yul\":4888:4976   */\n      mstore\n        /* \"#utility.yul\":4995:4999   */\n      0x11\n        /* \"#utility.yul\":4992:4993   */\n      0x04\n        /* \"#utility.yul\":4985:5000   */\n      mstore\n        /* \"#utility.yul\":5019:5023   */\n      0x24\n        /* \"#utility.yul\":5016:5017   */\n      0x00\n        /* \"#utility.yul\":5009:5024   */\n      revert\n        /* \"#utility.yul\":5036:5227   */\n    tag_55:\n        /* \"#utility.yul\":5076:5079   */\n      0x00\n        /* \"#utility.yul\":5095:5115   */\n      tag_140\n        /* \"#utility.yul\":5113:5114   */\n      dup3\n        /* \"#utility.yul\":5095:5115   */\n      tag_83\n      jump\t// in\n    tag_140:\n        /* \"#utility.yul\":5090:5115   */\n      swap2\n      pop\n        /* \"#utility.yul\":5129:5149   */\n      tag_141\n        /* \"#utility.yul\":5147:5148   */\n      dup4\n        /* \"#utility.yul\":5129:5149   */\n      tag_83\n      jump\t// in\n    tag_141:\n        /* \"#utility.yul\":5124:5149   */\n      swap3\n      pop\n        /* \"#utility.yul\":5172:5173   */\n      dup3\n        /* \"#utility.yul\":5169:5170   */\n      dup3\n        /* \"#utility.yul\":5165:5174   */\n      add\n        /* \"#utility.yul\":5158:5174   */\n      swap1\n      pop\n        /* \"#utility.yul\":5193:5196   */\n      dup1\n        /* \"#utility.yul\":5190:5191   */\n      dup3\n        /* \"#utility.yul\":5187:5197   */\n      gt\n        /* \"#utility.yul\":5184:5220   */\n      iszero\n      tag_142\n      jumpi\n        /* \"#utility.yul\":5200:5218   */\n      tag_143\n      tag_88\n      jump\t// in\n    tag_143:\n        /* \"#utility.yul\":5184:5220   */\n    tag_142:\n        /* \"#utility.yul\":5036:5227   */\n      swap3\n      swap2\n      pop\n      pop\n      jump\t// out\n        /* \"#utility.yul\":5233:5427   */\n    tag_66:\n        /* \"#utility.yul\":5273:5277   */\n      0x00\n        /* \"#utility.yul\":5293:5313   */\n      tag_145\n        /* \"#utility.yul\":5311:5312   */\n      dup3\n        /* \"#utility.yul\":5293:5313   */\n      tag_83\n      jump\t// in\n    tag_145:\n        /* \"#utility.yul\":5288:5313   */\n      swap2\n      pop\n        /* \"#utility.yul\":5327:5347   */\n      tag_146\n        /* \"#utility.yul\":5345:5346   */\n      dup4\n        /* \"#utility.yul\":5327:5347   */\n      tag_83\n      jump\t// in\n    tag_146:\n        /* \"#utility.yul\":5322:5347   */\n      swap3\n      pop\n        /* \"#utility.yul\":5371:5372   */\n      dup3\n        /* \"#utility.yul\":5368:5369   */\n      dup3\n        /* \"#utility.yul\":5364:5373   */\n      sub\n        /* \"#utility.yul\":5356:5373   */\n      swap1\n      pop\n        /* \"#utility.yul\":5395:5396   */\n      dup2\n        /* \"#utility.yul\":5389:5393   */\n      dup2\n        /* \"#utility.yul\":5386:5397   */\n      gt\n        /* \"#utility.yul\":5383:5420   */\n      iszero\n      tag_147\n      jumpi\n        /* \"#utility.yul\":5400:5418   */\n      tag_148\n      tag_88\n      jump\t// in\n    tag_148:\n        /* \"#utility.yul\":5383:5420   */\n    tag_147:\n        /* \"#utility.yul\":5233:5427   */\n      swap3\n      swap2\n      pop\n      pop\n      jump\t// out\n\n    auxdata: 0xa264697066735822122029fd0964fc98716532e00f6f83a8c1ab22925cdf8b79388bc319dc6858fb7c2164736f6c634300081e0033\n}\n",
				"bytecode": {
					"linkReferences": {},
					"object": "6080604052348015600e575f5ffd5b506108478061001c5f395ff3fe608060405234801561000f575f5ffd5b5060043610610029575f3560e01c8063cb159dfe1461002d575b5f5ffd5b61004760048036038101906100429190610661565b61005d565b60405161005491906106c0565b60405180910390f35b5f5f8290505f815190505f8167ffffffffffffffff8111156100825761008161053d565b5b6040519080825280602002602001820160405280156100b05781602001602082028036833780820191505090505b5090505f5f90505b8281101561043b575f8482815181106100d4576100d36106d9565b5b602001015160f81c60f81b90507f4900000000000000000000000000000000000000000000000000000000000000817effffffffffffffffffffffffffffffffffffffffffffffffffffffffffffff19160361015057600183838151811061013f5761013e6106d9565b5b60200260200101818152505061042d565b7f5600000000000000000000000000000000000000000000000000000000000000817effffffffffffffffffffffffffffffffffffffffffffffffffffffffffffff1916036101bf5760058383815181106101ae576101ad6106d9565b5b60200260200101818152505061042c565b7f5800000000000000000000000000000000000000000000000000000000000000817effffffffffffffffffffffffffffffffffffffffffffffffffffffffffffff19160361022e57600a83838151811061021d5761021c6106d9565b5b60200260200101818152505061042b565b7f4c00000000000000000000000000000000000000000000000000000000000000817effffffffffffffffffffffffffffffffffffffffffffffffffffffffffffff19160361029d57603283838151811061028c5761028b6106d9565b5b60200260200101818152505061042a565b7f4300000000000000000000000000000000000000000000000000000000000000817effffffffffffffffffffffffffffffffffffffffffffffffffffffffffffff19160361030c5760648383815181106102fb576102fa6106d9565b5b602002602001018181525050610429565b7f4400000000000000000000000000000000000000000000000000000000000000817effffffffffffffffffffffffffffffffffffffffffffffffffffffffffffff19160361037c576101f483838151811061036b5761036a6106d9565b5b602002602001018181525050610428565b7f4d00000000000000000000000000000000000000000000000000000000000000817effffffffffffffffffffffffffffffffffffffffffffffffffffffffffffff1916036103ec576103e88383815181106103db576103da6106d9565b5b602002602001018181525050610427565b6040517f08c379a000000000000000000000000000000000000000000000000000000000815260040161041e90610760565b60405180910390fd5b5b5b5b5b5b5b5080806001019150506100b8565b505f5f90505b8281101561050b578260018261045791906107ab565b1080156104a357508160018261046d91906107ab565b8151811061047e5761047d6106d9565b5b6020026020010151828281518110610499576104986106d9565b5b6020026020010151105b156104d5578181815181106104bb576104ba6106d9565b5b6020026020010151856104ce91906107de565b94506104fe565b8181815181106104e8576104e76106d9565b5b6020026020010151856104fb91906107ab565b94505b8080600101915050610441565b50505050919050565b5f604051905090565b5f5ffd5b5f5ffd5b5f5ffd5b5f5ffd5b5f601f19601f8301169050919050565b7f4e487b71000000000000000000000000000000000000000000000000000000005f52604160045260245ffd5b6105738261052d565b810181811067ffffffffffffffff821117156105925761059161053d565b5b80604052505050565b5f6105a4610514565b90506105b0828261056a565b919050565b5f67ffffffffffffffff8211156105cf576105ce61053d565b5b6105d88261052d565b9050602081019050919050565b828183375f83830152505050565b5f610605610600846105b5565b61059b565b90508281526020810184848401111561062157610620610529565b5b61062c8482856105e5565b509392505050565b5f82601f83011261064857610647610525565b5b81356106588482602086016105f3565b91505092915050565b5f602082840312156106765761067561051d565b5b5f82013567ffffffffffffffff81111561069357610692610521565b5b61069f84828501610634565b91505092915050565b5f819050919050565b6106ba816106a8565b82525050565b5f6020820190506106d35f8301846106b1565b92915050565b7f4e487b71000000000000000000000000000000000000000000000000000000005f52603260045260245ffd5b5f82825260208201905092915050565b7f496e76616c696420526f6d616e206e756d6572616c20636861726163746572005f82015250565b5f61074a601f83610706565b915061075582610716565b602082019050919050565b5f6020820190508181035f8301526107778161073e565b9050919050565b7f4e487b71000000000000000000000000000000000000000000000000000000005f52601160045260245ffd5b5f6107b5826106a8565b91506107c0836106a8565b92508282019050808211156107d8576107d761077e565b5b92915050565b5f6107e8826106a8565b91506107f3836106a8565b925082820390508181111561080b5761080a61077e565b5b9291505056fea264697066735822122029fd0964fc98716532e00f6f83a8c1ab22925cdf8b79388bc319dc6858fb7c2164736f6c634300081e0033",
					"opcodes": "PUSH1 0x80 PUSH1 0x40 MSTORE CALLVALUE DUP1 ISZERO PUSH1 0xE JUMPI PUSH0 PUSH0 REVERT JUMPDEST POP PUSH2 0x847 DUP1 PUSH2 0x1C PUSH0 CODECOPY PUSH0 RETURN INVALID PUSH1 0x80 PUSH1 0x40 MSTORE CALLVALUE DUP1 ISZERO PUSH2 0xF JUMPI PUSH0 PUSH0 REVERT JUMPDEST POP PUSH1 0x4 CALLDATASIZE LT PUSH2 0x29 JUMPI PUSH0 CALLDATALOAD PUSH1 0xE0 SHR DUP1 PUSH4 0xCB159DFE EQ PUSH2 0x2D JUMPI JUMPDEST PUSH0 PUSH0 REVERT JUMPDEST PUSH2 0x47 PUSH1 0x4 DUP1 CALLDATASIZE SUB DUP2 ADD SWAP1 PUSH2 0x42 SWAP2 SWAP1 PUSH2 0x661 JUMP JUMPDEST PUSH2 0x5D JUMP JUMPDEST PUSH1 0x40 MLOAD PUSH2 0x54 SWAP2 SWAP1 PUSH2 0x6C0 JUMP JUMPDEST PUSH1 0x40 MLOAD DUP1 SWAP2 SUB SWAP1 RETURN JUMPDEST PUSH0 PUSH0 DUP3 SWAP1 POP PUSH0 DUP2 MLOAD SWAP1 POP PUSH0 DUP2 PUSH8 0xFFFFFFFFFFFFFFFF DUP2 GT ISZERO PUSH2 0x82 JUMPI PUSH2 0x81 PUSH2 0x53D JUMP JUMPDEST JUMPDEST PUSH1 0x40 MLOAD SWAP1 DUP1 DUP3 MSTORE DUP1 PUSH1 0x20 MUL PUSH1 0x20 ADD DUP3 ADD PUSH1 0x40 MSTORE DUP1 ISZERO PUSH2 0xB0 JUMPI DUP2 PUSH1 0x20 ADD PUSH1 0x20 DUP3 MUL DUP1 CALLDATASIZE DUP4 CALLDATACOPY DUP1 DUP3 ADD SWAP2 POP POP SWAP1 POP JUMPDEST POP SWAP1 POP PUSH0 PUSH0 SWAP1 POP JUMPDEST DUP3 DUP2 LT ISZERO PUSH2 0x43B JUMPI PUSH0 DUP5 DUP3 DUP2 MLOAD DUP2 LT PUSH2 0xD4 JUMPI PUSH2 0xD3 PUSH2 0x6D9 JUMP JUMPDEST JUMPDEST PUSH1 0x20 ADD ADD MLOAD PUSH1 0xF8 SHR PUSH1 0xF8 SHL SWAP1 POP PUSH32 0x4900000000000000000000000000000000000000000000000000000000000000 DUP2 PUSH31 0xFFFFFFFFFFFFFFFFFFFFFFFFFFFFFFFFFFFFFFFFFFFFFFFFFFFFFFFFFFFFFF NOT AND SUB PUSH2 0x150 JUMPI PUSH1 0x1 DUP4 DUP4 DUP2 MLOAD DUP2 LT PUSH2 0x13F JUMPI PUSH2 0x13E PUSH2 0x6D9 JUMP JUMPDEST JUMPDEST PUSH1 0x20 MUL PUSH1 0x20 ADD ADD DUP2 DUP2 MSTORE POP POP PUSH2 0x42D JUMP JUMPDEST PUSH32 0x5600000000000000000000000000000000000000000000000000000000000000 DUP2 PUSH31 0xFFFFFFFFFFFFFFFFFFFFFFFFFFFFFFFFFFFFFFFFFFFFFFFFFFFFFFFFFFFFFF NOT AND SUB PUSH2 0x1BF JUMPI PUSH1 0x5 DUP4 DUP4 DUP2 MLOAD DUP2 LT PUSH2 0x1AE JUMPI PUSH2 0x1AD PUSH2 0x6D9 JUMP JUMPDEST JUMPDEST PUSH1 0x20 MUL PUSH1 0x20 ADD ADD DUP2 DUP2 MSTORE POP POP PUSH2 0x42C JUMP JUMPDEST PUSH32 0x5800000000000000000000000000000000000000000000000000000000000000 DUP2 PUSH31 0xFFFFFFFFFFFFFFFFFFFFFFFFFFFFFFFFFFFFFFFFFFFFFFFFFFFFFFFFFFFFFF NOT AND SUB PUSH2 0x22E JUMPI PUSH1 0xA DUP4 DUP4 DUP2 MLOAD DUP2 LT PUSH2 0x21D JUMPI PUSH2 0x21C PUSH2 0x6D9 JUMP JUMPDEST JUMPDEST PUSH1 0x20 MUL PUSH1 0x20 ADD ADD DUP2 DUP2 MSTORE POP POP PUSH2 0x42B JUMP JUMPDEST PUSH32 0x4C00000000000000000000000000000000000000000000000000000000000000 DUP2 PUSH31 0xFFFFFFFFFFFFFFFFFFFFFFFFFFFFFFFFFFFFFFFFFFFFFFFFFFFFFFFFFFFFFF NOT AND SUB PUSH2 0x29D JUMPI PUSH1 0x32 DUP4 DUP4 DUP2 MLOAD DUP2 LT PUSH2 0x28C JUMPI PUSH2 0x28B PUSH2 0x6D9 JUMP JUMPDEST JUMPDEST PUSH1 0x20 MUL PUSH1 0x20 ADD ADD DUP2 DUP2 MSTORE POP POP PUSH2 0x42A JUMP JUMPDEST PUSH32 0x4300000000000000000000000000000000000000000000000000000000000000 DUP2 PUSH31 0xFFFFFFFFFFFFFFFFFFFFFFFFFFFFFFFFFFFFFFFFFFFFFFFFFFFFFFFFFFFFFF NOT AND SUB PUSH2 0x30C JUMPI PUSH1 0x64 DUP4 DUP4 DUP2 MLOAD DUP2 LT PUSH2 0x2FB JUMPI PUSH2 0x2FA PUSH2 0x6D9 JUMP JUMPDEST JUMPDEST PUSH1 0x20 MUL PUSH1 0x20 ADD ADD DUP2 DUP2 MSTORE POP POP PUSH2 0x429 JUMP JUMPDEST PUSH32 0x4400000000000000000000000000000000000000000000000000000000000000 DUP2 PUSH31 0xFFFFFFFFFFFFFFFFFFFFFFFFFFFFFFFFFFFFFFFFFFFFFFFFFFFFFFFFFFFFFF NOT AND SUB PUSH2 0x37C JUMPI PUSH2 0x1F4 DUP4 DUP4 DUP2 MLOAD DUP2 LT PUSH2 0x36B JUMPI PUSH2 0x36A PUSH2 0x6D9 JUMP JUMPDEST JUMPDEST PUSH1 0x20 MUL PUSH1 0x20 ADD ADD DUP2 DUP2 MSTORE POP POP PUSH2 0x428 JUMP JUMPDEST PUSH32 0x4D00000000000000000000000000000000000000000000000000000000000000 DUP2 PUSH31 0xFFFFFFFFFFFFFFFFFFFFFFFFFFFFFFFFFFFFFFFFFFFFFFFFFFFFFFFFFFFFFF NOT AND SUB PUSH2 0x3EC JUMPI PUSH2 0x3E8 DUP4 DUP4 DUP2 MLOAD DUP2 LT PUSH2 0x3DB JUMPI PUSH2 0x3DA PUSH2 0x6D9 JUMP JUMPDEST JUMPDEST PUSH1 0x20 MUL PUSH1 0x20 ADD ADD DUP2 DUP2 MSTORE POP POP PUSH2 0x427 JUMP JUMPDEST PUSH1 0x40 MLOAD PUSH32 0x8C379A000000000000000000000000000000000000000000000000000000000 DUP2 MSTORE PUSH1 0x4 ADD PUSH2 0x41E SWAP1 PUSH2 0x760 JUMP JUMPDEST PUSH1 0x40 MLOAD DUP1 SWAP2 SUB SWAP1 REVERT JUMPDEST JUMPDEST JUMPDEST JUMPDEST JUMPDEST JUMPDEST JUMPDEST POP DUP1 DUP1 PUSH1 0x1 ADD SWAP2 POP POP PUSH2 0xB8 JUMP JUMPDEST POP PUSH0 PUSH0 SWAP1 POP JUMPDEST DUP3 DUP2 LT ISZERO PUSH2 0x50B JUMPI DUP3 PUSH1 0x1 DUP3 PUSH2 0x457 SWAP2 SWAP1 PUSH2 0x7AB JUMP JUMPDEST LT DUP1 ISZERO PUSH2 0x4A3 JUMPI POP DUP2 PUSH1 0x1 DUP3 PUSH2 0x46D SWAP2 SWAP1 PUSH2 0x7AB JUMP JUMPDEST DUP2 MLOAD DUP2 LT PUSH2 0x47E JUMPI PUSH2 0x47D PUSH2 0x6D9 JUMP JUMPDEST JUMPDEST PUSH1 0x20 MUL PUSH1 0x20 ADD ADD MLOAD DUP3 DUP3 DUP2 MLOAD DUP2 LT PUSH2 0x499 JUMPI PUSH2 0x498 PUSH2 0x6D9 JUMP JUMPDEST JUMPDEST PUSH1 0x20 MUL PUSH1 0x20 ADD ADD MLOAD LT JUMPDEST ISZERO PUSH2 0x4D5 JUMPI DUP2 DUP2 DUP2 MLOAD DUP2 LT PUSH2 0x4BB JUMPI PUSH2 0x4BA PUSH2 0x6D9 JUMP JUMPDEST JUMPDEST PUSH1 0x20 MUL PUSH1 0x20 ADD ADD MLOAD DUP6 PUSH2 0x4CE SWAP2 SWAP1 PUSH2 0x7DE JUMP JUMPDEST SWAP5 POP PUSH2 0x4FE JUMP JUMPDEST DUP2 DUP2 DUP2 MLOAD DUP2 LT PUSH2 0x4E8 JUMPI PUSH2 0x4E7 PUSH2 0x6D9 JUMP JUMPDEST JUMPDEST PUSH1 0x20 MUL PUSH1 0x20 ADD ADD MLOAD DUP6 PUSH2 0x4FB SWAP2 SWAP1 PUSH2 0x7AB JUMP JUMPDEST SWAP5 POP JUMPDEST DUP1 DUP1 PUSH1 0x1 ADD SWAP2 POP POP PUSH2 0x441 JUMP JUMPDEST POP POP POP POP SWAP2 SWAP1 POP JUMP JUMPDEST PUSH0 PUSH1 0x40 MLOAD SWAP1 POP SWAP1 JUMP JUMPDEST PUSH0 PUSH0 REVERT JUMPDEST PUSH0 PUSH0 REVERT JUMPDEST PUSH0 PUSH0 REVERT JUMPDEST PUSH0 PUSH0 REVERT JUMPDEST PUSH0 PUSH1 0x1F NOT PUSH1 0x1F DUP4 ADD AND SWAP1 POP SWAP2 SWAP1 POP JUMP JUMPDEST PUSH32 0x4E487B7100000000000000000000000000000000000000000000000000000000 PUSH0 MSTORE PUSH1 0x41 PUSH1 0x4 MSTORE PUSH1 0x24 PUSH0 REVERT JUMPDEST PUSH2 0x573 DUP3 PUSH2 0x52D JUMP JUMPDEST DUP2 ADD DUP2 DUP2 LT PUSH8 0xFFFFFFFFFFFFFFFF DUP3 GT OR ISZERO PUSH2 0x592 JUMPI PUSH2 0x591 PUSH2 0x53D JUMP JUMPDEST JUMPDEST DUP1 PUSH1 0x40 MSTORE POP POP POP JUMP JUMPDEST PUSH0 PUSH2 0x5A4 PUSH2 0x514 JUMP JUMPDEST SWAP1 POP PUSH2 0x5B0 DUP3 DUP3 PUSH2 0x56A JUMP JUMPDEST SWAP2 SWAP1 POP JUMP JUMPDEST PUSH0 PUSH8 0xFFFFFFFFFFFFFFFF DUP3 GT ISZERO PUSH2 0x5CF JUMPI PUSH2 0x5CE PUSH2 0x53D JUMP JUMPDEST JUMPDEST PUSH2 0x5D8 DUP3 PUSH2 0x52D JUMP JUMPDEST SWAP1 POP PUSH1 0x20 DUP2 ADD SWAP1 POP SWAP2 SWAP1 POP JUMP JUMPDEST DUP3 DUP2 DUP4 CALLDATACOPY PUSH0 DUP4 DUP4 ADD MSTORE POP POP POP JUMP JUMPDEST PUSH0 PUSH2 0x605 PUSH2 0x600 DUP5 PUSH2 0x5B5 JUMP JUMPDEST PUSH2 0x59B JUMP JUMPDEST SWAP1 POP DUP3 DUP2 MSTORE PUSH1 0x20 DUP2 ADD DUP5 DUP5 DUP5 ADD GT ISZERO PUSH2 0x621 JUMPI PUSH2 0x620 PUSH2 0x529 JUMP JUMPDEST JUMPDEST PUSH2 0x62C DUP5 DUP3 DUP6 PUSH2 0x5E5 JUMP JUMPDEST POP SWAP4 SWAP3 POP POP POP JUMP JUMPDEST PUSH0 DUP3 PUSH1 0x1F DUP4 ADD SLT PUSH2 0x648 JUMPI PUSH2 0x647 PUSH2 0x525 JUMP JUMPDEST JUMPDEST DUP2 CALLDATALOAD PUSH2 0x658 DUP5 DUP3 PUSH1 0x20 DUP7 ADD PUSH2 0x5F3 JUMP JUMPDEST SWAP2 POP POP SWAP3 SWAP2 POP POP JUMP JUMPDEST PUSH0 PUSH1 0x20 DUP3 DUP5 SUB SLT ISZERO PUSH2 0x676 JUMPI PUSH2 0x675 PUSH2 0x51D JUMP JUMPDEST JUMPDEST PUSH0 DUP3 ADD CALLDATALOAD PUSH8 0xFFFFFFFFFFFFFFFF DUP2 GT ISZERO PUSH2 0x693 JUMPI PUSH2 0x692 PUSH2 0x521 JUMP JUMPDEST JUMPDEST PUSH2 0x69F DUP5 DUP3 DUP6 ADD PUSH2 0x634 JUMP JUMPDEST SWAP2 POP POP SWAP3 SWAP2 POP POP JUMP JUMPDEST PUSH0 DUP2 SWAP1 POP SWAP2 SWAP1 POP JUMP JUMPDEST PUSH2 0x6BA DUP2 PUSH2 0x6A8 JUMP JUMPDEST DUP3 MSTORE POP POP JUMP JUMPDEST PUSH0 PUSH1 0x20 DUP3 ADD SWAP1 POP PUSH2 0x6D3 PUSH0 DUP4 ADD DUP5 PUSH2 0x6B1 JUMP JUMPDEST SWAP3 SWAP2 POP POP JUMP JUMPDEST PUSH32 0x4E487B7100000000000000000000000000000000000000000000000000000000 PUSH0 MSTORE PUSH1 0x32 PUSH1 0x4 MSTORE PUSH1 0x24 PUSH0 REVERT JUMPDEST PUSH0 DUP3 DUP3 MSTORE PUSH1 0x20 DUP3 ADD SWAP1 POP SWAP3 SWAP2 POP POP JUMP JUMPDEST PUSH32 0x496E76616C696420526F6D616E206E756D6572616C2063686172616374657200 PUSH0 DUP3 ADD MSTORE POP JUMP JUMPDEST PUSH0 PUSH2 0x74A PUSH1 0x1F DUP4 PUSH2 0x706 JUMP JUMPDEST SWAP2 POP PUSH2 0x755 DUP3 PUSH2 0x716 JUMP JUMPDEST PUSH1 0x20 DUP3 ADD SWAP1 POP SWAP2 SWAP1 POP JUMP JUMPDEST PUSH0 PUSH1 0x20 DUP3 ADD SWAP1 POP DUP2 DUP2 SUB PUSH0 DUP4 ADD MSTORE PUSH2 0x777 DUP2 PUSH2 0x73E JUMP JUMPDEST SWAP1 POP SWAP2 SWAP1 POP JUMP JUMPDEST PUSH32 0x4E487B7100000000000000000000000000000000000000000000000000000000 PUSH0 MSTORE PUSH1 0x11 PUSH1 0x4 MSTORE PUSH1 0x24 PUSH0 REVERT JUMPDEST PUSH0 PUSH2 0x7B5 DUP3 PUSH2 0x6A8 JUMP JUMPDEST SWAP2 POP PUSH2 0x7C0 DUP4 PUSH2 0x6A8 JUMP JUMPDEST SWAP3 POP DUP3 DUP3 ADD SWAP1 POP DUP1 DUP3 GT ISZERO PUSH2 0x7D8 JUMPI PUSH2 0x7D7 PUSH2 0x77E JUMP JUMPDEST JUMPDEST SWAP3 SWAP2 POP POP JUMP JUMPDEST PUSH0 PUSH2 0x7E8 DUP3 PUSH2 0x6A8 JUMP JUMPDEST SWAP2 POP PUSH2 0x7F3 DUP4 PUSH2 0x6A8 JUMP JUMPDEST SWAP3 POP DUP3 DUP3 SUB SWAP1 POP DUP2 DUP2 GT ISZERO PUSH2 0x80B JUMPI PUSH2 0x80A PUSH2 0x77E JUMP JUMPDEST JUMPDEST SWAP3 SWAP2 POP POP JUMP INVALID LOG2 PUSH5 0x6970667358 0x22 SLT KECCAK256 0x29 REVERT MULMOD PUSH5 0xFC98716532 RJUMP 0xF6F DUP4 0xA8 0xC1 0xAB 0x22 SWAP3 TLOAD 0xDF DUP12 PUSH26 0x388BC319DC6858FB7C2164736F6C634300081E00330000000000 "
				},
				"gasEstimates": {
					"creation": {
						"codeDepositCost": "423800",
						"executionCost": "459",
						"totalCost": "424259"
					},
					"external": {
						"romanToInt(string)": "infinite"
					}
				},
				"methodIdentifiers": {
					"romanToInt(string)": "cb159dfe"
				}
			},
			"storageLayout": {
				"storage": [],
				"types": null
			},
			"userdoc": {
				"kind": "user",
				"methods": {
					"romanToInt(string)": {
						"notice": "将罗马数字转换为整数"
					}
				},
				"version": 1
			}
		}
	}
}