{
	"assignment/assignmentOne.sol": {
		"Voting": {
			"abi": [
				{
					"anonymous": false,
					"inputs": [
						{
							"indexed": true,
							"internalType": "address",
							"name": "voter",
							"type": "address"
						},
						{
							"indexed": true,
							"internalType": "address",
							"name": "candidate",
							"type": "address"
						}
					],
					"name": "Voted",
					"type": "event"
				},
				{
					"inputs": [
						{
							"internalType": "address",
							"name": "candidateAddress",
							"type": "address"
						},
						{
							"internalType": "string",
							"name": "name",
							"type": "string"
						}
					],
					"name": "addCandidate",
					"outputs": [],
					"stateMutability": "nonpayable",
					"type": "function"
				},
				{
					"inputs": [
						{
							"internalType": "uint256",
							"name": "",
							"type": "uint256"
						}
					],
					"name": "candidateAddresses",
					"outputs": [
						{
							"internalType": "address",
							"name": "",
							"type": "address"
						}
					],
					"stateMutability": "view",
					"type": "function"
				},
				{
					"inputs": [
						{
							"internalType": "address",
							"name": "",
							"type": "address"
						}
					],
					"name": "candidates",
					"outputs": [
						{
							"internalType": "string",
							"name": "name",
							"type": "string"
						},
						{
							"internalType": "uint256",
							"name": "voteCount",
							"type": "uint256"
						}
					],
					"stateMutability": "view",
					"type": "function"
				},
				{
					"inputs": [
						{
							"internalType": "address",
							"name": "candidateAddress",
							"type": "address"
						}
					],
					"name": "getVotes",
					"outputs": [
						{
							"internalType": "uint256",
							"name": "",
							"type": "uint256"
						}
					],
					"stateMutability": "view",
					"type": "function"
				},
				{
					"inputs": [],
					"name": "resetVotes",
					"outputs": [],
					"stateMutability": "nonpayable",
					"type": "function"
				},
				{
					"inputs": [
						{
							"internalType": "address",
							"name": "candidateAddress",
							"type": "address"
						}
					],
					"name": "vote",
					"outputs": [],
					"stateMutability": "nonpayable",
					"type": "function"
				}
			],
			"devdoc": {
				"kind": "dev",
				"methods": {},
				"version": 1
			},
			"evm": {
				"assembly": "    /* \"assignment/assignmentOne.sol\":351:2725  contract Voting {... */\n  mstore(0x40, 0x80)\n  callvalue\n  dup1\n  iszero\n  tag_1\n  jumpi\n  revert(0x00, 0x00)\ntag_1:\n  pop\n  dataSize(sub_0)\n  dup1\n  dataOffset(sub_0)\n  0x00\n  codecopy\n  0x00\n  return\nstop\n\nsub_0: assembly {\n        /* \"assignment/assignmentOne.sol\":351:2725  contract Voting {... */\n      mstore(0x40, 0x80)\n      callvalue\n      dup1\n      iszero\n      tag_1\n      jumpi\n      revert(0x00, 0x00)\n    tag_1:\n      pop\n      jumpi(tag_2, lt(calldatasize, 0x04))\n      shr(0xe0, calldataload(0x00))\n      dup1\n      0x6dd7d8ea\n      eq\n      tag_3\n      jumpi\n      dup1\n      0x8ab66a90\n      eq\n      tag_4\n      jumpi\n      dup1\n      0x9a594f06\n      eq\n      tag_5\n      jumpi\n      dup1\n      0x9ab24eb0\n      eq\n      tag_6\n      jumpi\n      dup1\n      0xb9830ff1\n      eq\n      tag_7\n      jumpi\n      dup1\n      0xd55d73c5\n      eq\n      tag_8\n      jumpi\n    tag_2:\n      revert(0x00, 0x00)\n        /* \"assignment/assignmentOne.sol\":998:1430  function vote(address candidateAddress) public {... */\n    tag_3:\n      tag_9\n      0x04\n      dup1\n      calldatasize\n      sub\n      dup2\n      add\n      swap1\n      tag_10\n      swap2\n      swap1\n      tag_11\n      jump\t// in\n    tag_10:\n      tag_12\n      jump\t// in\n    tag_9:\n      stop\n        /* \"assignment/assignmentOne.sol\":635:682  mapping(address => Candidate) public candidates */\n    tag_4:\n      tag_13\n      0x04\n      dup1\n      calldatasize\n      sub\n      dup2\n      add\n      swap1\n      tag_14\n      swap2\n      swap1\n      tag_11\n      jump\t// in\n    tag_14:\n      tag_15\n      jump\t// in\n    tag_13:\n      mload(0x40)\n      tag_16\n      swap3\n      swap2\n      swap1\n      tag_17\n      jump\t// in\n    tag_16:\n      mload(0x40)\n      dup1\n      swap2\n      sub\n      swap1\n      return\n        /* \"assignment/assignmentOne.sol\":2239:2722  function addCandidate(address candidateAddress, string memory name) public {... */\n    tag_5:\n      tag_18\n      0x04\n      dup1\n      calldatasize\n      sub\n      dup2\n      add\n      swap1\n      tag_19\n      swap2\n      swap1\n      tag_20\n      jump\t// in\n    tag_19:\n      tag_21\n      jump\t// in\n    tag_18:\n      stop\n        /* \"assignment/assignmentOne.sol\":1480:1809  function getVotes(address candidateAddress) public view returns (uint) {... */\n    tag_6:\n      tag_22\n      0x04\n      dup1\n      calldatasize\n      sub\n      dup2\n      add\n      swap1\n      tag_23\n      swap2\n      swap1\n      tag_11\n      jump\t// in\n    tag_23:\n      tag_24\n      jump\t// in\n    tag_22:\n      mload(0x40)\n      tag_25\n      swap2\n      swap1\n      tag_26\n      jump\t// in\n    tag_25:\n      mload(0x40)\n      dup1\n      swap2\n      sub\n      swap1\n      return\n        /* \"assignment/assignmentOne.sol\":1859:2168  function resetVotes() public {... */\n    tag_7:\n      tag_27\n      tag_28\n      jump\t// in\n    tag_27:\n      stop\n        /* \"assignment/assignmentOne.sol\":740:775  address[] public candidateAddresses */\n    tag_8:\n      tag_29\n      0x04\n      dup1\n      calldatasize\n      sub\n      dup2\n      add\n      swap1\n      tag_30\n      swap2\n      swap1\n      tag_31\n      jump\t// in\n    tag_30:\n      tag_32\n      jump\t// in\n    tag_29:\n      mload(0x40)\n      tag_33\n      swap2\n      swap1\n      tag_34\n      jump\t// in\n    tag_33:\n      mload(0x40)\n      dup1\n      swap2\n      sub\n      swap1\n      return\n        /* \"assignment/assignmentOne.sol\":998:1430  function vote(address candidateAddress) public {... */\n    tag_12:\n        /* \"assignment/assignmentOne.sol\":1155:1156  0 */\n      0x00\n        /* \"assignment/assignmentOne.sol\":1110:1120  candidates */\n      0x00\n        /* \"assignment/assignmentOne.sol\":1110:1138  candidates[candidateAddress] */\n      0x00\n        /* \"assignment/assignmentOne.sol\":1121:1137  candidateAddress */\n      dup4\n        /* \"assignment/assignmentOne.sol\":1110:1138  candidates[candidateAddress] */\n      0xffffffffffffffffffffffffffffffffffffffff\n      and\n      0xffffffffffffffffffffffffffffffffffffffff\n      and\n      dup2\n      mstore\n      0x20\n      add\n      swap1\n      dup2\n      mstore\n      0x20\n      add\n      0x00\n      keccak256\n        /* \"assignment/assignmentOne.sol\":1110:1143  candidates[candidateAddress].name */\n      0x00\n      add\n        /* \"assignment/assignmentOne.sol\":1104:1151  bytes(candidates[candidateAddress].name).length */\n      dup1\n      sload\n      tag_36\n      swap1\n      tag_37\n      jump\t// in\n    tag_36:\n      swap1\n      pop\n        /* \"assignment/assignmentOne.sol\":1104:1156  bytes(candidates[candidateAddress].name).length != 0 */\n      sub\n        /* \"assignment/assignmentOne.sol\":1096:1186  require(bytes(candidates[candidateAddress].name).length != 0, \"Candidate does not exist.\") */\n      tag_38\n      jumpi\n      mload(0x40)\n      0x08c379a000000000000000000000000000000000000000000000000000000000\n      dup2\n      mstore\n      0x04\n      add\n      tag_39\n      swap1\n      tag_40\n      jump\t// in\n    tag_39:\n      mload(0x40)\n      dup1\n      swap2\n      sub\n      swap1\n      revert\n    tag_38:\n        /* \"assignment/assignmentOne.sol\":1247:1257  candidates */\n      0x00\n        /* \"assignment/assignmentOne.sol\":1247:1275  candidates[candidateAddress] */\n      0x00\n        /* \"assignment/assignmentOne.sol\":1258:1274  candidateAddress */\n      dup3\n        /* \"assignment/assignmentOne.sol\":1247:1275  candidates[candidateAddress] */\n      0xffffffffffffffffffffffffffffffffffffffff\n      and\n      0xffffffffffffffffffffffffffffffffffffffff\n      and\n      dup2\n      mstore\n      0x20\n      add\n      swap1\n      dup2\n      mstore\n      0x20\n      add\n      0x00\n      keccak256\n        /* \"assignment/assignmentOne.sol\":1247:1285  candidates[candidateAddress].voteCount */\n      0x01\n      add\n      0x00\n        /* \"assignment/assignmentOne.sol\":1247:1287  candidates[candidateAddress].voteCount++ */\n      dup2\n      sload\n      dup1\n      swap3\n      swap2\n      swap1\n      tag_41\n      swap1\n      tag_42\n      jump\t// in\n    tag_41:\n      swap2\n      swap1\n      pop\n      sstore\n      pop\n        /* \"assignment/assignmentOne.sol\":1405:1421  candidateAddress */\n      dup1\n        /* \"assignment/assignmentOne.sol\":1387:1422  Voted(msg.sender, candidateAddress) */\n      0xffffffffffffffffffffffffffffffffffffffff\n      and\n        /* \"assignment/assignmentOne.sol\":1393:1403  msg.sender */\n      caller\n        /* \"assignment/assignmentOne.sol\":1387:1422  Voted(msg.sender, candidateAddress) */\n      0xffffffffffffffffffffffffffffffffffffffff\n      and\n      0xce0c7a2a940807f7dc2ce7a615c2532e915e6c0ac9a08bc4ed9d515a710a53e2\n      mload(0x40)\n      mload(0x40)\n      dup1\n      swap2\n      sub\n      swap1\n      log3\n        /* \"assignment/assignmentOne.sol\":998:1430  function vote(address candidateAddress) public {... */\n      pop\n      jump\t// out\n        /* \"assignment/assignmentOne.sol\":635:682  mapping(address => Candidate) public candidates */\n    tag_15:\n      mstore(0x20, 0x00)\n      dup1\n      0x00\n      mstore\n      keccak256(0x00, 0x40)\n      0x00\n      swap2\n      pop\n      swap1\n      pop\n      dup1\n      0x00\n      add\n      dup1\n      sload\n      tag_43\n      swap1\n      tag_37\n      jump\t// in\n    tag_43:\n      dup1\n      0x1f\n      add\n      0x20\n      dup1\n      swap2\n      div\n      mul\n      0x20\n      add\n      mload(0x40)\n      swap1\n      dup2\n      add\n      0x40\n      mstore\n      dup1\n      swap3\n      swap2\n      swap1\n      dup2\n      dup2\n      mstore\n      0x20\n      add\n      dup3\n      dup1\n      sload\n      tag_44\n      swap1\n      tag_37\n      jump\t// in\n    tag_44:\n      dup1\n      iszero\n      tag_45\n      jumpi\n      dup1\n      0x1f\n      lt\n      tag_46\n      jumpi\n      0x0100\n      dup1\n      dup4\n      sload\n      div\n      mul\n      dup4\n      mstore\n      swap2\n      0x20\n      add\n      swap2\n      jump(tag_45)\n    tag_46:\n      dup3\n      add\n      swap2\n      swap1\n      0x00\n      mstore\n      keccak256(0x00, 0x20)\n      swap1\n    tag_47:\n      dup2\n      sload\n      dup2\n      mstore\n      swap1\n      0x01\n      add\n      swap1\n      0x20\n      add\n      dup1\n      dup4\n      gt\n      tag_47\n      jumpi\n      dup3\n      swap1\n      sub\n      0x1f\n      and\n      dup3\n      add\n      swap2\n    tag_45:\n      pop\n      pop\n      pop\n      pop\n      pop\n      swap1\n      dup1\n      0x01\n      add\n      sload\n      swap1\n      pop\n      dup3\n      jump\t// out\n        /* \"assignment/assignmentOne.sol\":2239:2722  function addCandidate(address candidateAddress, string memory name) public {... */\n    tag_21:\n        /* \"assignment/assignmentOne.sol\":2427:2428  0 */\n      0x00\n        /* \"assignment/assignmentOne.sol\":2382:2392  candidates */\n      0x00\n        /* \"assignment/assignmentOne.sol\":2382:2410  candidates[candidateAddress] */\n      0x00\n        /* \"assignment/assignmentOne.sol\":2393:2409  candidateAddress */\n      dup5\n        /* \"assignment/assignmentOne.sol\":2382:2410  candidates[candidateAddress] */\n      0xffffffffffffffffffffffffffffffffffffffff\n      and\n      0xffffffffffffffffffffffffffffffffffffffff\n      and\n      dup2\n      mstore\n      0x20\n      add\n      swap1\n      dup2\n      mstore\n      0x20\n      add\n      0x00\n      keccak256\n        /* \"assignment/assignmentOne.sol\":2382:2415  candidates[candidateAddress].name */\n      0x00\n      add\n        /* \"assignment/assignmentOne.sol\":2376:2423  bytes(candidates[candidateAddress].name).length */\n      dup1\n      sload\n      tag_49\n      swap1\n      tag_37\n      jump\t// in\n    tag_49:\n      swap1\n      pop\n        /* \"assignment/assignmentOne.sol\":2376:2428  bytes(candidates[candidateAddress].name).length == 0 */\n      eq\n        /* \"assignment/assignmentOne.sol\":2368:2458  require(bytes(candidates[candidateAddress].name).length == 0, \"Candidate already exists.\") */\n      tag_50\n      jumpi\n      mload(0x40)\n      0x08c379a000000000000000000000000000000000000000000000000000000000\n      dup2\n      mstore\n      0x04\n      add\n      tag_51\n      swap1\n      tag_52\n      jump\t// in\n    tag_51:\n      mload(0x40)\n      dup1\n      swap2\n      sub\n      swap1\n      revert\n    tag_50:\n        /* \"assignment/assignmentOne.sol\":2570:2588  Candidate(name, 0) */\n      mload(0x40)\n      dup1\n      0x40\n      add\n      0x40\n      mstore\n      dup1\n        /* \"assignment/assignmentOne.sol\":2580:2584  name */\n      dup3\n        /* \"assignment/assignmentOne.sol\":2570:2588  Candidate(name, 0) */\n      dup2\n      mstore\n      0x20\n      add\n        /* \"assignment/assignmentOne.sol\":2586:2587  0 */\n      0x00\n        /* \"assignment/assignmentOne.sol\":2570:2588  Candidate(name, 0) */\n      dup2\n      mstore\n      pop\n        /* \"assignment/assignmentOne.sol\":2539:2549  candidates */\n      0x00\n        /* \"assignment/assignmentOne.sol\":2539:2567  candidates[candidateAddress] */\n      0x00\n        /* \"assignment/assignmentOne.sol\":2550:2566  candidateAddress */\n      dup5\n        /* \"assignment/assignmentOne.sol\":2539:2567  candidates[candidateAddress] */\n      0xffffffffffffffffffffffffffffffffffffffff\n      and\n      0xffffffffffffffffffffffffffffffffffffffff\n      and\n      dup2\n      mstore\n      0x20\n      add\n      swap1\n      dup2\n      mstore\n      0x20\n      add\n      0x00\n      keccak256\n        /* \"assignment/assignmentOne.sol\":2539:2588  candidates[candidateAddress] = Candidate(name, 0) */\n      0x00\n      dup3\n      add\n      mload\n      dup2\n      0x00\n      add\n      swap1\n      dup2\n      tag_53\n      swap2\n      swap1\n      tag_54\n      jump\t// in\n    tag_53:\n      pop\n      0x20\n      dup3\n      add\n      mload\n      dup2\n      0x01\n      add\n      sstore\n      swap1\n      pop\n      pop\n        /* \"assignment/assignmentOne.sol\":2673:2691  candidateAddresses */\n      0x01\n        /* \"assignment/assignmentOne.sol\":2697:2713  candidateAddress */\n      dup3\n        /* \"assignment/assignmentOne.sol\":2673:2714  candidateAddresses.push(candidateAddress) */\n      swap1\n      dup1\n      0x01\n      dup2\n      sload\n      add\n      dup1\n      dup3\n      sstore\n      dup1\n      swap2\n      pop\n      pop\n      0x01\n      swap1\n      sub\n      swap1\n      0x00\n      mstore\n      keccak256(0x00, 0x20)\n      add\n      0x00\n      swap1\n      swap2\n      swap1\n      swap2\n      swap1\n      swap2\n      0x0100\n      exp\n      dup2\n      sload\n      dup2\n      0xffffffffffffffffffffffffffffffffffffffff\n      mul\n      not\n      and\n      swap1\n      dup4\n      0xffffffffffffffffffffffffffffffffffffffff\n      and\n      mul\n      or\n      swap1\n      sstore\n      pop\n        /* \"assignment/assignmentOne.sol\":2239:2722  function addCandidate(address candidateAddress, string memory name) public {... */\n      pop\n      pop\n      jump\t// out\n        /* \"assignment/assignmentOne.sol\":1480:1809  function getVotes(address candidateAddress) public view returns (uint) {... */\n    tag_24:\n        /* \"assignment/assignmentOne.sol\":1545:1549  uint */\n      0x00\n        /* \"assignment/assignmentOne.sol\":1661:1662  0 */\n      0x00\n        /* \"assignment/assignmentOne.sol\":1616:1626  candidates */\n      0x00\n        /* \"assignment/assignmentOne.sol\":1616:1644  candidates[candidateAddress] */\n      0x00\n        /* \"assignment/assignmentOne.sol\":1627:1643  candidateAddress */\n      dup5\n        /* \"assignment/assignmentOne.sol\":1616:1644  candidates[candidateAddress] */\n      0xffffffffffffffffffffffffffffffffffffffff\n      and\n      0xffffffffffffffffffffffffffffffffffffffff\n      and\n      dup2\n      mstore\n      0x20\n      add\n      swap1\n      dup2\n      mstore\n      0x20\n      add\n      0x00\n      keccak256\n        /* \"assignment/assignmentOne.sol\":1616:1649  candidates[candidateAddress].name */\n      0x00\n      add\n        /* \"assignment/assignmentOne.sol\":1610:1657  bytes(candidates[candidateAddress].name).length */\n      dup1\n      sload\n      tag_57\n      swap1\n      tag_37\n      jump\t// in\n    tag_57:\n      swap1\n      pop\n        /* \"assignment/assignmentOne.sol\":1610:1662  bytes(candidates[candidateAddress].name).length != 0 */\n      sub\n        /* \"assignment/assignmentOne.sol\":1602:1692  require(bytes(candidates[candidateAddress].name).length != 0, \"Candidate does not exist.\") */\n      tag_58\n      jumpi\n      mload(0x40)\n      0x08c379a000000000000000000000000000000000000000000000000000000000\n      dup2\n      mstore\n      0x04\n      add\n      tag_59\n      swap1\n      tag_40\n      jump\t// in\n    tag_59:\n      mload(0x40)\n      dup1\n      swap2\n      sub\n      swap1\n      revert\n    tag_58:\n        /* \"assignment/assignmentOne.sol\":1763:1773  candidates */\n      0x00\n        /* \"assignment/assignmentOne.sol\":1763:1791  candidates[candidateAddress] */\n      0x00\n        /* \"assignment/assignmentOne.sol\":1774:1790  candidateAddress */\n      dup4\n        /* \"assignment/assignmentOne.sol\":1763:1791  candidates[candidateAddress] */\n      0xffffffffffffffffffffffffffffffffffffffff\n      and\n      0xffffffffffffffffffffffffffffffffffffffff\n      and\n      dup2\n      mstore\n      0x20\n      add\n      swap1\n      dup2\n      mstore\n      0x20\n      add\n      0x00\n      keccak256\n        /* \"assignment/assignmentOne.sol\":1763:1801  candidates[candidateAddress].voteCount */\n      0x01\n      add\n      sload\n        /* \"assignment/assignmentOne.sol\":1756:1801  return candidates[candidateAddress].voteCount */\n      swap1\n      pop\n        /* \"assignment/assignmentOne.sol\":1480:1809  function getVotes(address candidateAddress) public view returns (uint) {... */\n      swap2\n      swap1\n      pop\n      jump\t// out\n        /* \"assignment/assignmentOne.sol\":1859:2168  function resetVotes() public {... */\n    tag_28:\n        /* \"assignment/assignmentOne.sol\":1981:1987  uint i */\n      0x00\n        /* \"assignment/assignmentOne.sol\":1990:1991  0 */\n      0x00\n        /* \"assignment/assignmentOne.sol\":1981:1991  uint i = 0 */\n      swap1\n      pop\n        /* \"assignment/assignmentOne.sol\":1976:2161  for (uint i = 0; i < candidateAddresses.length; i++) {... */\n    tag_61:\n        /* \"assignment/assignmentOne.sol\":1997:2015  candidateAddresses */\n      0x01\n        /* \"assignment/assignmentOne.sol\":1997:2022  candidateAddresses.length */\n      dup1\n      sload\n      swap1\n      pop\n        /* \"assignment/assignmentOne.sol\":1993:1994  i */\n      dup2\n        /* \"assignment/assignmentOne.sol\":1993:2022  i < candidateAddresses.length */\n      lt\n        /* \"assignment/assignmentOne.sol\":1976:2161  for (uint i = 0; i < candidateAddresses.length; i++) {... */\n      iszero\n      tag_62\n      jumpi\n        /* \"assignment/assignmentOne.sol\":2044:2068  address candidateAddress */\n      0x00\n        /* \"assignment/assignmentOne.sol\":2071:2089  candidateAddresses */\n      0x01\n        /* \"assignment/assignmentOne.sol\":2090:2091  i */\n      dup3\n        /* \"assignment/assignmentOne.sol\":2071:2092  candidateAddresses[i] */\n      dup2\n      sload\n      dup2\n      lt\n      tag_64\n      jumpi\n      tag_65\n      tag_66\n      jump\t// in\n    tag_65:\n    tag_64:\n      swap1\n      0x00\n      mstore\n      keccak256(0x00, 0x20)\n      add\n      0x00\n      swap1\n      sload\n      swap1\n      0x0100\n      exp\n      swap1\n      div\n      0xffffffffffffffffffffffffffffffffffffffff\n      and\n        /* \"assignment/assignmentOne.sol\":2044:2092  address candidateAddress = candidateAddresses[i] */\n      swap1\n      pop\n        /* \"assignment/assignmentOne.sol\":2148:2149  0 */\n      0x00\n        /* \"assignment/assignmentOne.sol\":2107:2117  candidates */\n      0x00\n        /* \"assignment/assignmentOne.sol\":2107:2135  candidates[candidateAddress] */\n      0x00\n        /* \"assignment/assignmentOne.sol\":2118:2134  candidateAddress */\n      dup4\n        /* \"assignment/assignmentOne.sol\":2107:2135  candidates[candidateAddress] */\n      0xffffffffffffffffffffffffffffffffffffffff\n      and\n      0xffffffffffffffffffffffffffffffffffffffff\n      and\n      dup2\n      mstore\n      0x20\n      add\n      swap1\n      dup2\n      mstore\n      0x20\n      add\n      0x00\n      keccak256\n        /* \"assignment/assignmentOne.sol\":2107:2145  candidates[candidateAddress].voteCount */\n      0x01\n      add\n        /* \"assignment/assignmentOne.sol\":2107:2149  candidates[candidateAddress].voteCount = 0 */\n      dup2\n      swap1\n      sstore\n      pop\n        /* \"assignment/assignmentOne.sol\":2029:2161  {... */\n      pop\n        /* \"assignment/assignmentOne.sol\":2024:2027  i++ */\n      dup1\n      dup1\n      0x01\n      add\n      swap2\n      pop\n      pop\n        /* \"assignment/assignmentOne.sol\":1976:2161  for (uint i = 0; i < candidateAddresses.length; i++) {... */\n      jump(tag_61)\n    tag_62:\n      pop\n        /* \"assignment/assignmentOne.sol\":1859:2168  function resetVotes() public {... */\n      jump\t// out\n        /* \"assignment/assignmentOne.sol\":740:775  address[] public candidateAddresses */\n    tag_32:\n      0x01\n      dup2\n      dup2\n      sload\n      dup2\n      lt\n      tag_68\n      jumpi\n      0x00\n      dup1\n      revert\n    tag_68:\n      swap1\n      0x00\n      mstore\n      keccak256(0x00, 0x20)\n      add\n      0x00\n      swap2\n      pop\n      sload\n      swap1\n      0x0100\n      exp\n      swap1\n      div\n      0xffffffffffffffffffffffffffffffffffffffff\n      and\n      dup2\n      jump\t// out\n        /* \"#utility.yul\":7:82   */\n    tag_70:\n        /* \"#utility.yul\":40:46   */\n      0x00\n        /* \"#utility.yul\":73:75   */\n      0x40\n        /* \"#utility.yul\":67:76   */\n      mload\n        /* \"#utility.yul\":57:76   */\n      swap1\n      pop\n        /* \"#utility.yul\":7:82   */\n      swap1\n      jump\t// out\n        /* \"#utility.yul\":88:205   */\n    tag_71:\n        /* \"#utility.yul\":197:198   */\n      0x00\n        /* \"#utility.yul\":194:195   */\n      0x00\n        /* \"#utility.yul\":187:199   */\n      revert\n        /* \"#utility.yul\":211:328   */\n    tag_72:\n        /* \"#utility.yul\":320:321   */\n      0x00\n        /* \"#utility.yul\":317:318   */\n      0x00\n        /* \"#utility.yul\":310:322   */\n      revert\n        /* \"#utility.yul\":334:460   */\n    tag_73:\n        /* \"#utility.yul\":371:378   */\n      0x00\n        /* \"#utility.yul\":411:453   */\n      0xffffffffffffffffffffffffffffffffffffffff\n        /* \"#utility.yul\":404:409   */\n      dup3\n        /* \"#utility.yul\":400:454   */\n      and\n        /* \"#utility.yul\":389:454   */\n      swap1\n      pop\n        /* \"#utility.yul\":334:460   */\n      swap2\n      swap1\n      pop\n      jump\t// out\n        /* \"#utility.yul\":466:562   */\n    tag_74:\n        /* \"#utility.yul\":503:510   */\n      0x00\n        /* \"#utility.yul\":532:556   */\n      tag_123\n        /* \"#utility.yul\":550:555   */\n      dup3\n        /* \"#utility.yul\":532:556   */\n      tag_73\n      jump\t// in\n    tag_123:\n        /* \"#utility.yul\":521:556   */\n      swap1\n      pop\n        /* \"#utility.yul\":466:562   */\n      swap2\n      swap1\n      pop\n      jump\t// out\n        /* \"#utility.yul\":568:690   */\n    tag_75:\n        /* \"#utility.yul\":641:665   */\n      tag_125\n        /* \"#utility.yul\":659:664   */\n      dup2\n        /* \"#utility.yul\":641:665   */\n      tag_74\n      jump\t// in\n    tag_125:\n        /* \"#utility.yul\":634:639   */\n      dup2\n        /* \"#utility.yul\":631:666   */\n      eq\n        /* \"#utility.yul\":621:684   */\n      tag_126\n      jumpi\n        /* \"#utility.yul\":680:681   */\n      0x00\n        /* \"#utility.yul\":677:678   */\n      0x00\n        /* \"#utility.yul\":670:682   */\n      revert\n        /* \"#utility.yul\":621:684   */\n    tag_126:\n        /* \"#utility.yul\":568:690   */\n      pop\n      jump\t// out\n        /* \"#utility.yul\":696:835   */\n    tag_76:\n        /* \"#utility.yul\":742:747   */\n      0x00\n        /* \"#utility.yul\":780:786   */\n      dup2\n        /* \"#utility.yul\":767:787   */\n      calldataload\n        /* \"#utility.yul\":758:787   */\n      swap1\n      pop\n        /* \"#utility.yul\":796:829   */\n      tag_128\n        /* \"#utility.yul\":823:828   */\n      dup2\n        /* \"#utility.yul\":796:829   */\n      tag_75\n      jump\t// in\n    tag_128:\n        /* \"#utility.yul\":696:835   */\n      swap3\n      swap2\n      pop\n      pop\n      jump\t// out\n        /* \"#utility.yul\":841:1170   */\n    tag_11:\n        /* \"#utility.yul\":900:906   */\n      0x00\n        /* \"#utility.yul\":949:951   */\n      0x20\n        /* \"#utility.yul\":937:946   */\n      dup3\n        /* \"#utility.yul\":928:935   */\n      dup5\n        /* \"#utility.yul\":924:947   */\n      sub\n        /* \"#utility.yul\":920:952   */\n      slt\n        /* \"#utility.yul\":917:1036   */\n      iszero\n      tag_130\n      jumpi\n        /* \"#utility.yul\":955:1034   */\n      tag_131\n      tag_71\n      jump\t// in\n    tag_131:\n        /* \"#utility.yul\":917:1036   */\n    tag_130:\n        /* \"#utility.yul\":1075:1076   */\n      0x00\n        /* \"#utility.yul\":1100:1153   */\n      tag_132\n        /* \"#utility.yul\":1145:1152   */\n      dup5\n        /* \"#utility.yul\":1136:1142   */\n      dup3\n        /* \"#utility.yul\":1125:1134   */\n      dup6\n        /* \"#utility.yul\":1121:1143   */\n      add\n        /* \"#utility.yul\":1100:1153   */\n      tag_76\n      jump\t// in\n    tag_132:\n        /* \"#utility.yul\":1090:1153   */\n      swap2\n      pop\n        /* \"#utility.yul\":1046:1163   */\n      pop\n        /* \"#utility.yul\":841:1170   */\n      swap3\n      swap2\n      pop\n      pop\n      jump\t// out\n        /* \"#utility.yul\":1176:1275   */\n    tag_77:\n        /* \"#utility.yul\":1228:1234   */\n      0x00\n        /* \"#utility.yul\":1262:1267   */\n      dup2\n        /* \"#utility.yul\":1256:1268   */\n      mload\n        /* \"#utility.yul\":1246:1268   */\n      swap1\n      pop\n        /* \"#utility.yul\":1176:1275   */\n      swap2\n      swap1\n      pop\n      jump\t// out\n        /* \"#utility.yul\":1281:1450   */\n    tag_78:\n        /* \"#utility.yul\":1365:1376   */\n      0x00\n        /* \"#utility.yul\":1399:1405   */\n      dup3\n        /* \"#utility.yul\":1394:1397   */\n      dup3\n        /* \"#utility.yul\":1387:1406   */\n      mstore\n        /* \"#utility.yul\":1439:1443   */\n      0x20\n        /* \"#utility.yul\":1434:1437   */\n      dup3\n        /* \"#utility.yul\":1430:1444   */\n      add\n        /* \"#utility.yul\":1415:1444   */\n      swap1\n      pop\n        /* \"#utility.yul\":1281:1450   */\n      swap3\n      swap2\n      pop\n      pop\n      jump\t// out\n        /* \"#utility.yul\":1456:1595   */\n    tag_79:\n        /* \"#utility.yul\":1545:1551   */\n      dup3\n        /* \"#utility.yul\":1540:1543   */\n      dup2\n        /* \"#utility.yul\":1535:1538   */\n      dup4\n        /* \"#utility.yul\":1529:1552   */\n      mcopy\n        /* \"#utility.yul\":1586:1587   */\n      0x00\n        /* \"#utility.yul\":1577:1583   */\n      dup4\n        /* \"#utility.yul\":1572:1575   */\n      dup4\n        /* \"#utility.yul\":1568:1584   */\n      add\n        /* \"#utility.yul\":1561:1588   */\n      mstore\n        /* \"#utility.yul\":1456:1595   */\n      pop\n      pop\n      pop\n      jump\t// out\n        /* \"#utility.yul\":1601:1703   */\n    tag_80:\n        /* \"#utility.yul\":1642:1648   */\n      0x00\n        /* \"#utility.yul\":1693:1695   */\n      0x1f\n        /* \"#utility.yul\":1689:1696   */\n      not\n        /* \"#utility.yul\":1684:1686   */\n      0x1f\n        /* \"#utility.yul\":1677:1682   */\n      dup4\n        /* \"#utility.yul\":1673:1687   */\n      add\n        /* \"#utility.yul\":1669:1697   */\n      and\n        /* \"#utility.yul\":1659:1697   */\n      swap1\n      pop\n        /* \"#utility.yul\":1601:1703   */\n      swap2\n      swap1\n      pop\n      jump\t// out\n        /* \"#utility.yul\":1709:2086   */\n    tag_81:\n        /* \"#utility.yul\":1797:1800   */\n      0x00\n        /* \"#utility.yul\":1825:1864   */\n      tag_138\n        /* \"#utility.yul\":1858:1863   */\n      dup3\n        /* \"#utility.yul\":1825:1864   */\n      tag_77\n      jump\t// in\n    tag_138:\n        /* \"#utility.yul\":1880:1951   */\n      tag_139\n        /* \"#utility.yul\":1944:1950   */\n      dup2\n        /* \"#utility.yul\":1939:1942   */\n      dup6\n        /* \"#utility.yul\":1880:1951   */\n      tag_78\n      jump\t// in\n    tag_139:\n        /* \"#utility.yul\":1873:1951   */\n      swap4\n      pop\n        /* \"#utility.yul\":1960:2025   */\n      tag_140\n        /* \"#utility.yul\":2018:2024   */\n      dup2\n        /* \"#utility.yul\":2013:2016   */\n      dup6\n        /* \"#utility.yul\":2006:2010   */\n      0x20\n        /* \"#utility.yul\":1999:2004   */\n      dup7\n        /* \"#utility.yul\":1995:2011   */\n      add\n        /* \"#utility.yul\":1960:2025   */\n      tag_79\n      jump\t// in\n    tag_140:\n        /* \"#utility.yul\":2050:2079   */\n      tag_141\n        /* \"#utility.yul\":2072:2078   */\n      dup2\n        /* \"#utility.yul\":2050:2079   */\n      tag_80\n      jump\t// in\n    tag_141:\n        /* \"#utility.yul\":2045:2048   */\n      dup5\n        /* \"#utility.yul\":2041:2080   */\n      add\n        /* \"#utility.yul\":2034:2080   */\n      swap2\n      pop\n        /* \"#utility.yul\":1801:2086   */\n      pop\n        /* \"#utility.yul\":1709:2086   */\n      swap3\n      swap2\n      pop\n      pop\n      jump\t// out\n        /* \"#utility.yul\":2092:2169   */\n    tag_82:\n        /* \"#utility.yul\":2129:2136   */\n      0x00\n        /* \"#utility.yul\":2158:2163   */\n      dup2\n        /* \"#utility.yul\":2147:2163   */\n      swap1\n      pop\n        /* \"#utility.yul\":2092:2169   */\n      swap2\n      swap1\n      pop\n      jump\t// out\n        /* \"#utility.yul\":2175:2293   */\n    tag_83:\n        /* \"#utility.yul\":2262:2286   */\n      tag_144\n        /* \"#utility.yul\":2280:2285   */\n      dup2\n        /* \"#utility.yul\":2262:2286   */\n      tag_82\n      jump\t// in\n    tag_144:\n        /* \"#utility.yul\":2257:2260   */\n      dup3\n        /* \"#utility.yul\":2250:2287   */\n      mstore\n        /* \"#utility.yul\":2175:2293   */\n      pop\n      pop\n      jump\t// out\n        /* \"#utility.yul\":2299:2722   */\n    tag_17:\n        /* \"#utility.yul\":2440:2444   */\n      0x00\n        /* \"#utility.yul\":2478:2480   */\n      0x40\n        /* \"#utility.yul\":2467:2476   */\n      dup3\n        /* \"#utility.yul\":2463:2481   */\n      add\n        /* \"#utility.yul\":2455:2481   */\n      swap1\n      pop\n        /* \"#utility.yul\":2527:2536   */\n      dup2\n        /* \"#utility.yul\":2521:2525   */\n      dup2\n        /* \"#utility.yul\":2517:2537   */\n      sub\n        /* \"#utility.yul\":2513:2514   */\n      0x00\n        /* \"#utility.yul\":2502:2511   */\n      dup4\n        /* \"#utility.yul\":2498:2515   */\n      add\n        /* \"#utility.yul\":2491:2538   */\n      mstore\n        /* \"#utility.yul\":2555:2633   */\n      tag_146\n        /* \"#utility.yul\":2628:2632   */\n      dup2\n        /* \"#utility.yul\":2619:2625   */\n      dup6\n        /* \"#utility.yul\":2555:2633   */\n      tag_81\n      jump\t// in\n    tag_146:\n        /* \"#utility.yul\":2547:2633   */\n      swap1\n      pop\n        /* \"#utility.yul\":2643:2715   */\n      tag_147\n        /* \"#utility.yul\":2711:2713   */\n      0x20\n        /* \"#utility.yul\":2700:2709   */\n      dup4\n        /* \"#utility.yul\":2696:2714   */\n      add\n        /* \"#utility.yul\":2687:2693   */\n      dup5\n        /* \"#utility.yul\":2643:2715   */\n      tag_83\n      jump\t// in\n    tag_147:\n        /* \"#utility.yul\":2299:2722   */\n      swap4\n      swap3\n      pop\n      pop\n      pop\n      jump\t// out\n        /* \"#utility.yul\":2728:2845   */\n    tag_84:\n        /* \"#utility.yul\":2837:2838   */\n      0x00\n        /* \"#utility.yul\":2834:2835   */\n      0x00\n        /* \"#utility.yul\":2827:2839   */\n      revert\n        /* \"#utility.yul\":2851:2968   */\n    tag_85:\n        /* \"#utility.yul\":2960:2961   */\n      0x00\n        /* \"#utility.yul\":2957:2958   */\n      0x00\n        /* \"#utility.yul\":2950:2962   */\n      revert\n        /* \"#utility.yul\":2974:3154   */\n    tag_86:\n        /* \"#utility.yul\":3022:3099   */\n      0x4e487b7100000000000000000000000000000000000000000000000000000000\n        /* \"#utility.yul\":3019:3020   */\n      0x00\n        /* \"#utility.yul\":3012:3100   */\n      mstore\n        /* \"#utility.yul\":3119:3123   */\n      0x41\n        /* \"#utility.yul\":3116:3117   */\n      0x04\n        /* \"#utility.yul\":3109:3124   */\n      mstore\n        /* \"#utility.yul\":3143:3147   */\n      0x24\n        /* \"#utility.yul\":3140:3141   */\n      0x00\n        /* \"#utility.yul\":3133:3148   */\n      revert\n        /* \"#utility.yul\":3160:3441   */\n    tag_87:\n        /* \"#utility.yul\":3243:3270   */\n      tag_152\n        /* \"#utility.yul\":3265:3269   */\n      dup3\n        /* \"#utility.yul\":3243:3270   */\n      tag_80\n      jump\t// in\n    tag_152:\n        /* \"#utility.yul\":3235:3241   */\n      dup2\n        /* \"#utility.yul\":3231:3271   */\n      add\n        /* \"#utility.yul\":3373:3379   */\n      dup2\n        /* \"#utility.yul\":3361:3371   */\n      dup2\n        /* \"#utility.yul\":3358:3380   */\n      lt\n        /* \"#utility.yul\":3337:3355   */\n      0xffffffffffffffff\n        /* \"#utility.yul\":3325:3335   */\n      dup3\n        /* \"#utility.yul\":3322:3356   */\n      gt\n        /* \"#utility.yul\":3319:3381   */\n      or\n        /* \"#utility.yul\":3316:3404   */\n      iszero\n      tag_153\n      jumpi\n        /* \"#utility.yul\":3384:3402   */\n      tag_154\n      tag_86\n      jump\t// in\n    tag_154:\n        /* \"#utility.yul\":3316:3404   */\n    tag_153:\n        /* \"#utility.yul\":3424:3434   */\n      dup1\n        /* \"#utility.yul\":3420:3422   */\n      0x40\n        /* \"#utility.yul\":3413:3435   */\n      mstore\n        /* \"#utility.yul\":3203:3441   */\n      pop\n        /* \"#utility.yul\":3160:3441   */\n      pop\n      pop\n      jump\t// out\n        /* \"#utility.yul\":3447:3576   */\n    tag_88:\n        /* \"#utility.yul\":3481:3487   */\n      0x00\n        /* \"#utility.yul\":3508:3528   */\n      tag_156\n      tag_70\n      jump\t// in\n    tag_156:\n        /* \"#utility.yul\":3498:3528   */\n      swap1\n      pop\n        /* \"#utility.yul\":3537:3570   */\n      tag_157\n        /* \"#utility.yul\":3565:3569   */\n      dup3\n        /* \"#utility.yul\":3557:3563   */\n      dup3\n        /* \"#utility.yul\":3537:3570   */\n      tag_87\n      jump\t// in\n    tag_157:\n        /* \"#utility.yul\":3447:3576   */\n      swap2\n      swap1\n      pop\n      jump\t// out\n        /* \"#utility.yul\":3582:3890   */\n    tag_89:\n        /* \"#utility.yul\":3644:3648   */\n      0x00\n        /* \"#utility.yul\":3734:3752   */\n      0xffffffffffffffff\n        /* \"#utility.yul\":3726:3732   */\n      dup3\n        /* \"#utility.yul\":3723:3753   */\n      gt\n        /* \"#utility.yul\":3720:3776   */\n      iszero\n      tag_159\n      jumpi\n        /* \"#utility.yul\":3756:3774   */\n      tag_160\n      tag_86\n      jump\t// in\n    tag_160:\n        /* \"#utility.yul\":3720:3776   */\n    tag_159:\n        /* \"#utility.yul\":3794:3823   */\n      tag_161\n        /* \"#utility.yul\":3816:3822   */\n      dup3\n        /* \"#utility.yul\":3794:3823   */\n      tag_80\n      jump\t// in\n    tag_161:\n        /* \"#utility.yul\":3786:3823   */\n      swap1\n      pop\n        /* \"#utility.yul\":3878:3882   */\n      0x20\n        /* \"#utility.yul\":3872:3876   */\n      dup2\n        /* \"#utility.yul\":3868:3883   */\n      add\n        /* \"#utility.yul\":3860:3883   */\n      swap1\n      pop\n        /* \"#utility.yul\":3582:3890   */\n      swap2\n      swap1\n      pop\n      jump\t// out\n        /* \"#utility.yul\":3896:4044   */\n    tag_90:\n        /* \"#utility.yul\":3994:4000   */\n      dup3\n        /* \"#utility.yul\":3989:3992   */\n      dup2\n        /* \"#utility.yul\":3984:3987   */\n      dup4\n        /* \"#utility.yul\":3971:4001   */\n      calldatacopy\n        /* \"#utility.yul\":4035:4036   */\n      0x00\n        /* \"#utility.yul\":4026:4032   */\n      dup4\n        /* \"#utility.yul\":4021:4024   */\n      dup4\n        /* \"#utility.yul\":4017:4033   */\n      add\n        /* \"#utility.yul\":4010:4037   */\n      mstore\n        /* \"#utility.yul\":3896:4044   */\n      pop\n      pop\n      pop\n      jump\t// out\n        /* \"#utility.yul\":4050:4475   */\n    tag_91:\n        /* \"#utility.yul\":4128:4133   */\n      0x00\n        /* \"#utility.yul\":4153:4219   */\n      tag_164\n        /* \"#utility.yul\":4169:4218   */\n      tag_165\n        /* \"#utility.yul\":4211:4217   */\n      dup5\n        /* \"#utility.yul\":4169:4218   */\n      tag_89\n      jump\t// in\n    tag_165:\n        /* \"#utility.yul\":4153:4219   */\n      tag_88\n      jump\t// in\n    tag_164:\n        /* \"#utility.yul\":4144:4219   */\n      swap1\n      pop\n        /* \"#utility.yul\":4242:4248   */\n      dup3\n        /* \"#utility.yul\":4235:4240   */\n      dup2\n        /* \"#utility.yul\":4228:4249   */\n      mstore\n        /* \"#utility.yul\":4280:4284   */\n      0x20\n        /* \"#utility.yul\":4273:4278   */\n      dup2\n        /* \"#utility.yul\":4269:4285   */\n      add\n        /* \"#utility.yul\":4318:4321   */\n      dup5\n        /* \"#utility.yul\":4309:4315   */\n      dup5\n        /* \"#utility.yul\":4304:4307   */\n      dup5\n        /* \"#utility.yul\":4300:4316   */\n      add\n        /* \"#utility.yul\":4297:4322   */\n      gt\n        /* \"#utility.yul\":4294:4406   */\n      iszero\n      tag_166\n      jumpi\n        /* \"#utility.yul\":4325:4404   */\n      tag_167\n      tag_85\n      jump\t// in\n    tag_167:\n        /* \"#utility.yul\":4294:4406   */\n    tag_166:\n        /* \"#utility.yul\":4415:4469   */\n      tag_168\n        /* \"#utility.yul\":4462:4468   */\n      dup5\n        /* \"#utility.yul\":4457:4460   */\n      dup3\n        /* \"#utility.yul\":4452:4455   */\n      dup6\n        /* \"#utility.yul\":4415:4469   */\n      tag_90\n      jump\t// in\n    tag_168:\n        /* \"#utility.yul\":4134:4475   */\n      pop\n        /* \"#utility.yul\":4050:4475   */\n      swap4\n      swap3\n      pop\n      pop\n      pop\n      jump\t// out\n        /* \"#utility.yul\":4495:4835   */\n    tag_92:\n        /* \"#utility.yul\":4551:4556   */\n      0x00\n        /* \"#utility.yul\":4600:4603   */\n      dup3\n        /* \"#utility.yul\":4593:4597   */\n      0x1f\n        /* \"#utility.yul\":4585:4591   */\n      dup4\n        /* \"#utility.yul\":4581:4598   */\n      add\n        /* \"#utility.yul\":4577:4604   */\n      slt\n        /* \"#utility.yul\":4567:4689   */\n      tag_170\n      jumpi\n        /* \"#utility.yul\":4608:4687   */\n      tag_171\n      tag_84\n      jump\t// in\n    tag_171:\n        /* \"#utility.yul\":4567:4689   */\n    tag_170:\n        /* \"#utility.yul\":4725:4731   */\n      dup2\n        /* \"#utility.yul\":4712:4732   */\n      calldataload\n        /* \"#utility.yul\":4750:4829   */\n      tag_172\n        /* \"#utility.yul\":4825:4828   */\n      dup5\n        /* \"#utility.yul\":4817:4823   */\n      dup3\n        /* \"#utility.yul\":4810:4814   */\n      0x20\n        /* \"#utility.yul\":4802:4808   */\n      dup7\n        /* \"#utility.yul\":4798:4815   */\n      add\n        /* \"#utility.yul\":4750:4829   */\n      tag_91\n      jump\t// in\n    tag_172:\n        /* \"#utility.yul\":4741:4829   */\n      swap2\n      pop\n        /* \"#utility.yul\":4557:4835   */\n      pop\n        /* \"#utility.yul\":4495:4835   */\n      swap3\n      swap2\n      pop\n      pop\n      jump\t// out\n        /* \"#utility.yul\":4841:5495   */\n    tag_20:\n        /* \"#utility.yul\":4919:4925   */\n      0x00\n        /* \"#utility.yul\":4927:4933   */\n      0x00\n        /* \"#utility.yul\":4976:4978   */\n      0x40\n        /* \"#utility.yul\":4964:4973   */\n      dup4\n        /* \"#utility.yul\":4955:4962   */\n      dup6\n        /* \"#utility.yul\":4951:4974   */\n      sub\n        /* \"#utility.yul\":4947:4979   */\n      slt\n        /* \"#utility.yul\":4944:5063   */\n      iszero\n      tag_174\n      jumpi\n        /* \"#utility.yul\":4982:5061   */\n      tag_175\n      tag_71\n      jump\t// in\n    tag_175:\n        /* \"#utility.yul\":4944:5063   */\n    tag_174:\n        /* \"#utility.yul\":5102:5103   */\n      0x00\n        /* \"#utility.yul\":5127:5180   */\n      tag_176\n        /* \"#utility.yul\":5172:5179   */\n      dup6\n        /* \"#utility.yul\":5163:5169   */\n      dup3\n        /* \"#utility.yul\":5152:5161   */\n      dup7\n        /* \"#utility.yul\":5148:5170   */\n      add\n        /* \"#utility.yul\":5127:5180   */\n      tag_76\n      jump\t// in\n    tag_176:\n        /* \"#utility.yul\":5117:5180   */\n      swap3\n      pop\n        /* \"#utility.yul\":5073:5190   */\n      pop\n        /* \"#utility.yul\":5257:5259   */\n      0x20\n        /* \"#utility.yul\":5246:5255   */\n      dup4\n        /* \"#utility.yul\":5242:5260   */\n      add\n        /* \"#utility.yul\":5229:5261   */\n      calldataload\n        /* \"#utility.yul\":5288:5306   */\n      0xffffffffffffffff\n        /* \"#utility.yul\":5280:5286   */\n      dup2\n        /* \"#utility.yul\":5277:5307   */\n      gt\n        /* \"#utility.yul\":5274:5391   */\n      iszero\n      tag_177\n      jumpi\n        /* \"#utility.yul\":5310:5389   */\n      tag_178\n      tag_72\n      jump\t// in\n    tag_178:\n        /* \"#utility.yul\":5274:5391   */\n    tag_177:\n        /* \"#utility.yul\":5415:5478   */\n      tag_179\n        /* \"#utility.yul\":5470:5477   */\n      dup6\n        /* \"#utility.yul\":5461:5467   */\n      dup3\n        /* \"#utility.yul\":5450:5459   */\n      dup7\n        /* \"#utility.yul\":5446:5468   */\n      add\n        /* \"#utility.yul\":5415:5478   */\n      tag_92\n      jump\t// in\n    tag_179:\n        /* \"#utility.yul\":5405:5478   */\n      swap2\n      pop\n        /* \"#utility.yul\":5200:5488   */\n      pop\n        /* \"#utility.yul\":4841:5495   */\n      swap3\n      pop\n      swap3\n      swap1\n      pop\n      jump\t// out\n        /* \"#utility.yul\":5501:5723   */\n    tag_26:\n        /* \"#utility.yul\":5594:5598   */\n      0x00\n        /* \"#utility.yul\":5632:5634   */\n      0x20\n        /* \"#utility.yul\":5621:5630   */\n      dup3\n        /* \"#utility.yul\":5617:5635   */\n      add\n        /* \"#utility.yul\":5609:5635   */\n      swap1\n      pop\n        /* \"#utility.yul\":5645:5716   */\n      tag_181\n        /* \"#utility.yul\":5713:5714   */\n      0x00\n        /* \"#utility.yul\":5702:5711   */\n      dup4\n        /* \"#utility.yul\":5698:5715   */\n      add\n        /* \"#utility.yul\":5689:5695   */\n      dup5\n        /* \"#utility.yul\":5645:5716   */\n      tag_83\n      jump\t// in\n    tag_181:\n        /* \"#utility.yul\":5501:5723   */\n      swap3\n      swap2\n      pop\n      pop\n      jump\t// out\n        /* \"#utility.yul\":5729:5851   */\n    tag_93:\n        /* \"#utility.yul\":5802:5826   */\n      tag_183\n        /* \"#utility.yul\":5820:5825   */\n      dup2\n        /* \"#utility.yul\":5802:5826   */\n      tag_82\n      jump\t// in\n    tag_183:\n        /* \"#utility.yul\":5795:5800   */\n      dup2\n        /* \"#utility.yul\":5792:5827   */\n      eq\n        /* \"#utility.yul\":5782:5845   */\n      tag_184\n      jumpi\n        /* \"#utility.yul\":5841:5842   */\n      0x00\n        /* \"#utility.yul\":5838:5839   */\n      0x00\n        /* \"#utility.yul\":5831:5843   */\n      revert\n        /* \"#utility.yul\":5782:5845   */\n    tag_184:\n        /* \"#utility.yul\":5729:5851   */\n      pop\n      jump\t// out\n        /* \"#utility.yul\":5857:5996   */\n    tag_94:\n        /* \"#utility.yul\":5903:5908   */\n      0x00\n        /* \"#utility.yul\":5941:5947   */\n      dup2\n        /* \"#utility.yul\":5928:5948   */\n      calldataload\n        /* \"#utility.yul\":5919:5948   */\n      swap1\n      pop\n        /* \"#utility.yul\":5957:5990   */\n      tag_186\n        /* \"#utility.yul\":5984:5989   */\n      dup2\n        /* \"#utility.yul\":5957:5990   */\n      tag_93\n      jump\t// in\n    tag_186:\n        /* \"#utility.yul\":5857:5996   */\n      swap3\n      swap2\n      pop\n      pop\n      jump\t// out\n        /* \"#utility.yul\":6002:6331   */\n    tag_31:\n        /* \"#utility.yul\":6061:6067   */\n      0x00\n        /* \"#utility.yul\":6110:6112   */\n      0x20\n        /* \"#utility.yul\":6098:6107   */\n      dup3\n        /* \"#utility.yul\":6089:6096   */\n      dup5\n        /* \"#utility.yul\":6085:6108   */\n      sub\n        /* \"#utility.yul\":6081:6113   */\n      slt\n        /* \"#utility.yul\":6078:6197   */\n      iszero\n      tag_188\n      jumpi\n        /* \"#utility.yul\":6116:6195   */\n      tag_189\n      tag_71\n      jump\t// in\n    tag_189:\n        /* \"#utility.yul\":6078:6197   */\n    tag_188:\n        /* \"#utility.yul\":6236:6237   */\n      0x00\n        /* \"#utility.yul\":6261:6314   */\n      tag_190\n        /* \"#utility.yul\":6306:6313   */\n      dup5\n        /* \"#utility.yul\":6297:6303   */\n      dup3\n        /* \"#utility.yul\":6286:6295   */\n      dup6\n        /* \"#utility.yul\":6282:6304   */\n      add\n        /* \"#utility.yul\":6261:6314   */\n      tag_94\n      jump\t// in\n    tag_190:\n        /* \"#utility.yul\":6251:6314   */\n      swap2\n      pop\n        /* \"#utility.yul\":6207:6324   */\n      pop\n        /* \"#utility.yul\":6002:6331   */\n      swap3\n      swap2\n      pop\n      pop\n      jump\t// out\n        /* \"#utility.yul\":6337:6455   */\n    tag_95:\n        /* \"#utility.yul\":6424:6448   */\n      tag_192\n        /* \"#utility.yul\":6442:6447   */\n      dup2\n        /* \"#utility.yul\":6424:6448   */\n      tag_74\n      jump\t// in\n    tag_192:\n        /* \"#utility.yul\":6419:6422   */\n      dup3\n        /* \"#utility.yul\":6412:6449   */\n      mstore\n        /* \"#utility.yul\":6337:6455   */\n      pop\n      pop\n      jump\t// out\n        /* \"#utility.yul\":6461:6683   */\n    tag_34:\n        /* \"#utility.yul\":6554:6558   */\n      0x00\n        /* \"#utility.yul\":6592:6594   */\n      0x20\n        /* \"#utility.yul\":6581:6590   */\n      dup3\n        /* \"#utility.yul\":6577:6595   */\n      add\n        /* \"#utility.yul\":6569:6595   */\n      swap1\n      pop\n        /* \"#utility.yul\":6605:6676   */\n      tag_194\n        /* \"#utility.yul\":6673:6674   */\n      0x00\n        /* \"#utility.yul\":6662:6671   */\n      dup4\n        /* \"#utility.yul\":6658:6675   */\n      add\n        /* \"#utility.yul\":6649:6655   */\n      dup5\n        /* \"#utility.yul\":6605:6676   */\n      tag_95\n      jump\t// in\n    tag_194:\n        /* \"#utility.yul\":6461:6683   */\n      swap3\n      swap2\n      pop\n      pop\n      jump\t// out\n        /* \"#utility.yul\":6689:6869   */\n    tag_96:\n        /* \"#utility.yul\":6737:6814   */\n      0x4e487b7100000000000000000000000000000000000000000000000000000000\n        /* \"#utility.yul\":6734:6735   */\n      0x00\n        /* \"#utility.yul\":6727:6815   */\n      mstore\n        /* \"#utility.yul\":6834:6838   */\n      0x22\n        /* \"#utility.yul\":6831:6832   */\n      0x04\n        /* \"#utility.yul\":6824:6839   */\n      mstore\n        /* \"#utility.yul\":6858:6862   */\n      0x24\n        /* \"#utility.yul\":6855:6856   */\n      0x00\n        /* \"#utility.yul\":6848:6863   */\n      revert\n        /* \"#utility.yul\":6875:7195   */\n    tag_37:\n        /* \"#utility.yul\":6919:6925   */\n      0x00\n        /* \"#utility.yul\":6956:6957   */\n      0x02\n        /* \"#utility.yul\":6950:6954   */\n      dup3\n        /* \"#utility.yul\":6946:6958   */\n      div\n        /* \"#utility.yul\":6936:6958   */\n      swap1\n      pop\n        /* \"#utility.yul\":7003:7004   */\n      0x01\n        /* \"#utility.yul\":6997:7001   */\n      dup3\n        /* \"#utility.yul\":6993:7005   */\n      and\n        /* \"#utility.yul\":7024:7042   */\n      dup1\n        /* \"#utility.yul\":7014:7095   */\n      tag_197\n      jumpi\n        /* \"#utility.yul\":7080:7084   */\n      0x7f\n        /* \"#utility.yul\":7072:7078   */\n      dup3\n        /* \"#utility.yul\":7068:7085   */\n      and\n        /* \"#utility.yul\":7058:7085   */\n      swap2\n      pop\n        /* \"#utility.yul\":7014:7095   */\n    tag_197:\n        /* \"#utility.yul\":7142:7144   */\n      0x20\n        /* \"#utility.yul\":7134:7140   */\n      dup3\n        /* \"#utility.yul\":7131:7145   */\n      lt\n        /* \"#utility.yul\":7111:7129   */\n      dup2\n        /* \"#utility.yul\":7108:7146   */\n      sub\n        /* \"#utility.yul\":7105:7189   */\n      tag_198\n      jumpi\n        /* \"#utility.yul\":7161:7179   */\n      tag_199\n      tag_96\n      jump\t// in\n    tag_199:\n        /* \"#utility.yul\":7105:7189   */\n    tag_198:\n        /* \"#utility.yul\":6926:7195   */\n      pop\n        /* \"#utility.yul\":6875:7195   */\n      swap2\n      swap1\n      pop\n      jump\t// out\n        /* \"#utility.yul\":7201:7376   */\n    tag_97:\n        /* \"#utility.yul\":7341:7368   */\n      0x43616e64696461746520646f6573206e6f742065786973742e00000000000000\n        /* \"#utility.yul\":7337:7338   */\n      0x00\n        /* \"#utility.yul\":7329:7335   */\n      dup3\n        /* \"#utility.yul\":7325:7339   */\n      add\n        /* \"#utility.yul\":7318:7369   */\n      mstore\n        /* \"#utility.yul\":7201:7376   */\n      pop\n      jump\t// out\n        /* \"#utility.yul\":7382:7748   */\n    tag_98:\n        /* \"#utility.yul\":7524:7527   */\n      0x00\n        /* \"#utility.yul\":7545:7612   */\n      tag_202\n        /* \"#utility.yul\":7609:7611   */\n      0x19\n        /* \"#utility.yul\":7604:7607   */\n      dup4\n        /* \"#utility.yul\":7545:7612   */\n      tag_78\n      jump\t// in\n    tag_202:\n        /* \"#utility.yul\":7538:7612   */\n      swap2\n      pop\n        /* \"#utility.yul\":7621:7714   */\n      tag_203\n        /* \"#utility.yul\":7710:7713   */\n      dup3\n        /* \"#utility.yul\":7621:7714   */\n      tag_97\n      jump\t// in\n    tag_203:\n        /* \"#utility.yul\":7739:7741   */\n      0x20\n        /* \"#utility.yul\":7734:7737   */\n      dup3\n        /* \"#utility.yul\":7730:7742   */\n      add\n        /* \"#utility.yul\":7723:7742   */\n      swap1\n      pop\n        /* \"#utility.yul\":7382:7748   */\n      swap2\n      swap1\n      pop\n      jump\t// out\n        /* \"#utility.yul\":7754:8173   */\n    tag_40:\n        /* \"#utility.yul\":7920:7924   */\n      0x00\n        /* \"#utility.yul\":7958:7960   */\n      0x20\n        /* \"#utility.yul\":7947:7956   */\n      dup3\n        /* \"#utility.yul\":7943:7961   */\n      add\n        /* \"#utility.yul\":7935:7961   */\n      swap1\n      pop\n        /* \"#utility.yul\":8007:8016   */\n      dup2\n        /* \"#utility.yul\":8001:8005   */\n      dup2\n        /* \"#utility.yul\":7997:8017   */\n      sub\n        /* \"#utility.yul\":7993:7994   */\n      0x00\n        /* \"#utility.yul\":7982:7991   */\n      dup4\n        /* \"#utility.yul\":7978:7995   */\n      add\n        /* \"#utility.yul\":7971:8018   */\n      mstore\n        /* \"#utility.yul\":8035:8166   */\n      tag_205\n        /* \"#utility.yul\":8161:8165   */\n      dup2\n        /* \"#utility.yul\":8035:8166   */\n      tag_98\n      jump\t// in\n    tag_205:\n        /* \"#utility.yul\":8027:8166   */\n      swap1\n      pop\n        /* \"#utility.yul\":7754:8173   */\n      swap2\n      swap1\n      pop\n      jump\t// out\n        /* \"#utility.yul\":8179:8359   */\n    tag_99:\n        /* \"#utility.yul\":8227:8304   */\n      0x4e487b7100000000000000000000000000000000000000000000000000000000\n        /* \"#utility.yul\":8224:8225   */\n      0x00\n        /* \"#utility.yul\":8217:8305   */\n      mstore\n        /* \"#utility.yul\":8324:8328   */\n      0x11\n        /* \"#utility.yul\":8321:8322   */\n      0x04\n        /* \"#utility.yul\":8314:8329   */\n      mstore\n        /* \"#utility.yul\":8348:8352   */\n      0x24\n        /* \"#utility.yul\":8345:8346   */\n      0x00\n        /* \"#utility.yul\":8338:8353   */\n      revert\n        /* \"#utility.yul\":8365:8598   */\n    tag_42:\n        /* \"#utility.yul\":8404:8407   */\n      0x00\n        /* \"#utility.yul\":8427:8451   */\n      tag_208\n        /* \"#utility.yul\":8445:8450   */\n      dup3\n        /* \"#utility.yul\":8427:8451   */\n      tag_82\n      jump\t// in\n    tag_208:\n        /* \"#utility.yul\":8418:8451   */\n      swap2\n      pop\n        /* \"#utility.yul\":8473:8539   */\n      0xffffffffffffffffffffffffffffffffffffffffffffffffffffffffffffffff\n        /* \"#utility.yul\":8466:8471   */\n      dup3\n        /* \"#utility.yul\":8463:8540   */\n      sub\n        /* \"#utility.yul\":8460:8563   */\n      tag_209\n      jumpi\n        /* \"#utility.yul\":8543:8561   */\n      tag_210\n      tag_99\n      jump\t// in\n    tag_210:\n        /* \"#utility.yul\":8460:8563   */\n    tag_209:\n        /* \"#utility.yul\":8590:8591   */\n      0x01\n        /* \"#utility.yul\":8583:8588   */\n      dup3\n        /* \"#utility.yul\":8579:8592   */\n      add\n        /* \"#utility.yul\":8572:8592   */\n      swap1\n      pop\n        /* \"#utility.yul\":8365:8598   */\n      swap2\n      swap1\n      pop\n      jump\t// out\n        /* \"#utility.yul\":8604:8779   */\n    tag_100:\n        /* \"#utility.yul\":8744:8771   */\n      0x43616e64696461746520616c7265616479206578697374732e00000000000000\n        /* \"#utility.yul\":8740:8741   */\n      0x00\n        /* \"#utility.yul\":8732:8738   */\n      dup3\n        /* \"#utility.yul\":8728:8742   */\n      add\n        /* \"#utility.yul\":8721:8772   */\n      mstore\n        /* \"#utility.yul\":8604:8779   */\n      pop\n      jump\t// out\n        /* \"#utility.yul\":8785:9151   */\n    tag_101:\n        /* \"#utility.yul\":8927:8930   */\n      0x00\n        /* \"#utility.yul\":8948:9015   */\n      tag_213\n        /* \"#utility.yul\":9012:9014   */\n      0x19\n        /* \"#utility.yul\":9007:9010   */\n      dup4\n        /* \"#utility.yul\":8948:9015   */\n      tag_78\n      jump\t// in\n    tag_213:\n        /* \"#utility.yul\":8941:9015   */\n      swap2\n      pop\n        /* \"#utility.yul\":9024:9117   */\n      tag_214\n        /* \"#utility.yul\":9113:9116   */\n      dup3\n        /* \"#utility.yul\":9024:9117   */\n      tag_100\n      jump\t// in\n    tag_214:\n        /* \"#utility.yul\":9142:9144   */\n      0x20\n        /* \"#utility.yul\":9137:9140   */\n      dup3\n        /* \"#utility.yul\":9133:9145   */\n      add\n        /* \"#utility.yul\":9126:9145   */\n      swap1\n      pop\n        /* \"#utility.yul\":8785:9151   */\n      swap2\n      swap1\n      pop\n      jump\t// out\n        /* \"#utility.yul\":9157:9576   */\n    tag_52:\n        /* \"#utility.yul\":9323:9327   */\n      0x00\n        /* \"#utility.yul\":9361:9363   */\n      0x20\n        /* \"#utility.yul\":9350:9359   */\n      dup3\n        /* \"#utility.yul\":9346:9364   */\n      add\n        /* \"#utility.yul\":9338:9364   */\n      swap1\n      pop\n        /* \"#utility.yul\":9410:9419   */\n      dup2\n        /* \"#utility.yul\":9404:9408   */\n      dup2\n        /* \"#utility.yul\":9400:9420   */\n      sub\n        /* \"#utility.yul\":9396:9397   */\n      0x00\n        /* \"#utility.yul\":9385:9394   */\n      dup4\n        /* \"#utility.yul\":9381:9398   */\n      add\n        /* \"#utility.yul\":9374:9421   */\n      mstore\n        /* \"#utility.yul\":9438:9569   */\n      tag_216\n        /* \"#utility.yul\":9564:9568   */\n      dup2\n        /* \"#utility.yul\":9438:9569   */\n      tag_101\n      jump\t// in\n    tag_216:\n        /* \"#utility.yul\":9430:9569   */\n      swap1\n      pop\n        /* \"#utility.yul\":9157:9576   */\n      swap2\n      swap1\n      pop\n      jump\t// out\n        /* \"#utility.yul\":9582:9723   */\n    tag_102:\n        /* \"#utility.yul\":9631:9635   */\n      0x00\n        /* \"#utility.yul\":9654:9657   */\n      dup2\n        /* \"#utility.yul\":9646:9657   */\n      swap1\n      pop\n        /* \"#utility.yul\":9677:9680   */\n      dup2\n        /* \"#utility.yul\":9674:9675   */\n      0x00\n        /* \"#utility.yul\":9667:9681   */\n      mstore\n        /* \"#utility.yul\":9711:9715   */\n      0x20\n        /* \"#utility.yul\":9708:9709   */\n      0x00\n        /* \"#utility.yul\":9698:9716   */\n      keccak256\n        /* \"#utility.yul\":9690:9716   */\n      swap1\n      pop\n        /* \"#utility.yul\":9582:9723   */\n      swap2\n      swap1\n      pop\n      jump\t// out\n        /* \"#utility.yul\":9729:9822   */\n    tag_103:\n        /* \"#utility.yul\":9766:9772   */\n      0x00\n        /* \"#utility.yul\":9813:9815   */\n      0x20\n        /* \"#utility.yul\":9808:9810   */\n      0x1f\n        /* \"#utility.yul\":9801:9806   */\n      dup4\n        /* \"#utility.yul\":9797:9811   */\n      add\n        /* \"#utility.yul\":9793:9816   */\n      div\n        /* \"#utility.yul\":9783:9816   */\n      swap1\n      pop\n        /* \"#utility.yul\":9729:9822   */\n      swap2\n      swap1\n      pop\n      jump\t// out\n        /* \"#utility.yul\":9828:9935   */\n    tag_104:\n        /* \"#utility.yul\":9872:9880   */\n      0x00\n        /* \"#utility.yul\":9922:9927   */\n      dup3\n        /* \"#utility.yul\":9916:9920   */\n      dup3\n        /* \"#utility.yul\":9912:9928   */\n      shl\n        /* \"#utility.yul\":9891:9928   */\n      swap1\n      pop\n        /* \"#utility.yul\":9828:9935   */\n      swap3\n      swap2\n      pop\n      pop\n      jump\t// out\n        /* \"#utility.yul\":9941:10334   */\n    tag_105:\n        /* \"#utility.yul\":10010:10016   */\n      0x00\n        /* \"#utility.yul\":10060:10061   */\n      0x08\n        /* \"#utility.yul\":10048:10058   */\n      dup4\n        /* \"#utility.yul\":10044:10062   */\n      mul\n        /* \"#utility.yul\":10083:10180   */\n      tag_221\n        /* \"#utility.yul\":10113:10179   */\n      0xffffffffffffffffffffffffffffffffffffffffffffffffffffffffffffffff\n        /* \"#utility.yul\":10102:10111   */\n      dup3\n        /* \"#utility.yul\":10083:10180   */\n      tag_104\n      jump\t// in\n    tag_221:\n        /* \"#utility.yul\":10201:10240   */\n      tag_222\n        /* \"#utility.yul\":10231:10239   */\n      dup7\n        /* \"#utility.yul\":10220:10229   */\n      dup4\n        /* \"#utility.yul\":10201:10240   */\n      tag_104\n      jump\t// in\n    tag_222:\n        /* \"#utility.yul\":10189:10240   */\n      swap6\n      pop\n        /* \"#utility.yul\":10273:10277   */\n      dup1\n        /* \"#utility.yul\":10269:10278   */\n      not\n        /* \"#utility.yul\":10262:10267   */\n      dup5\n        /* \"#utility.yul\":10258:10279   */\n      and\n        /* \"#utility.yul\":10249:10279   */\n      swap4\n      pop\n        /* \"#utility.yul\":10322:10326   */\n      dup1\n        /* \"#utility.yul\":10312:10320   */\n      dup7\n        /* \"#utility.yul\":10308:10327   */\n      and\n        /* \"#utility.yul\":10301:10306   */\n      dup5\n        /* \"#utility.yul\":10298:10328   */\n      or\n        /* \"#utility.yul\":10288:10328   */\n      swap3\n      pop\n        /* \"#utility.yul\":10017:10334   */\n      pop\n      pop\n        /* \"#utility.yul\":9941:10334   */\n      swap4\n      swap3\n      pop\n      pop\n      pop\n      jump\t// out\n        /* \"#utility.yul\":10340:10400   */\n    tag_106:\n        /* \"#utility.yul\":10368:10371   */\n      0x00\n        /* \"#utility.yul\":10389:10394   */\n      dup2\n        /* \"#utility.yul\":10382:10394   */\n      swap1\n      pop\n        /* \"#utility.yul\":10340:10400   */\n      swap2\n      swap1\n      pop\n      jump\t// out\n        /* \"#utility.yul\":10406:10548   */\n    tag_107:\n        /* \"#utility.yul\":10456:10465   */\n      0x00\n        /* \"#utility.yul\":10489:10542   */\n      tag_225\n        /* \"#utility.yul\":10507:10541   */\n      tag_226\n        /* \"#utility.yul\":10516:10540   */\n      tag_227\n        /* \"#utility.yul\":10534:10539   */\n      dup5\n        /* \"#utility.yul\":10516:10540   */\n      tag_82\n      jump\t// in\n    tag_227:\n        /* \"#utility.yul\":10507:10541   */\n      tag_106\n      jump\t// in\n    tag_226:\n        /* \"#utility.yul\":10489:10542   */\n      tag_82\n      jump\t// in\n    tag_225:\n        /* \"#utility.yul\":10476:10542   */\n      swap1\n      pop\n        /* \"#utility.yul\":10406:10548   */\n      swap2\n      swap1\n      pop\n      jump\t// out\n        /* \"#utility.yul\":10554:10629   */\n    tag_108:\n        /* \"#utility.yul\":10597:10600   */\n      0x00\n        /* \"#utility.yul\":10618:10623   */\n      dup2\n        /* \"#utility.yul\":10611:10623   */\n      swap1\n      pop\n        /* \"#utility.yul\":10554:10629   */\n      swap2\n      swap1\n      pop\n      jump\t// out\n        /* \"#utility.yul\":10635:10904   */\n    tag_109:\n        /* \"#utility.yul\":10745:10784   */\n      tag_230\n        /* \"#utility.yul\":10776:10783   */\n      dup4\n        /* \"#utility.yul\":10745:10784   */\n      tag_107\n      jump\t// in\n    tag_230:\n        /* \"#utility.yul\":10806:10897   */\n      tag_231\n        /* \"#utility.yul\":10855:10896   */\n      tag_232\n        /* \"#utility.yul\":10879:10895   */\n      dup3\n        /* \"#utility.yul\":10855:10896   */\n      tag_108\n      jump\t// in\n    tag_232:\n        /* \"#utility.yul\":10847:10853   */\n      dup5\n        /* \"#utility.yul\":10840:10844   */\n      dup5\n        /* \"#utility.yul\":10834:10845   */\n      sload\n        /* \"#utility.yul\":10806:10897   */\n      tag_105\n      jump\t// in\n    tag_231:\n        /* \"#utility.yul\":10800:10804   */\n      dup3\n        /* \"#utility.yul\":10793:10898   */\n      sstore\n        /* \"#utility.yul\":10711:10904   */\n      pop\n        /* \"#utility.yul\":10635:10904   */\n      pop\n      pop\n      pop\n      jump\t// out\n        /* \"#utility.yul\":10910:10983   */\n    tag_110:\n        /* \"#utility.yul\":10955:10958   */\n      0x00\n        /* \"#utility.yul\":10976:10977   */\n      0x00\n        /* \"#utility.yul\":10969:10977   */\n      swap1\n      pop\n        /* \"#utility.yul\":10910:10983   */\n      swap1\n      jump\t// out\n        /* \"#utility.yul\":10989:11178   */\n    tag_111:\n        /* \"#utility.yul\":11066:11098   */\n      tag_235\n      tag_110\n      jump\t// in\n    tag_235:\n        /* \"#utility.yul\":11107:11172   */\n      tag_236\n        /* \"#utility.yul\":11165:11171   */\n      dup2\n        /* \"#utility.yul\":11157:11163   */\n      dup5\n        /* \"#utility.yul\":11151:11155   */\n      dup5\n        /* \"#utility.yul\":11107:11172   */\n      tag_109\n      jump\t// in\n    tag_236:\n        /* \"#utility.yul\":11042:11178   */\n      pop\n        /* \"#utility.yul\":10989:11178   */\n      pop\n      pop\n      jump\t// out\n        /* \"#utility.yul\":11184:11370   */\n    tag_112:\n        /* \"#utility.yul\":11244:11364   */\n    tag_238:\n        /* \"#utility.yul\":11261:11264   */\n      dup2\n        /* \"#utility.yul\":11254:11259   */\n      dup2\n        /* \"#utility.yul\":11251:11265   */\n      lt\n        /* \"#utility.yul\":11244:11364   */\n      iszero\n      tag_240\n      jumpi\n        /* \"#utility.yul\":11315:11354   */\n      tag_241\n        /* \"#utility.yul\":11352:11353   */\n      0x00\n        /* \"#utility.yul\":11345:11350   */\n      dup3\n        /* \"#utility.yul\":11315:11354   */\n      tag_111\n      jump\t// in\n    tag_241:\n        /* \"#utility.yul\":11288:11289   */\n      0x01\n        /* \"#utility.yul\":11281:11286   */\n      dup2\n        /* \"#utility.yul\":11277:11290   */\n      add\n        /* \"#utility.yul\":11268:11290   */\n      swap1\n      pop\n        /* \"#utility.yul\":11244:11364   */\n      jump(tag_238)\n    tag_240:\n        /* \"#utility.yul\":11184:11370   */\n      pop\n      pop\n      jump\t// out\n        /* \"#utility.yul\":11376:11919   */\n    tag_113:\n        /* \"#utility.yul\":11477:11479   */\n      0x1f\n        /* \"#utility.yul\":11472:11475   */\n      dup3\n        /* \"#utility.yul\":11469:11480   */\n      gt\n        /* \"#utility.yul\":11466:11912   */\n      iszero\n      tag_243\n      jumpi\n        /* \"#utility.yul\":11511:11549   */\n      tag_244\n        /* \"#utility.yul\":11543:11548   */\n      dup2\n        /* \"#utility.yul\":11511:11549   */\n      tag_102\n      jump\t// in\n    tag_244:\n        /* \"#utility.yul\":11595:11624   */\n      tag_245\n        /* \"#utility.yul\":11613:11623   */\n      dup5\n        /* \"#utility.yul\":11595:11624   */\n      tag_103\n      jump\t// in\n    tag_245:\n        /* \"#utility.yul\":11585:11593   */\n      dup2\n        /* \"#utility.yul\":11581:11625   */\n      add\n        /* \"#utility.yul\":11778:11780   */\n      0x20\n        /* \"#utility.yul\":11766:11776   */\n      dup6\n        /* \"#utility.yul\":11763:11781   */\n      lt\n        /* \"#utility.yul\":11760:11809   */\n      iszero\n      tag_246\n      jumpi\n        /* \"#utility.yul\":11799:11807   */\n      dup2\n        /* \"#utility.yul\":11784:11807   */\n      swap1\n      pop\n        /* \"#utility.yul\":11760:11809   */\n    tag_246:\n        /* \"#utility.yul\":11822:11902   */\n      tag_247\n        /* \"#utility.yul\":11878:11900   */\n      tag_248\n        /* \"#utility.yul\":11896:11899   */\n      dup6\n        /* \"#utility.yul\":11878:11900   */\n      tag_103\n      jump\t// in\n    tag_248:\n        /* \"#utility.yul\":11868:11876   */\n      dup4\n        /* \"#utility.yul\":11864:11901   */\n      add\n        /* \"#utility.yul\":11851:11862   */\n      dup3\n        /* \"#utility.yul\":11822:11902   */\n      tag_112\n      jump\t// in\n    tag_247:\n        /* \"#utility.yul\":11481:11912   */\n      pop\n      pop\n        /* \"#utility.yul\":11466:11912   */\n    tag_243:\n        /* \"#utility.yul\":11376:11919   */\n      pop\n      pop\n      pop\n      jump\t// out\n        /* \"#utility.yul\":11925:12042   */\n    tag_114:\n        /* \"#utility.yul\":11979:11987   */\n      0x00\n        /* \"#utility.yul\":12029:12034   */\n      dup3\n        /* \"#utility.yul\":12023:12027   */\n      dup3\n        /* \"#utility.yul\":12019:12035   */\n      shr\n        /* \"#utility.yul\":11998:12035   */\n      swap1\n      pop\n        /* \"#utility.yul\":11925:12042   */\n      swap3\n      swap2\n      pop\n      pop\n      jump\t// out\n        /* \"#utility.yul\":12048:12217   */\n    tag_115:\n        /* \"#utility.yul\":12092:12098   */\n      0x00\n        /* \"#utility.yul\":12125:12176   */\n      tag_251\n        /* \"#utility.yul\":12173:12174   */\n      0x00\n        /* \"#utility.yul\":12169:12175   */\n      not\n        /* \"#utility.yul\":12161:12166   */\n      dup5\n        /* \"#utility.yul\":12158:12159   */\n      0x08\n        /* \"#utility.yul\":12154:12167   */\n      mul\n        /* \"#utility.yul\":12125:12176   */\n      tag_114\n      jump\t// in\n    tag_251:\n        /* \"#utility.yul\":12121:12177   */\n      not\n        /* \"#utility.yul\":12206:12210   */\n      dup1\n        /* \"#utility.yul\":12200:12204   */\n      dup4\n        /* \"#utility.yul\":12196:12211   */\n      and\n        /* \"#utility.yul\":12186:12211   */\n      swap2\n      pop\n        /* \"#utility.yul\":12099:12217   */\n      pop\n        /* \"#utility.yul\":12048:12217   */\n      swap3\n      swap2\n      pop\n      pop\n      jump\t// out\n        /* \"#utility.yul\":12222:12517   */\n    tag_116:\n        /* \"#utility.yul\":12298:12302   */\n      0x00\n        /* \"#utility.yul\":12444:12473   */\n      tag_253\n        /* \"#utility.yul\":12469:12472   */\n      dup4\n        /* \"#utility.yul\":12463:12467   */\n      dup4\n        /* \"#utility.yul\":12444:12473   */\n      tag_115\n      jump\t// in\n    tag_253:\n        /* \"#utility.yul\":12436:12473   */\n      swap2\n      pop\n        /* \"#utility.yul\":12506:12509   */\n      dup3\n        /* \"#utility.yul\":12503:12504   */\n      0x02\n        /* \"#utility.yul\":12499:12510   */\n      mul\n        /* \"#utility.yul\":12493:12497   */\n      dup3\n        /* \"#utility.yul\":12490:12511   */\n      or\n        /* \"#utility.yul\":12482:12511   */\n      swap1\n      pop\n        /* \"#utility.yul\":12222:12517   */\n      swap3\n      swap2\n      pop\n      pop\n      jump\t// out\n        /* \"#utility.yul\":12522:13917   */\n    tag_54:\n        /* \"#utility.yul\":12639:12676   */\n      tag_255\n        /* \"#utility.yul\":12672:12675   */\n      dup3\n        /* \"#utility.yul\":12639:12676   */\n      tag_77\n      jump\t// in\n    tag_255:\n        /* \"#utility.yul\":12741:12759   */\n      0xffffffffffffffff\n        /* \"#utility.yul\":12733:12739   */\n      dup2\n        /* \"#utility.yul\":12730:12760   */\n      gt\n        /* \"#utility.yul\":12727:12783   */\n      iszero\n      tag_256\n      jumpi\n        /* \"#utility.yul\":12763:12781   */\n      tag_257\n      tag_86\n      jump\t// in\n    tag_257:\n        /* \"#utility.yul\":12727:12783   */\n    tag_256:\n        /* \"#utility.yul\":12807:12845   */\n      tag_258\n        /* \"#utility.yul\":12839:12843   */\n      dup3\n        /* \"#utility.yul\":12833:12844   */\n      sload\n        /* \"#utility.yul\":12807:12845   */\n      tag_37\n      jump\t// in\n    tag_258:\n        /* \"#utility.yul\":12892:12959   */\n      tag_259\n        /* \"#utility.yul\":12952:12958   */\n      dup3\n        /* \"#utility.yul\":12944:12950   */\n      dup3\n        /* \"#utility.yul\":12938:12942   */\n      dup6\n        /* \"#utility.yul\":12892:12959   */\n      tag_113\n      jump\t// in\n    tag_259:\n        /* \"#utility.yul\":12986:12987   */\n      0x00\n        /* \"#utility.yul\":13010:13014   */\n      0x20\n        /* \"#utility.yul\":12997:13014   */\n      swap1\n      pop\n        /* \"#utility.yul\":13042:13044   */\n      0x1f\n        /* \"#utility.yul\":13034:13040   */\n      dup4\n        /* \"#utility.yul\":13031:13045   */\n      gt\n        /* \"#utility.yul\":13059:13060   */\n      0x01\n        /* \"#utility.yul\":13054:13672   */\n      dup2\n      eq\n      tag_261\n      jumpi\n        /* \"#utility.yul\":13716:13717   */\n      0x00\n        /* \"#utility.yul\":13733:13739   */\n      dup5\n        /* \"#utility.yul\":13730:13807   */\n      iszero\n      tag_262\n      jumpi\n        /* \"#utility.yul\":13782:13791   */\n      dup3\n        /* \"#utility.yul\":13777:13780   */\n      dup8\n        /* \"#utility.yul\":13773:13792   */\n      add\n        /* \"#utility.yul\":13767:13793   */\n      mload\n        /* \"#utility.yul\":13758:13793   */\n      swap1\n      pop\n        /* \"#utility.yul\":13730:13807   */\n    tag_262:\n        /* \"#utility.yul\":13833:13900   */\n      tag_263\n        /* \"#utility.yul\":13893:13899   */\n      dup6\n        /* \"#utility.yul\":13886:13891   */\n      dup3\n        /* \"#utility.yul\":13833:13900   */\n      tag_116\n      jump\t// in\n    tag_263:\n        /* \"#utility.yul\":13827:13831   */\n      dup7\n        /* \"#utility.yul\":13820:13901   */\n      sstore\n        /* \"#utility.yul\":13689:13911   */\n      pop\n        /* \"#utility.yul\":13024:13911   */\n      jump(tag_260)\n        /* \"#utility.yul\":13054:13672   */\n    tag_261:\n        /* \"#utility.yul\":13106:13110   */\n      0x1f\n        /* \"#utility.yul\":13102:13111   */\n      not\n        /* \"#utility.yul\":13094:13100   */\n      dup5\n        /* \"#utility.yul\":13090:13112   */\n      and\n        /* \"#utility.yul\":13140:13177   */\n      tag_264\n        /* \"#utility.yul\":13172:13176   */\n      dup7\n        /* \"#utility.yul\":13140:13177   */\n      tag_102\n      jump\t// in\n    tag_264:\n        /* \"#utility.yul\":13199:13200   */\n      0x00\n        /* \"#utility.yul\":13213:13421   */\n    tag_265:\n        /* \"#utility.yul\":13227:13234   */\n      dup3\n        /* \"#utility.yul\":13224:13225   */\n      dup2\n        /* \"#utility.yul\":13221:13235   */\n      lt\n        /* \"#utility.yul\":13213:13421   */\n      iszero\n      tag_267\n      jumpi\n        /* \"#utility.yul\":13306:13315   */\n      dup5\n        /* \"#utility.yul\":13301:13304   */\n      dup10\n        /* \"#utility.yul\":13297:13316   */\n      add\n        /* \"#utility.yul\":13291:13317   */\n      mload\n        /* \"#utility.yul\":13283:13289   */\n      dup3\n        /* \"#utility.yul\":13276:13318   */\n      sstore\n        /* \"#utility.yul\":13357:13358   */\n      0x01\n        /* \"#utility.yul\":13349:13355   */\n      dup3\n        /* \"#utility.yul\":13345:13359   */\n      add\n        /* \"#utility.yul\":13335:13359   */\n      swap2\n      pop\n        /* \"#utility.yul\":13404:13406   */\n      0x20\n        /* \"#utility.yul\":13393:13402   */\n      dup6\n        /* \"#utility.yul\":13389:13407   */\n      add\n        /* \"#utility.yul\":13376:13407   */\n      swap5\n      pop\n        /* \"#utility.yul\":13250:13254   */\n      0x20\n        /* \"#utility.yul\":13247:13248   */\n      dup2\n        /* \"#utility.yul\":13243:13255   */\n      add\n        /* \"#utility.yul\":13238:13255   */\n      swap1\n      pop\n        /* \"#utility.yul\":13213:13421   */\n      jump(tag_265)\n    tag_267:\n        /* \"#utility.yul\":13449:13455   */\n      dup7\n        /* \"#utility.yul\":13440:13447   */\n      dup4\n        /* \"#utility.yul\":13437:13456   */\n      lt\n        /* \"#utility.yul\":13434:13613   */\n      iszero\n      tag_268\n      jumpi\n        /* \"#utility.yul\":13507:13516   */\n      dup5\n        /* \"#utility.yul\":13502:13505   */\n      dup10\n        /* \"#utility.yul\":13498:13517   */\n      add\n        /* \"#utility.yul\":13492:13518   */\n      mload\n        /* \"#utility.yul\":13550:13598   */\n      tag_269\n        /* \"#utility.yul\":13592:13596   */\n      0x1f\n        /* \"#utility.yul\":13584:13590   */\n      dup10\n        /* \"#utility.yul\":13580:13597   */\n      and\n        /* \"#utility.yul\":13569:13578   */\n      dup3\n        /* \"#utility.yul\":13550:13598   */\n      tag_115\n      jump\t// in\n    tag_269:\n        /* \"#utility.yul\":13542:13548   */\n      dup4\n        /* \"#utility.yul\":13535:13599   */\n      sstore\n        /* \"#utility.yul\":13457:13613   */\n      pop\n        /* \"#utility.yul\":13434:13613   */\n    tag_268:\n        /* \"#utility.yul\":13659:13660   */\n      0x01\n        /* \"#utility.yul\":13655:13656   */\n      0x02\n        /* \"#utility.yul\":13647:13653   */\n      dup9\n        /* \"#utility.yul\":13643:13657   */\n      mul\n        /* \"#utility.yul\":13639:13661   */\n      add\n        /* \"#utility.yul\":13633:13637   */\n      dup9\n        /* \"#utility.yul\":13626:13662   */\n      sstore\n        /* \"#utility.yul\":13061:13672   */\n      pop\n      pop\n      pop\n        /* \"#utility.yul\":13024:13911   */\n    tag_260:\n      pop\n        /* \"#utility.yul\":12614:13917   */\n      pop\n      pop\n      pop\n        /* \"#utility.yul\":12522:13917   */\n      pop\n      pop\n      jump\t// out\n        /* \"#utility.yul\":13923:14103   */\n    tag_66:\n        /* \"#utility.yul\":13971:14048   */\n      0x4e487b7100000000000000000000000000000000000000000000000000000000\n        /* \"#utility.yul\":13968:13969   */\n      0x00\n        /* \"#utility.yul\":13961:14049   */\n      mstore\n        /* \"#utility.yul\":14068:14072   */\n      0x32\n        /* \"#utility.yul\":14065:14066   */\n      0x04\n        /* \"#utility.yul\":14058:14073   */\n      mstore\n        /* \"#utility.yul\":14092:14096   */\n      0x24\n        /* \"#utility.yul\":14089:14090   */\n      0x00\n        /* \"#utility.yul\":14082:14097   */\n      revert\n\n    auxdata: 0xa2646970667358221220f44e39f86eb1c26b526d10c53a908a293984919e2818ac0cdc8a86acbcededc264736f6c634300081e0033\n}\n",
				"bytecode": {
					"linkReferences": {},
					"object": "6080604052348015600e575f5ffd5b50610e0b8061001c5f395ff3fe608060405234801561000f575f5ffd5b5060043610610060575f3560e01c80636dd7d8ea146100645780638ab66a90146100805780639a594f06146100b15780639ab24eb0146100cd578063b9830ff1146100fd578063d55d73c514610107575b5f5ffd5b61007e6004803603810190610079919061069b565b610137565b005b61009a6004803603810190610095919061069b565b610274565b6040516100a892919061074e565b60405180910390f35b6100cb60048036038101906100c691906108a8565b610319565b005b6100e760048036038101906100e2919061069b565b61047b565b6040516100f49190610902565b60405180910390f35b61010561054f565b005b610121600480360381019061011c9190610945565b6105f5565b60405161012e919061097f565b60405180910390f35b5f5f5f8373ffffffffffffffffffffffffffffffffffffffff1673ffffffffffffffffffffffffffffffffffffffff1681526020019081526020015f205f018054610181906109c5565b9050036101c3576040517f08c379a00000000000000000000000000000000000000000000000000000000081526004016101ba90610a3f565b60405180910390fd5b5f5f8273ffffffffffffffffffffffffffffffffffffffff1673ffffffffffffffffffffffffffffffffffffffff1681526020019081526020015f206001015f81548092919061021290610a8a565b91905055508073ffffffffffffffffffffffffffffffffffffffff163373ffffffffffffffffffffffffffffffffffffffff167fce0c7a2a940807f7dc2ce7a615c2532e915e6c0ac9a08bc4ed9d515a710a53e260405160405180910390a350565b5f602052805f5260405f205f91509050805f018054610292906109c5565b80601f01602080910402602001604051908101604052809291908181526020018280546102be906109c5565b80156103095780601f106102e057610100808354040283529160200191610309565b820191905f5260205f20905b8154815290600101906020018083116102ec57829003601f168201915b5050505050908060010154905082565b5f5f5f8473ffffffffffffffffffffffffffffffffffffffff1673ffffffffffffffffffffffffffffffffffffffff1681526020019081526020015f205f018054610363906109c5565b9050146103a5576040517f08c379a000000000000000000000000000000000000000000000000000000000815260040161039c90610b1b565b60405180910390fd5b60405180604001604052808281526020015f8152505f5f8473ffffffffffffffffffffffffffffffffffffffff1673ffffffffffffffffffffffffffffffffffffffff1681526020019081526020015f205f820151815f0190816104099190610cd9565b5060208201518160010155905050600182908060018154018082558091505060019003905f5260205f20015f9091909190916101000a81548173ffffffffffffffffffffffffffffffffffffffff021916908373ffffffffffffffffffffffffffffffffffffffff1602179055505050565b5f5f5f5f8473ffffffffffffffffffffffffffffffffffffffff1673ffffffffffffffffffffffffffffffffffffffff1681526020019081526020015f205f0180546104c6906109c5565b905003610508576040517f08c379a00000000000000000000000000000000000000000000000000000000081526004016104ff90610a3f565b60405180910390fd5b5f5f8373ffffffffffffffffffffffffffffffffffffffff1673ffffffffffffffffffffffffffffffffffffffff1681526020019081526020015f20600101549050919050565b5f5f90505b6001805490508110156105f2575f6001828154811061057657610575610da8565b5b905f5260205f20015f9054906101000a900473ffffffffffffffffffffffffffffffffffffffff1690505f5f5f8373ffffffffffffffffffffffffffffffffffffffff1673ffffffffffffffffffffffffffffffffffffffff1681526020019081526020015f2060010181905550508080600101915050610554565b50565b60018181548110610604575f80fd5b905f5260205f20015f915054906101000a900473ffffffffffffffffffffffffffffffffffffffff1681565b5f604051905090565b5f5ffd5b5f5ffd5b5f73ffffffffffffffffffffffffffffffffffffffff82169050919050565b5f61066a82610641565b9050919050565b61067a81610660565b8114610684575f5ffd5b50565b5f8135905061069581610671565b92915050565b5f602082840312156106b0576106af610639565b5b5f6106bd84828501610687565b91505092915050565b5f81519050919050565b5f82825260208201905092915050565b8281835e5f83830152505050565b5f601f19601f8301169050919050565b5f610708826106c6565b61071281856106d0565b93506107228185602086016106e0565b61072b816106ee565b840191505092915050565b5f819050919050565b61074881610736565b82525050565b5f6040820190508181035f83015261076681856106fe565b9050610775602083018461073f565b9392505050565b5f5ffd5b5f5ffd5b7f4e487b71000000000000000000000000000000000000000000000000000000005f52604160045260245ffd5b6107ba826106ee565b810181811067ffffffffffffffff821117156107d9576107d8610784565b5b80604052505050565b5f6107eb610630565b90506107f782826107b1565b919050565b5f67ffffffffffffffff82111561081657610815610784565b5b61081f826106ee565b9050602081019050919050565b828183375f83830152505050565b5f61084c610847846107fc565b6107e2565b90508281526020810184848401111561086857610867610780565b5b61087384828561082c565b509392505050565b5f82601f83011261088f5761088e61077c565b5b813561089f84826020860161083a565b91505092915050565b5f5f604083850312156108be576108bd610639565b5b5f6108cb85828601610687565b925050602083013567ffffffffffffffff8111156108ec576108eb61063d565b5b6108f88582860161087b565b9150509250929050565b5f6020820190506109155f83018461073f565b92915050565b61092481610736565b811461092e575f5ffd5b50565b5f8135905061093f8161091b565b92915050565b5f6020828403121561095a57610959610639565b5b5f61096784828501610931565b91505092915050565b61097981610660565b82525050565b5f6020820190506109925f830184610970565b92915050565b7f4e487b71000000000000000000000000000000000000000000000000000000005f52602260045260245ffd5b5f60028204905060018216806109dc57607f821691505b6020821081036109ef576109ee610998565b5b50919050565b7f43616e64696461746520646f6573206e6f742065786973742e000000000000005f82015250565b5f610a296019836106d0565b9150610a34826109f5565b602082019050919050565b5f6020820190508181035f830152610a5681610a1d565b9050919050565b7f4e487b71000000000000000000000000000000000000000000000000000000005f52601160045260245ffd5b5f610a9482610736565b91507fffffffffffffffffffffffffffffffffffffffffffffffffffffffffffffffff8203610ac657610ac5610a5d565b5b600182019050919050565b7f43616e64696461746520616c7265616479206578697374732e000000000000005f82015250565b5f610b056019836106d0565b9150610b1082610ad1565b602082019050919050565b5f6020820190508181035f830152610b3281610af9565b9050919050565b5f819050815f5260205f209050919050565b5f6020601f8301049050919050565b5f82821b905092915050565b5f60088302610b957fffffffffffffffffffffffffffffffffffffffffffffffffffffffffffffffff82610b5a565b610b9f8683610b5a565b95508019841693508086168417925050509392505050565b5f819050919050565b5f610bda610bd5610bd084610736565b610bb7565b610736565b9050919050565b5f819050919050565b610bf383610bc0565b610c07610bff82610be1565b848454610b66565b825550505050565b5f5f905090565b610c1e610c0f565b610c29818484610bea565b505050565b5b81811015610c4c57610c415f82610c16565b600181019050610c2f565b5050565b601f821115610c9157610c6281610b39565b610c6b84610b4b565b81016020851015610c7a578190505b610c8e610c8685610b4b565b830182610c2e565b50505b505050565b5f82821c905092915050565b5f610cb15f1984600802610c96565b1980831691505092915050565b5f610cc98383610ca2565b9150826002028217905092915050565b610ce2826106c6565b67ffffffffffffffff811115610cfb57610cfa610784565b5b610d0582546109c5565b610d10828285610c50565b5f60209050601f831160018114610d41575f8415610d2f578287015190505b610d398582610cbe565b865550610da0565b601f198416610d4f86610b39565b5f5b82811015610d7657848901518255600182019150602085019450602081019050610d51565b86831015610d935784890151610d8f601f891682610ca2565b8355505b6001600288020188555050505b505050505050565b7f4e487b71000000000000000000000000000000000000000000000000000000005f52603260045260245ffdfea2646970667358221220f44e39f86eb1c26b526d10c53a908a293984919e2818ac0cdc8a86acbcededc264736f6c634300081e0033",
					"opcodes": "PUSH1 0x80 PUSH1 0x40 MSTORE CALLVALUE DUP1 ISZERO PUSH1 0xE JUMPI PUSH0 PUSH0 REVERT JUMPDEST POP PUSH2 0xE0B DUP1 PUSH2 0x1C PUSH0 CODECOPY PUSH0 RETURN INVALID PUSH1 0x80 PUSH1 0x40 MSTORE CALLVALUE DUP1 ISZERO PUSH2 0xF JUMPI PUSH0 PUSH0 REVERT JUMPDEST POP PUSH1 0x4 CALLDATASIZE LT PUSH2 0x60 JUMPI PUSH0 CALLDATALOAD PUSH1 0xE0 SHR DUP1 PUSH4 0x6DD7D8EA EQ PUSH2 0x64 JUMPI DUP1 PUSH4 0x8AB66A90 EQ PUSH2 0x80 JUMPI DUP1 PUSH4 0x9A594F06 EQ PUSH2 0xB1 JUMPI DUP1 PUSH4 0x9AB24EB0 EQ PUSH2 0xCD JUMPI DUP1 PUSH4 0xB9830FF1 EQ PUSH2 0xFD JUMPI DUP1 PUSH4 0xD55D73C5 EQ PUSH2 0x107 JUMPI JUMPDEST PUSH0 PUSH0 REVERT JUMPDEST PUSH2 0x7E PUSH1 0x4 DUP1 CALLDATASIZE SUB DUP2 ADD SWAP1 PUSH2 0x79 SWAP2 SWAP1 PUSH2 0x69B JUMP JUMPDEST PUSH2 0x137 JUMP JUMPDEST STOP JUMPDEST PUSH2 0x9A PUSH1 0x4 DUP1 CALLDATASIZE SUB DUP2 ADD SWAP1 PUSH2 0x95 SWAP2 SWAP1 PUSH2 0x69B JUMP JUMPDEST PUSH2 0x274 JUMP JUMPDEST PUSH1 0x40 MLOAD PUSH2 0xA8 SWAP3 SWAP2 SWAP1 PUSH2 0x74E JUMP JUMPDEST PUSH1 0x40 MLOAD DUP1 SWAP2 SUB SWAP1 RETURN JUMPDEST PUSH2 0xCB PUSH1 0x4 DUP1 CALLDATASIZE SUB DUP2 ADD SWAP1 PUSH2 0xC6 SWAP2 SWAP1 PUSH2 0x8A8 JUMP JUMPDEST PUSH2 0x319 JUMP JUMPDEST STOP JUMPDEST PUSH2 0xE7 PUSH1 0x4 DUP1 CALLDATASIZE SUB DUP2 ADD SWAP1 PUSH2 0xE2 SWAP2 SWAP1 PUSH2 0x69B JUMP JUMPDEST PUSH2 0x47B JUMP JUMPDEST PUSH1 0x40 MLOAD PUSH2 0xF4 SWAP2 SWAP1 PUSH2 0x902 JUMP JUMPDEST PUSH1 0x40 MLOAD DUP1 SWAP2 SUB SWAP1 RETURN JUMPDEST PUSH2 0x105 PUSH2 0x54F JUMP JUMPDEST STOP JUMPDEST PUSH2 0x121 PUSH1 0x4 DUP1 CALLDATASIZE SUB DUP2 ADD SWAP1 PUSH2 0x11C SWAP2 SWAP1 PUSH2 0x945 JUMP JUMPDEST PUSH2 0x5F5 JUMP JUMPDEST PUSH1 0x40 MLOAD PUSH2 0x12E SWAP2 SWAP1 PUSH2 0x97F JUMP JUMPDEST PUSH1 0x40 MLOAD DUP1 SWAP2 SUB SWAP1 RETURN JUMPDEST PUSH0 PUSH0 PUSH0 DUP4 PUSH20 0xFFFFFFFFFFFFFFFFFFFFFFFFFFFFFFFFFFFFFFFF AND PUSH20 0xFFFFFFFFFFFFFFFFFFFFFFFFFFFFFFFFFFFFFFFF AND DUP2 MSTORE PUSH1 0x20 ADD SWAP1 DUP2 MSTORE PUSH1 0x20 ADD PUSH0 KECCAK256 PUSH0 ADD DUP1 SLOAD PUSH2 0x181 SWAP1 PUSH2 0x9C5 JUMP JUMPDEST SWAP1 POP SUB PUSH2 0x1C3 JUMPI PUSH1 0x40 MLOAD PUSH32 0x8C379A000000000000000000000000000000000000000000000000000000000 DUP2 MSTORE PUSH1 0x4 ADD PUSH2 0x1BA SWAP1 PUSH2 0xA3F JUMP JUMPDEST PUSH1 0x40 MLOAD DUP1 SWAP2 SUB SWAP1 REVERT JUMPDEST PUSH0 PUSH0 DUP3 PUSH20 0xFFFFFFFFFFFFFFFFFFFFFFFFFFFFFFFFFFFFFFFF AND PUSH20 0xFFFFFFFFFFFFFFFFFFFFFFFFFFFFFFFFFFFFFFFF AND DUP2 MSTORE PUSH1 0x20 ADD SWAP1 DUP2 MSTORE PUSH1 0x20 ADD PUSH0 KECCAK256 PUSH1 0x1 ADD PUSH0 DUP2 SLOAD DUP1 SWAP3 SWAP2 SWAP1 PUSH2 0x212 SWAP1 PUSH2 0xA8A JUMP JUMPDEST SWAP2 SWAP1 POP SSTORE POP DUP1 PUSH20 0xFFFFFFFFFFFFFFFFFFFFFFFFFFFFFFFFFFFFFFFF AND CALLER PUSH20 0xFFFFFFFFFFFFFFFFFFFFFFFFFFFFFFFFFFFFFFFF AND PUSH32 0xCE0C7A2A940807F7DC2CE7A615C2532E915E6C0AC9A08BC4ED9D515A710A53E2 PUSH1 0x40 MLOAD PUSH1 0x40 MLOAD DUP1 SWAP2 SUB SWAP1 LOG3 POP JUMP JUMPDEST PUSH0 PUSH1 0x20 MSTORE DUP1 PUSH0 MSTORE PUSH1 0x40 PUSH0 KECCAK256 PUSH0 SWAP2 POP SWAP1 POP DUP1 PUSH0 ADD DUP1 SLOAD PUSH2 0x292 SWAP1 PUSH2 0x9C5 JUMP JUMPDEST DUP1 PUSH1 0x1F ADD PUSH1 0x20 DUP1 SWAP2 DIV MUL PUSH1 0x20 ADD PUSH1 0x40 MLOAD SWAP1 DUP2 ADD PUSH1 0x40 MSTORE DUP1 SWAP3 SWAP2 SWAP1 DUP2 DUP2 MSTORE PUSH1 0x20 ADD DUP3 DUP1 SLOAD PUSH2 0x2BE SWAP1 PUSH2 0x9C5 JUMP JUMPDEST DUP1 ISZERO PUSH2 0x309 JUMPI DUP1 PUSH1 0x1F LT PUSH2 0x2E0 JUMPI PUSH2 0x100 DUP1 DUP4 SLOAD DIV MUL DUP4 MSTORE SWAP2 PUSH1 0x20 ADD SWAP2 PUSH2 0x309 JUMP JUMPDEST DUP3 ADD SWAP2 SWAP1 PUSH0 MSTORE PUSH1 0x20 PUSH0 KECCAK256 SWAP1 JUMPDEST DUP2 SLOAD DUP2 MSTORE SWAP1 PUSH1 0x1 ADD SWAP1 PUSH1 0x20 ADD DUP1 DUP4 GT PUSH2 0x2EC JUMPI DUP3 SWAP1 SUB PUSH1 0x1F AND DUP3 ADD SWAP2 JUMPDEST POP POP POP POP POP SWAP1 DUP1 PUSH1 0x1 ADD SLOAD SWAP1 POP DUP3 JUMP JUMPDEST PUSH0 PUSH0 PUSH0 DUP5 PUSH20 0xFFFFFFFFFFFFFFFFFFFFFFFFFFFFFFFFFFFFFFFF AND PUSH20 0xFFFFFFFFFFFFFFFFFFFFFFFFFFFFFFFFFFFFFFFF AND DUP2 MSTORE PUSH1 0x20 ADD SWAP1 DUP2 MSTORE PUSH1 0x20 ADD PUSH0 KECCAK256 PUSH0 ADD DUP1 SLOAD PUSH2 0x363 SWAP1 PUSH2 0x9C5 JUMP JUMPDEST SWAP1 POP EQ PUSH2 0x3A5 JUMPI PUSH1 0x40 MLOAD PUSH32 0x8C379A000000000000000000000000000000000000000000000000000000000 DUP2 MSTORE PUSH1 0x4 ADD PUSH2 0x39C SWAP1 PUSH2 0xB1B JUMP JUMPDEST PUSH1 0x40 MLOAD DUP1 SWAP2 SUB SWAP1 REVERT JUMPDEST PUSH1 0x40 MLOAD DUP1 PUSH1 0x40 ADD PUSH1 0x40 MSTORE DUP1 DUP3 DUP2 MSTORE PUSH1 0x20 ADD PUSH0 DUP2 MSTORE POP PUSH0 PUSH0 DUP5 PUSH20 0xFFFFFFFFFFFFFFFFFFFFFFFFFFFFFFFFFFFFFFFF AND PUSH20 0xFFFFFFFFFFFFFFFFFFFFFFFFFFFFFFFFFFFFFFFF AND DUP2 MSTORE PUSH1 0x20 ADD SWAP1 DUP2 MSTORE PUSH1 0x20 ADD PUSH0 KECCAK256 PUSH0 DUP3 ADD MLOAD DUP2 PUSH0 ADD SWAP1 DUP2 PUSH2 0x409 SWAP2 SWAP1 PUSH2 0xCD9 JUMP JUMPDEST POP PUSH1 0x20 DUP3 ADD MLOAD DUP2 PUSH1 0x1 ADD SSTORE SWAP1 POP POP PUSH1 0x1 DUP3 SWAP1 DUP1 PUSH1 0x1 DUP2 SLOAD ADD DUP1 DUP3 SSTORE DUP1 SWAP2 POP POP PUSH1 0x1 SWAP1 SUB SWAP1 PUSH0 MSTORE PUSH1 0x20 PUSH0 KECCAK256 ADD PUSH0 SWAP1 SWAP2 SWAP1 SWAP2 SWAP1 SWAP2 PUSH2 0x100 EXP DUP2 SLOAD DUP2 PUSH20 0xFFFFFFFFFFFFFFFFFFFFFFFFFFFFFFFFFFFFFFFF MUL NOT AND SWAP1 DUP4 PUSH20 0xFFFFFFFFFFFFFFFFFFFFFFFFFFFFFFFFFFFFFFFF AND MUL OR SWAP1 SSTORE POP POP POP JUMP JUMPDEST PUSH0 PUSH0 PUSH0 PUSH0 DUP5 PUSH20 0xFFFFFFFFFFFFFFFFFFFFFFFFFFFFFFFFFFFFFFFF AND PUSH20 0xFFFFFFFFFFFFFFFFFFFFFFFFFFFFFFFFFFFFFFFF AND DUP2 MSTORE PUSH1 0x20 ADD SWAP1 DUP2 MSTORE PUSH1 0x20 ADD PUSH0 KECCAK256 PUSH0 ADD DUP1 SLOAD PUSH2 0x4C6 SWAP1 PUSH2 0x9C5 JUMP JUMPDEST SWAP1 POP SUB PUSH2 0x508 JUMPI PUSH1 0x40 MLOAD PUSH32 0x8C379A000000000000000000000000000000000000000000000000000000000 DUP2 MSTORE PUSH1 0x4 ADD PUSH2 0x4FF SWAP1 PUSH2 0xA3F JUMP JUMPDEST PUSH1 0x40 MLOAD DUP1 SWAP2 SUB SWAP1 REVERT JUMPDEST PUSH0 PUSH0 DUP4 PUSH20 0xFFFFFFFFFFFFFFFFFFFFFFFFFFFFFFFFFFFFFFFF AND PUSH20 0xFFFFFFFFFFFFFFFFFFFFFFFFFFFFFFFFFFFFFFFF AND DUP2 MSTORE PUSH1 0x20 ADD SWAP1 DUP2 MSTORE PUSH1 0x20 ADD PUSH0 KECCAK256 PUSH1 0x1 ADD SLOAD SWAP1 POP SWAP2 SWAP1 POP JUMP JUMPDEST PUSH0 PUSH0 SWAP1 POP JUMPDEST PUSH1 0x1 DUP1 SLOAD SWAP1 POP DUP2 LT ISZERO PUSH2 0x5F2 JUMPI PUSH0 PUSH1 0x1 DUP3 DUP2 SLOAD DUP2 LT PUSH2 0x576 JUMPI PUSH2 0x575 PUSH2 0xDA8 JUMP JUMPDEST JUMPDEST SWAP1 PUSH0 MSTORE PUSH1 0x20 PUSH0 KECCAK256 ADD PUSH0 SWAP1 SLOAD SWAP1 PUSH2 0x100 EXP SWAP1 DIV PUSH20 0xFFFFFFFFFFFFFFFFFFFFFFFFFFFFFFFFFFFFFFFF AND SWAP1 POP PUSH0 PUSH0 PUSH0 DUP4 PUSH20 0xFFFFFFFFFFFFFFFFFFFFFFFFFFFFFFFFFFFFFFFF AND PUSH20 0xFFFFFFFFFFFFFFFFFFFFFFFFFFFFFFFFFFFFFFFF AND DUP2 MSTORE PUSH1 0x20 ADD SWAP1 DUP2 MSTORE PUSH1 0x20 ADD PUSH0 KECCAK256 PUSH1 0x1 ADD DUP2 SWAP1 SSTORE POP POP DUP1 DUP1 PUSH1 0x1 ADD SWAP2 POP POP PUSH2 0x554 JUMP JUMPDEST POP JUMP JUMPDEST PUSH1 0x1 DUP2 DUP2 SLOAD DUP2 LT PUSH2 0x604 JUMPI PUSH0 DUP1 REVERT JUMPDEST SWAP1 PUSH0 MSTORE PUSH1 0x20 PUSH0 KECCAK256 ADD PUSH0 SWAP2 POP SLOAD SWAP1 PUSH2 0x100 EXP SWAP1 DIV PUSH20 0xFFFFFFFFFFFFFFFFFFFFFFFFFFFFFFFFFFFFFFFF AND DUP2 JUMP JUMPDEST PUSH0 PUSH1 0x40 MLOAD SWAP1 POP SWAP1 JUMP JUMPDEST PUSH0 PUSH0 REVERT JUMPDEST PUSH0 PUSH0 REVERT JUMPDEST PUSH0 PUSH20 0xFFFFFFFFFFFFFFFFFFFFFFFFFFFFFFFFFFFFFFFF DUP3 AND SWAP1 POP SWAP2 SWAP1 POP JUMP JUMPDEST PUSH0 PUSH2 0x66A DUP3 PUSH2 0x641 JUMP JUMPDEST SWAP1 POP SWAP2 SWAP1 POP JUMP JUMPDEST PUSH2 0x67A DUP2 PUSH2 0x660 JUMP JUMPDEST DUP2 EQ PUSH2 0x684 JUMPI PUSH0 PUSH0 REVERT JUMPDEST POP JUMP JUMPDEST PUSH0 DUP2 CALLDATALOAD SWAP1 POP PUSH2 0x695 DUP2 PUSH2 0x671 JUMP JUMPDEST SWAP3 SWAP2 POP POP JUMP JUMPDEST PUSH0 PUSH1 0x20 DUP3 DUP5 SUB SLT ISZERO PUSH2 0x6B0 JUMPI PUSH2 0x6AF PUSH2 0x639 JUMP JUMPDEST JUMPDEST PUSH0 PUSH2 0x6BD DUP5 DUP3 DUP6 ADD PUSH2 0x687 JUMP JUMPDEST SWAP2 POP POP SWAP3 SWAP2 POP POP JUMP JUMPDEST PUSH0 DUP2 MLOAD SWAP1 POP SWAP2 SWAP1 POP JUMP JUMPDEST PUSH0 DUP3 DUP3 MSTORE PUSH1 0x20 DUP3 ADD SWAP1 POP SWAP3 SWAP2 POP POP JUMP JUMPDEST DUP3 DUP2 DUP4 MCOPY PUSH0 DUP4 DUP4 ADD MSTORE POP POP POP JUMP JUMPDEST PUSH0 PUSH1 0x1F NOT PUSH1 0x1F DUP4 ADD AND SWAP1 POP SWAP2 SWAP1 POP JUMP JUMPDEST PUSH0 PUSH2 0x708 DUP3 PUSH2 0x6C6 JUMP JUMPDEST PUSH2 0x712 DUP2 DUP6 PUSH2 0x6D0 JUMP JUMPDEST SWAP4 POP PUSH2 0x722 DUP2 DUP6 PUSH1 0x20 DUP7 ADD PUSH2 0x6E0 JUMP JUMPDEST PUSH2 0x72B DUP2 PUSH2 0x6EE JUMP JUMPDEST DUP5 ADD SWAP2 POP POP SWAP3 SWAP2 POP POP JUMP JUMPDEST PUSH0 DUP2 SWAP1 POP SWAP2 SWAP1 POP JUMP JUMPDEST PUSH2 0x748 DUP2 PUSH2 0x736 JUMP JUMPDEST DUP3 MSTORE POP POP JUMP JUMPDEST PUSH0 PUSH1 0x40 DUP3 ADD SWAP1 POP DUP2 DUP2 SUB PUSH0 DUP4 ADD MSTORE PUSH2 0x766 DUP2 DUP6 PUSH2 0x6FE JUMP JUMPDEST SWAP1 POP PUSH2 0x775 PUSH1 0x20 DUP4 ADD DUP5 PUSH2 0x73F JUMP JUMPDEST SWAP4 SWAP3 POP POP POP JUMP JUMPDEST PUSH0 PUSH0 REVERT JUMPDEST PUSH0 PUSH0 REVERT JUMPDEST PUSH32 0x4E487B7100000000000000000000000000000000000000000000000000000000 PUSH0 MSTORE PUSH1 0x41 PUSH1 0x4 MSTORE PUSH1 0x24 PUSH0 REVERT JUMPDEST PUSH2 0x7BA DUP3 PUSH2 0x6EE JUMP JUMPDEST DUP2 ADD DUP2 DUP2 LT PUSH8 0xFFFFFFFFFFFFFFFF DUP3 GT OR ISZERO PUSH2 0x7D9 JUMPI PUSH2 0x7D8 PUSH2 0x784 JUMP JUMPDEST JUMPDEST DUP1 PUSH1 0x40 MSTORE POP POP POP JUMP JUMPDEST PUSH0 PUSH2 0x7EB PUSH2 0x630 JUMP JUMPDEST SWAP1 POP PUSH2 0x7F7 DUP3 DUP3 PUSH2 0x7B1 JUMP JUMPDEST SWAP2 SWAP1 POP JUMP JUMPDEST PUSH0 PUSH8 0xFFFFFFFFFFFFFFFF DUP3 GT ISZERO PUSH2 0x816 JUMPI PUSH2 0x815 PUSH2 0x784 JUMP JUMPDEST JUMPDEST PUSH2 0x81F DUP3 PUSH2 0x6EE JUMP JUMPDEST SWAP1 POP PUSH1 0x20 DUP2 ADD SWAP1 POP SWAP2 SWAP1 POP JUMP JUMPDEST DUP3 DUP2 DUP4 CALLDATACOPY PUSH0 DUP4 DUP4 ADD MSTORE POP POP POP JUMP JUMPDEST PUSH0 PUSH2 0x84C PUSH2 0x847 DUP5 PUSH2 0x7FC JUMP JUMPDEST PUSH2 0x7E2 JUMP JUMPDEST SWAP1 POP DUP3 DUP2 MSTORE PUSH1 0x20 DUP2 ADD DUP5 DUP5 DUP5 ADD GT ISZERO PUSH2 0x868 JUMPI PUSH2 0x867 PUSH2 0x780 JUMP JUMPDEST JUMPDEST PUSH2 0x873 DUP5 DUP3 DUP6 PUSH2 0x82C JUMP JUMPDEST POP SWAP4 SWAP3 POP POP POP JUMP JUMPDEST PUSH0 DUP3 PUSH1 0x1F DUP4 ADD SLT PUSH2 0x88F JUMPI PUSH2 0x88E PUSH2 0x77C JUMP JUMPDEST JUMPDEST DUP2 CALLDATALOAD PUSH2 0x89F DUP5 DUP3 PUSH1 0x20 DUP7 ADD PUSH2 0x83A JUMP JUMPDEST SWAP2 POP POP SWAP3 SWAP2 POP POP JUMP JUMPDEST PUSH0 PUSH0 PUSH1 0x40 DUP4 DUP6 SUB SLT ISZERO PUSH2 0x8BE JUMPI PUSH2 0x8BD PUSH2 0x639 JUMP JUMPDEST JUMPDEST PUSH0 PUSH2 0x8CB DUP6 DUP3 DUP7 ADD PUSH2 0x687 JUMP JUMPDEST SWAP3 POP POP PUSH1 0x20 DUP4 ADD CALLDATALOAD PUSH8 0xFFFFFFFFFFFFFFFF DUP2 GT ISZERO PUSH2 0x8EC JUMPI PUSH2 0x8EB PUSH2 0x63D JUMP JUMPDEST JUMPDEST PUSH2 0x8F8 DUP6 DUP3 DUP7 ADD PUSH2 0x87B JUMP JUMPDEST SWAP2 POP POP SWAP3 POP SWAP3 SWAP1 POP JUMP JUMPDEST PUSH0 PUSH1 0x20 DUP3 ADD SWAP1 POP PUSH2 0x915 PUSH0 DUP4 ADD DUP5 PUSH2 0x73F JUMP JUMPDEST SWAP3 SWAP2 POP POP JUMP JUMPDEST PUSH2 0x924 DUP2 PUSH2 0x736 JUMP JUMPDEST DUP2 EQ PUSH2 0x92E JUMPI PUSH0 PUSH0 REVERT JUMPDEST POP JUMP JUMPDEST PUSH0 DUP2 CALLDATALOAD SWAP1 POP PUSH2 0x93F DUP2 PUSH2 0x91B JUMP JUMPDEST SWAP3 SWAP2 POP POP JUMP JUMPDEST PUSH0 PUSH1 0x20 DUP3 DUP5 SUB SLT ISZERO PUSH2 0x95A JUMPI PUSH2 0x959 PUSH2 0x639 JUMP JUMPDEST JUMPDEST PUSH0 PUSH2 0x967 DUP5 DUP3 DUP6 ADD PUSH2 0x931 JUMP JUMPDEST SWAP2 POP POP SWAP3 SWAP2 POP POP JUMP JUMPDEST PUSH2 0x979 DUP2 PUSH2 0x660 JUMP JUMPDEST DUP3 MSTORE POP POP JUMP JUMPDEST PUSH0 PUSH1 0x20 DUP3 ADD SWAP1 POP PUSH2 0x992 PUSH0 DUP4 ADD DUP5 PUSH2 0x970 JUMP JUMPDEST SWAP3 SWAP2 POP POP JUMP JUMPDEST PUSH32 0x4E487B7100000000000000000000000000000000000000000000000000000000 PUSH0 MSTORE PUSH1 0x22 PUSH1 0x4 MSTORE PUSH1 0x24 PUSH0 REVERT JUMPDEST PUSH0 PUSH1 0x2 DUP3 DIV SWAP1 POP PUSH1 0x1 DUP3 AND DUP1 PUSH2 0x9DC JUMPI PUSH1 0x7F DUP3 AND SWAP2 POP JUMPDEST PUSH1 0x20 DUP3 LT DUP2 SUB PUSH2 0x9EF JUMPI PUSH2 0x9EE PUSH2 0x998 JUMP JUMPDEST JUMPDEST POP SWAP2 SWAP1 POP JUMP JUMPDEST PUSH32 0x43616E64696461746520646F6573206E6F742065786973742E00000000000000 PUSH0 DUP3 ADD MSTORE POP JUMP JUMPDEST PUSH0 PUSH2 0xA29 PUSH1 0x19 DUP4 PUSH2 0x6D0 JUMP JUMPDEST SWAP2 POP PUSH2 0xA34 DUP3 PUSH2 0x9F5 JUMP JUMPDEST PUSH1 0x20 DUP3 ADD SWAP1 POP SWAP2 SWAP1 POP JUMP JUMPDEST PUSH0 PUSH1 0x20 DUP3 ADD SWAP1 POP DUP2 DUP2 SUB PUSH0 DUP4 ADD MSTORE PUSH2 0xA56 DUP2 PUSH2 0xA1D JUMP JUMPDEST SWAP1 POP SWAP2 SWAP1 POP JUMP JUMPDEST PUSH32 0x4E487B7100000000000000000000000000000000000000000000000000000000 PUSH0 MSTORE PUSH1 0x11 PUSH1 0x4 MSTORE PUSH1 0x24 PUSH0 REVERT JUMPDEST PUSH0 PUSH2 0xA94 DUP3 PUSH2 0x736 JUMP JUMPDEST SWAP2 POP PUSH32 0xFFFFFFFFFFFFFFFFFFFFFFFFFFFFFFFFFFFFFFFFFFFFFFFFFFFFFFFFFFFFFFFF DUP3 SUB PUSH2 0xAC6 JUMPI PUSH2 0xAC5 PUSH2 0xA5D JUMP JUMPDEST JUMPDEST PUSH1 0x1 DUP3 ADD SWAP1 POP SWAP2 SWAP1 POP JUMP JUMPDEST PUSH32 0x43616E64696461746520616C7265616479206578697374732E00000000000000 PUSH0 DUP3 ADD MSTORE POP JUMP JUMPDEST PUSH0 PUSH2 0xB05 PUSH1 0x19 DUP4 PUSH2 0x6D0 JUMP JUMPDEST SWAP2 POP PUSH2 0xB10 DUP3 PUSH2 0xAD1 JUMP JUMPDEST PUSH1 0x20 DUP3 ADD SWAP1 POP SWAP2 SWAP1 POP JUMP JUMPDEST PUSH0 PUSH1 0x20 DUP3 ADD SWAP1 POP DUP2 DUP2 SUB PUSH0 DUP4 ADD MSTORE PUSH2 0xB32 DUP2 PUSH2 0xAF9 JUMP JUMPDEST SWAP1 POP SWAP2 SWAP1 POP JUMP JUMPDEST PUSH0 DUP2 SWAP1 POP DUP2 PUSH0 MSTORE PUSH1 0x20 PUSH0 KECCAK256 SWAP1 POP SWAP2 SWAP1 POP JUMP JUMPDEST PUSH0 PUSH1 0x20 PUSH1 0x1F DUP4 ADD DIV SWAP1 POP SWAP2 SWAP1 POP JUMP JUMPDEST PUSH0 DUP3 DUP3 SHL SWAP1 POP SWAP3 SWAP2 POP POP JUMP JUMPDEST PUSH0 PUSH1 0x8 DUP4 MUL PUSH2 0xB95 PUSH32 0xFFFFFFFFFFFFFFFFFFFFFFFFFFFFFFFFFFFFFFFFFFFFFFFFFFFFFFFFFFFFFFFF DUP3 PUSH2 0xB5A JUMP JUMPDEST PUSH2 0xB9F DUP7 DUP4 PUSH2 0xB5A JUMP JUMPDEST SWAP6 POP DUP1 NOT DUP5 AND SWAP4 POP DUP1 DUP7 AND DUP5 OR SWAP3 POP POP POP SWAP4 SWAP3 POP POP POP JUMP JUMPDEST PUSH0 DUP2 SWAP1 POP SWAP2 SWAP1 POP JUMP JUMPDEST PUSH0 PUSH2 0xBDA PUSH2 0xBD5 PUSH2 0xBD0 DUP5 PUSH2 0x736 JUMP JUMPDEST PUSH2 0xBB7 JUMP JUMPDEST PUSH2 0x736 JUMP JUMPDEST SWAP1 POP SWAP2 SWAP1 POP JUMP JUMPDEST PUSH0 DUP2 SWAP1 POP SWAP2 SWAP1 POP JUMP JUMPDEST PUSH2 0xBF3 DUP4 PUSH2 0xBC0 JUMP JUMPDEST PUSH2 0xC07 PUSH2 0xBFF DUP3 PUSH2 0xBE1 JUMP JUMPDEST DUP5 DUP5 SLOAD PUSH2 0xB66 JUMP JUMPDEST DUP3 SSTORE POP POP POP POP JUMP JUMPDEST PUSH0 PUSH0 SWAP1 POP SWAP1 JUMP JUMPDEST PUSH2 0xC1E PUSH2 0xC0F JUMP JUMPDEST PUSH2 0xC29 DUP2 DUP5 DUP5 PUSH2 0xBEA JUMP JUMPDEST POP POP POP JUMP JUMPDEST JUMPDEST DUP2 DUP2 LT ISZERO PUSH2 0xC4C JUMPI PUSH2 0xC41 PUSH0 DUP3 PUSH2 0xC16 JUMP JUMPDEST PUSH1 0x1 DUP2 ADD SWAP1 POP PUSH2 0xC2F JUMP JUMPDEST POP POP JUMP JUMPDEST PUSH1 0x1F DUP3 GT ISZERO PUSH2 0xC91 JUMPI PUSH2 0xC62 DUP2 PUSH2 0xB39 JUMP JUMPDEST PUSH2 0xC6B DUP5 PUSH2 0xB4B JUMP JUMPDEST DUP2 ADD PUSH1 0x20 DUP6 LT ISZERO PUSH2 0xC7A JUMPI DUP2 SWAP1 POP JUMPDEST PUSH2 0xC8E PUSH2 0xC86 DUP6 PUSH2 0xB4B JUMP JUMPDEST DUP4 ADD DUP3 PUSH2 0xC2E JUMP JUMPDEST POP POP JUMPDEST POP POP POP JUMP JUMPDEST PUSH0 DUP3 DUP3 SHR SWAP1 POP SWAP3 SWAP2 POP POP JUMP JUMPDEST PUSH0 PUSH2 0xCB1 PUSH0 NOT DUP5 PUSH1 0x8 MUL PUSH2 0xC96 JUMP JUMPDEST NOT DUP1 DUP4 AND SWAP2 POP POP SWAP3 SWAP2 POP POP JUMP JUMPDEST PUSH0 PUSH2 0xCC9 DUP4 DUP4 PUSH2 0xCA2 JUMP JUMPDEST SWAP2 POP DUP3 PUSH1 0x2 MUL DUP3 OR SWAP1 POP SWAP3 SWAP2 POP POP JUMP JUMPDEST PUSH2 0xCE2 DUP3 PUSH2 0x6C6 JUMP JUMPDEST PUSH8 0xFFFFFFFFFFFFFFFF DUP2 GT ISZERO PUSH2 0xCFB JUMPI PUSH2 0xCFA PUSH2 0x784 JUMP JUMPDEST JUMPDEST PUSH2 0xD05 DUP3 SLOAD PUSH2 0x9C5 JUMP JUMPDEST PUSH2 0xD10 DUP3 DUP3 DUP6 PUSH2 0xC50 JUMP JUMPDEST PUSH0 PUSH1 0x20 SWAP1 POP PUSH1 0x1F DUP4 GT PUSH1 0x1 DUP2 EQ PUSH2 0xD41 JUMPI PUSH0 DUP5 ISZERO PUSH2 0xD2F JUMPI DUP3 DUP8 ADD MLOAD SWAP1 POP JUMPDEST PUSH2 0xD39 DUP6 DUP3 PUSH2 0xCBE JUMP JUMPDEST DUP7 SSTORE POP PUSH2 0xDA0 JUMP JUMPDEST PUSH1 0x1F NOT DUP5 AND PUSH2 0xD4F DUP7 PUSH2 0xB39 JUMP JUMPDEST PUSH0 JUMPDEST DUP3 DUP2 LT ISZERO PUSH2 0xD76 JUMPI DUP5 DUP10 ADD MLOAD DUP3 SSTORE PUSH1 0x1 DUP3 ADD SWAP2 POP PUSH1 0x20 DUP6 ADD SWAP5 POP PUSH1 0x20 DUP2 ADD SWAP1 POP PUSH2 0xD51 JUMP JUMPDEST DUP7 DUP4 LT ISZERO PUSH2 0xD93 JUMPI DUP5 DUP10 ADD MLOAD PUSH2 0xD8F PUSH1 0x1F DUP10 AND DUP3 PUSH2 0xCA2 JUMP JUMPDEST DUP4 SSTORE POP JUMPDEST PUSH1 0x1 PUSH1 0x2 DUP9 MUL ADD DUP9 SSTORE POP POP POP JUMPDEST POP POP POP POP POP POP JUMP JUMPDEST PUSH32 0x4E487B7100000000000000000000000000000000000000000000000000000000 PUSH0 MSTORE PUSH1 0x32 PUSH1 0x4 MSTORE PUSH1 0x24 PUSH0 REVERT INVALID LOG2 PUSH5 0x6970667358 0x22 SLT KECCAK256 DELEGATECALL 0x4E CODECOPY EXTCALL PUSH15 0xB1C26B526D10C53A908A293984919E 0x28 XOR 0xAC 0xC 0xDC DUP11 DUP7 0xAC 0xBC 0xED 0xED 0xC2 PUSH5 0x736F6C6343 STOP ADDMOD 0x1E STOP CALLER "
				},
				"gasEstimates": {
					"creation": {
						"codeDepositCost": "719000",
						"executionCost": "751",
						"totalCost": "719751"
					},
					"external": {
						"addCandidate(address,string)": "infinite",
						"candidateAddresses(uint256)": "5032",
						"candidates(address)": "infinite",
						"getVotes(address)": "5224",
						"resetVotes()": "infinite",
						"vote(address)": "28764"
					}
				},
				"methodIdentifiers": {
					"addCandidate(address,string)": "9a594f06",
					"candidateAddresses(uint256)": "d55d73c5",
					"candidates(address)": "8ab66a90",
					"getVotes(address)": "9ab24eb0",
					"resetVotes()": "b9830ff1",
					"vote(address)": "6dd7d8ea"
				}
			},
			"storageLayout": {
				"storage": [
					{
						"astId": 11,
						"contract": "assignment/assignmentOne.sol:Voting",
						"label": "candidates",
						"offset": 0,
						"slot": "0",
						"type": "t_mapping(t_address,t_struct(Candidate)6_storage)"
					},
					{
						"astId": 14,
						"contract": "assignment/assignmentOne.sol:Voting",
						"label": "candidateAddresses",
						"offset": 0,
						"slot": "1",
						"type": "t_array(t_address)dyn_storage"
					}
				],
				"types": {
					"t_address": {
						"encoding": "inplace",
						"label": "address",
						"numberOfBytes": "20"
					},
					"t_array(t_address)dyn_storage": {
						"base": "t_address",
						"encoding": "dynamic_array",
						"label": "address[]",
						"numberOfBytes": "32"
					},
					"t_mapping(t_address,t_struct(Candidate)6_storage)": {
						"encoding": "mapping",
						"key": "t_address",
						"label": "mapping(address => struct Voting.Candidate)",
						"numberOfBytes": "32",
						"value": "t_struct(Candidate)6_storage"
					},
					"t_string_storage": {
						"encoding": "bytes",
						"label": "string",
						"numberOfBytes": "32"
					},
					"t_struct(Candidate)6_storage": {
						"encoding": "inplace",
						"label": "struct Voting.Candidate",
						"members": [
							{
								"astId": 3,
								"contract": "assignment/assignmentOne.sol:Voting",
								"label": "name",
								"offset": 0,
								"slot": "0",
								"type": "t_string_storage"
							},
							{
								"astId": 5,
								"contract": "assignment/assignmentOne.sol:Voting",
								"label": "voteCount",
								"offset": 0,
								"slot": "1",
								"type": "t_uint256"
							}
						],
						"numberOfBytes": "64"
					},
					"t_uint256": {
						"encoding": "inplace",
						"label": "uint256",
						"numberOfBytes": "32"
					}
				}
			},
			"userdoc": {
				"kind": "user",
				"methods": {},
				"version": 1
			}
		}
	}
}